{
	"contracts/FinalProject.sol": {
		"ProposalContract": {
			"abi": [
				{
					"inputs": [],
					"stateMutability": "nonpayable",
					"type": "constructor"
				},
				{
					"inputs": [
						{
							"internalType": "string",
							"name": "_title",
							"type": "string"
						},
						{
							"internalType": "string",
							"name": "_description",
							"type": "string"
						},
						{
							"internalType": "uint256",
							"name": "_total_vote_to_end",
							"type": "uint256"
						}
					],
					"name": "create",
					"outputs": [],
					"stateMutability": "nonpayable",
					"type": "function"
				},
				{
					"inputs": [],
					"name": "getCurrentProposal",
					"outputs": [
						{
							"components": [
								{
									"internalType": "string",
									"name": "title",
									"type": "string"
								},
								{
									"internalType": "string",
									"name": "description",
									"type": "string"
								},
								{
									"internalType": "uint256",
									"name": "approve",
									"type": "uint256"
								},
								{
									"internalType": "uint256",
									"name": "reject",
									"type": "uint256"
								},
								{
									"internalType": "uint256",
									"name": "pass",
									"type": "uint256"
								},
								{
									"internalType": "uint256",
									"name": "total_vote_to_end",
									"type": "uint256"
								},
								{
									"internalType": "bool",
									"name": "current_state",
									"type": "bool"
								},
								{
									"internalType": "bool",
									"name": "is_active",
									"type": "bool"
								}
							],
							"internalType": "struct ProposalContract.Proposal",
							"name": "",
							"type": "tuple"
						}
					],
					"stateMutability": "view",
					"type": "function"
				},
				{
					"inputs": [
						{
							"internalType": "uint256",
							"name": "proposalId",
							"type": "uint256"
						}
					],
					"name": "getProposal",
					"outputs": [
						{
							"components": [
								{
									"internalType": "string",
									"name": "title",
									"type": "string"
								},
								{
									"internalType": "string",
									"name": "description",
									"type": "string"
								},
								{
									"internalType": "uint256",
									"name": "approve",
									"type": "uint256"
								},
								{
									"internalType": "uint256",
									"name": "reject",
									"type": "uint256"
								},
								{
									"internalType": "uint256",
									"name": "pass",
									"type": "uint256"
								},
								{
									"internalType": "uint256",
									"name": "total_vote_to_end",
									"type": "uint256"
								},
								{
									"internalType": "bool",
									"name": "current_state",
									"type": "bool"
								},
								{
									"internalType": "bool",
									"name": "is_active",
									"type": "bool"
								}
							],
							"internalType": "struct ProposalContract.Proposal",
							"name": "",
							"type": "tuple"
						}
					],
					"stateMutability": "view",
					"type": "function"
				},
				{
					"inputs": [
						{
							"internalType": "uint256",
							"name": "proposalId",
							"type": "uint256"
						},
						{
							"internalType": "address",
							"name": "_address",
							"type": "address"
						}
					],
					"name": "isVoted",
					"outputs": [
						{
							"internalType": "bool",
							"name": "",
							"type": "bool"
						}
					],
					"stateMutability": "view",
					"type": "function"
				},
				{
					"inputs": [
						{
							"internalType": "address",
							"name": "",
							"type": "address"
						}
					],
					"name": "lastVotedProposal",
					"outputs": [
						{
							"internalType": "uint256",
							"name": "",
							"type": "uint256"
						}
					],
					"stateMutability": "view",
					"type": "function"
				},
				{
					"inputs": [],
					"name": "owner",
					"outputs": [
						{
							"internalType": "address",
							"name": "",
							"type": "address"
						}
					],
					"stateMutability": "view",
					"type": "function"
				},
				{
					"inputs": [
						{
							"internalType": "uint256",
							"name": "",
							"type": "uint256"
						}
					],
					"name": "proposal_history",
					"outputs": [
						{
							"internalType": "string",
							"name": "title",
							"type": "string"
						},
						{
							"internalType": "string",
							"name": "description",
							"type": "string"
						},
						{
							"internalType": "uint256",
							"name": "approve",
							"type": "uint256"
						},
						{
							"internalType": "uint256",
							"name": "reject",
							"type": "uint256"
						},
						{
							"internalType": "uint256",
							"name": "pass",
							"type": "uint256"
						},
						{
							"internalType": "uint256",
							"name": "total_vote_to_end",
							"type": "uint256"
						},
						{
							"internalType": "bool",
							"name": "current_state",
							"type": "bool"
						},
						{
							"internalType": "bool",
							"name": "is_active",
							"type": "bool"
						}
					],
					"stateMutability": "view",
					"type": "function"
				},
				{
					"inputs": [
						{
							"internalType": "address",
							"name": "new_owner",
							"type": "address"
						}
					],
					"name": "setOwner",
					"outputs": [],
					"stateMutability": "nonpayable",
					"type": "function"
				},
				{
					"inputs": [
						{
							"internalType": "uint256",
							"name": "proposalId",
							"type": "uint256"
						},
						{
							"internalType": "uint8",
							"name": "choice",
							"type": "uint8"
						}
					],
					"name": "vote",
					"outputs": [],
					"stateMutability": "nonpayable",
					"type": "function"
				}
			],
			"devdoc": {
				"kind": "dev",
				"methods": {},
				"version": 1
			},
			"evm": {
				"assembly": "    /* \"contracts/FinalProject.sol\":58:3864  contract ProposalContract {... */\n  mstore(0x40, 0x80)\n    /* \"contracts/FinalProject.sol\":976:1025  constructor() {... */\n  callvalue\n  dup1\n  iszero\n  tag_1\n  jumpi\n  0x00\n  dup1\n  revert\ntag_1:\n  pop\n    /* \"contracts/FinalProject.sol\":1008:1018  msg.sender */\n  caller\n    /* \"contracts/FinalProject.sol\":1000:1005  owner */\n  0x00\n  dup1\n    /* \"contracts/FinalProject.sol\":1000:1018  owner = msg.sender */\n  0x0100\n  exp\n  dup2\n  sload\n  dup2\n  0xffffffffffffffffffffffffffffffffffffffff\n  mul\n  not\n  and\n  swap1\n  dup4\n  0xffffffffffffffffffffffffffffffffffffffff\n  and\n  mul\n  or\n  swap1\n  sstore\n  pop\n    /* \"contracts/FinalProject.sol\":58:3864  contract ProposalContract {... */\n  dataSize(sub_0)\n  dup1\n  dataOffset(sub_0)\n  0x00\n  codecopy\n  0x00\n  return\nstop\n\nsub_0: assembly {\n        /* \"contracts/FinalProject.sol\":58:3864  contract ProposalContract {... */\n      mstore(0x40, 0x80)\n      callvalue\n      dup1\n      iszero\n      tag_1\n      jumpi\n      0x00\n      dup1\n      revert\n    tag_1:\n      pop\n      jumpi(tag_2, lt(calldatasize, 0x04))\n      shr(0xe0, calldataload(0x00))\n      dup1\n      0x41ec6870\n      gt\n      tag_12\n      jumpi\n      dup1\n      0x41ec6870\n      eq\n      tag_7\n      jumpi\n      dup1\n      0x49c1a581\n      eq\n      tag_8\n      jumpi\n      dup1\n      0x8da5cb5b\n      eq\n      tag_9\n      jumpi\n      dup1\n      0x943e8216\n      eq\n      tag_10\n      jumpi\n      dup1\n      0xc7f758a8\n      eq\n      tag_11\n      jumpi\n      jump(tag_2)\n    tag_12:\n      dup1\n      0x02802bd1\n      eq\n      tag_3\n      jumpi\n      dup1\n      0x13af4035\n      eq\n      tag_4\n      jumpi\n      dup1\n      0x350f0d8c\n      eq\n      tag_5\n      jumpi\n      dup1\n      0x3ca6d100\n      eq\n      tag_6\n      jumpi\n    tag_2:\n      0x00\n      dup1\n      revert\n        /* \"contracts/FinalProject.sol\":891:943  mapping(address => uint256) public lastVotedProposal */\n    tag_3:\n      tag_13\n      0x04\n      dup1\n      calldatasize\n      sub\n      dup2\n      add\n      swap1\n      tag_14\n      swap2\n      swap1\n      tag_15\n      jump\t// in\n    tag_14:\n      tag_16\n      jump\t// in\n    tag_13:\n      mload(0x40)\n      tag_17\n      swap2\n      swap1\n      tag_18\n      jump\t// in\n    tag_17:\n      mload(0x40)\n      dup1\n      swap2\n      sub\n      swap1\n      return\n        /* \"contracts/FinalProject.sol\":1670:1760  function setOwner(address new_owner) external onlyOwner {... */\n    tag_4:\n      tag_19\n      0x04\n      dup1\n      calldatasize\n      sub\n      dup2\n      add\n      swap1\n      tag_20\n      swap2\n      swap1\n      tag_15\n      jump\t// in\n    tag_20:\n      tag_21\n      jump\t// in\n    tag_19:\n      stop\n        /* \"contracts/FinalProject.sol\":790:842  mapping(uint256 => Proposal) public proposal_history */\n    tag_5:\n      tag_22\n      0x04\n      dup1\n      calldatasize\n      sub\n      dup2\n      add\n      swap1\n      tag_23\n      swap2\n      swap1\n      tag_24\n      jump\t// in\n    tag_23:\n      tag_25\n      jump\t// in\n    tag_22:\n      mload(0x40)\n      tag_26\n      swap9\n      swap8\n      swap7\n      swap6\n      swap5\n      swap4\n      swap3\n      swap2\n      swap1\n      tag_27\n      jump\t// in\n    tag_26:\n      mload(0x40)\n      dup1\n      swap2\n      sub\n      swap1\n      return\n        /* \"contracts/FinalProject.sol\":1802:2254  function create(string calldata _title, string calldata _description, uint256 _total_vote_to_end) external onlyOwner {... */\n    tag_6:\n      tag_28\n      0x04\n      dup1\n      calldatasize\n      sub\n      dup2\n      add\n      swap1\n      tag_29\n      swap2\n      swap1\n      tag_30\n      jump\t// in\n    tag_29:\n      tag_31\n      jump\t// in\n    tag_28:\n      stop\n        /* \"contracts/FinalProject.sol\":3558:3677  function getCurrentProposal() external view returns (Proposal memory) {... */\n    tag_7:\n      tag_32\n      tag_33\n      jump\t// in\n    tag_32:\n      mload(0x40)\n      tag_34\n      swap2\n      swap1\n      tag_35\n      jump\t// in\n    tag_34:\n      mload(0x40)\n      dup1\n      swap2\n      sub\n      swap1\n      return\n        /* \"contracts/FinalProject.sol\":3362:3509  function isVoted(uint256 proposalId, address _address) public view returns (bool) {... */\n    tag_8:\n      tag_36\n      0x04\n      dup1\n      calldatasize\n      sub\n      dup2\n      add\n      swap1\n      tag_37\n      swap2\n      swap1\n      tag_38\n      jump\t// in\n    tag_37:\n      tag_39\n      jump\t// in\n    tag_36:\n      mload(0x40)\n      tag_40\n      swap2\n      swap1\n      tag_41\n      jump\t// in\n    tag_40:\n      mload(0x40)\n      dup1\n      swap2\n      sub\n      swap1\n      return\n        /* \"contracts/FinalProject.sol\":115:135  address public owner */\n    tag_9:\n      tag_42\n      tag_43\n      jump\t// in\n    tag_42:\n      mload(0x40)\n      tag_44\n      swap2\n      swap1\n      tag_45\n      jump\t// in\n    tag_44:\n      mload(0x40)\n      dup1\n      swap2\n      sub\n      swap1\n      return\n        /* \"contracts/FinalProject.sol\":2287:3017  function vote(uint256 proposalId, uint8 choice) external active(proposalId) newVoter(proposalId) {... */\n    tag_10:\n      tag_46\n      0x04\n      dup1\n      calldatasize\n      sub\n      dup2\n      add\n      swap1\n      tag_47\n      swap2\n      swap1\n      tag_48\n      jump\t// in\n    tag_47:\n      tag_49\n      jump\t// in\n    tag_46:\n      stop\n        /* \"contracts/FinalProject.sol\":3729:3862  function getProposal(uint256 proposalId) external view returns (Proposal memory) {... */\n    tag_11:\n      tag_50\n      0x04\n      dup1\n      calldatasize\n      sub\n      dup2\n      add\n      swap1\n      tag_51\n      swap2\n      swap1\n      tag_24\n      jump\t// in\n    tag_51:\n      tag_52\n      jump\t// in\n    tag_50:\n      mload(0x40)\n      tag_53\n      swap2\n      swap1\n      tag_35\n      jump\t// in\n    tag_53:\n      mload(0x40)\n      dup1\n      swap2\n      sub\n      swap1\n      return\n        /* \"contracts/FinalProject.sol\":891:943  mapping(address => uint256) public lastVotedProposal */\n    tag_16:\n      mstore(0x20, 0x03)\n      dup1\n      0x00\n      mstore\n      keccak256(0x00, 0x40)\n      0x00\n      swap2\n      pop\n      swap1\n      pop\n      sload\n      dup2\n      jump\t// out\n        /* \"contracts/FinalProject.sol\":1670:1760  function setOwner(address new_owner) external onlyOwner {... */\n    tag_21:\n        /* \"contracts/FinalProject.sol\":1151:1156  owner */\n      0x00\n      dup1\n      sload\n      swap1\n      0x0100\n      exp\n      swap1\n      div\n      0xffffffffffffffffffffffffffffffffffffffff\n      and\n        /* \"contracts/FinalProject.sol\":1137:1156  msg.sender == owner */\n      0xffffffffffffffffffffffffffffffffffffffff\n      and\n        /* \"contracts/FinalProject.sol\":1137:1147  msg.sender */\n      caller\n        /* \"contracts/FinalProject.sol\":1137:1156  msg.sender == owner */\n      0xffffffffffffffffffffffffffffffffffffffff\n      and\n      eq\n        /* \"contracts/FinalProject.sol\":1129:1193  require(msg.sender == owner, \"Only the owner can execute this.\") */\n      tag_55\n      jumpi\n      mload(0x40)\n      0x08c379a000000000000000000000000000000000000000000000000000000000\n      dup2\n      mstore\n      0x04\n      add\n      tag_56\n      swap1\n      tag_57\n      jump\t// in\n    tag_56:\n      mload(0x40)\n      dup1\n      swap2\n      sub\n      swap1\n      revert\n    tag_55:\n        /* \"contracts/FinalProject.sol\":1744:1753  new_owner */\n      dup1\n        /* \"contracts/FinalProject.sol\":1736:1741  owner */\n      0x00\n      dup1\n        /* \"contracts/FinalProject.sol\":1736:1753  owner = new_owner */\n      0x0100\n      exp\n      dup2\n      sload\n      dup2\n      0xffffffffffffffffffffffffffffffffffffffff\n      mul\n      not\n      and\n      swap1\n      dup4\n      0xffffffffffffffffffffffffffffffffffffffff\n      and\n      mul\n      or\n      swap1\n      sstore\n      pop\n        /* \"contracts/FinalProject.sol\":1670:1760  function setOwner(address new_owner) external onlyOwner {... */\n      pop\n      jump\t// out\n        /* \"contracts/FinalProject.sol\":790:842  mapping(uint256 => Proposal) public proposal_history */\n    tag_25:\n      mstore(0x20, 0x02)\n      dup1\n      0x00\n      mstore\n      keccak256(0x00, 0x40)\n      0x00\n      swap2\n      pop\n      swap1\n      pop\n      dup1\n      0x00\n      add\n      dup1\n      sload\n      tag_59\n      swap1\n      tag_60\n      jump\t// in\n    tag_59:\n      dup1\n      0x1f\n      add\n      0x20\n      dup1\n      swap2\n      div\n      mul\n      0x20\n      add\n      mload(0x40)\n      swap1\n      dup2\n      add\n      0x40\n      mstore\n      dup1\n      swap3\n      swap2\n      swap1\n      dup2\n      dup2\n      mstore\n      0x20\n      add\n      dup3\n      dup1\n      sload\n      tag_61\n      swap1\n      tag_60\n      jump\t// in\n    tag_61:\n      dup1\n      iszero\n      tag_62\n      jumpi\n      dup1\n      0x1f\n      lt\n      tag_63\n      jumpi\n      0x0100\n      dup1\n      dup4\n      sload\n      div\n      mul\n      dup4\n      mstore\n      swap2\n      0x20\n      add\n      swap2\n      jump(tag_62)\n    tag_63:\n      dup3\n      add\n      swap2\n      swap1\n      0x00\n      mstore\n      keccak256(0x00, 0x20)\n      swap1\n    tag_64:\n      dup2\n      sload\n      dup2\n      mstore\n      swap1\n      0x01\n      add\n      swap1\n      0x20\n      add\n      dup1\n      dup4\n      gt\n      tag_64\n      jumpi\n      dup3\n      swap1\n      sub\n      0x1f\n      and\n      dup3\n      add\n      swap2\n    tag_62:\n      pop\n      pop\n      pop\n      pop\n      pop\n      swap1\n      dup1\n      0x01\n      add\n      dup1\n      sload\n      tag_65\n      swap1\n      tag_60\n      jump\t// in\n    tag_65:\n      dup1\n      0x1f\n      add\n      0x20\n      dup1\n      swap2\n      div\n      mul\n      0x20\n      add\n      mload(0x40)\n      swap1\n      dup2\n      add\n      0x40\n      mstore\n      dup1\n      swap3\n      swap2\n      swap1\n      dup2\n      dup2\n      mstore\n      0x20\n      add\n      dup3\n      dup1\n      sload\n      tag_66\n      swap1\n      tag_60\n      jump\t// in\n    tag_66:\n      dup1\n      iszero\n      tag_67\n      jumpi\n      dup1\n      0x1f\n      lt\n      tag_68\n      jumpi\n      0x0100\n      dup1\n      dup4\n      sload\n      div\n      mul\n      dup4\n      mstore\n      swap2\n      0x20\n      add\n      swap2\n      jump(tag_67)\n    tag_68:\n      dup3\n      add\n      swap2\n      swap1\n      0x00\n      mstore\n      keccak256(0x00, 0x20)\n      swap1\n    tag_69:\n      dup2\n      sload\n      dup2\n      mstore\n      swap1\n      0x01\n      add\n      swap1\n      0x20\n      add\n      dup1\n      dup4\n      gt\n      tag_69\n      jumpi\n      dup3\n      swap1\n      sub\n      0x1f\n      and\n      dup3\n      add\n      swap2\n    tag_67:\n      pop\n      pop\n      pop\n      pop\n      pop\n      swap1\n      dup1\n      0x02\n      add\n      sload\n      swap1\n      dup1\n      0x03\n      add\n      sload\n      swap1\n      dup1\n      0x04\n      add\n      sload\n      swap1\n      dup1\n      0x05\n      add\n      sload\n      swap1\n      dup1\n      0x06\n      add\n      0x00\n      swap1\n      sload\n      swap1\n      0x0100\n      exp\n      swap1\n      div\n      0xff\n      and\n      swap1\n      dup1\n      0x06\n      add\n      0x01\n      swap1\n      sload\n      swap1\n      0x0100\n      exp\n      swap1\n      div\n      0xff\n      and\n      swap1\n      pop\n      dup9\n      jump\t// out\n        /* \"contracts/FinalProject.sol\":1802:2254  function create(string calldata _title, string calldata _description, uint256 _total_vote_to_end) external onlyOwner {... */\n    tag_31:\n        /* \"contracts/FinalProject.sol\":1151:1156  owner */\n      0x00\n      dup1\n      sload\n      swap1\n      0x0100\n      exp\n      swap1\n      div\n      0xffffffffffffffffffffffffffffffffffffffff\n      and\n        /* \"contracts/FinalProject.sol\":1137:1156  msg.sender == owner */\n      0xffffffffffffffffffffffffffffffffffffffff\n      and\n        /* \"contracts/FinalProject.sol\":1137:1147  msg.sender */\n      caller\n        /* \"contracts/FinalProject.sol\":1137:1156  msg.sender == owner */\n      0xffffffffffffffffffffffffffffffffffffffff\n      and\n      eq\n        /* \"contracts/FinalProject.sol\":1129:1193  require(msg.sender == owner, \"Only the owner can execute this.\") */\n      tag_71\n      jumpi\n      mload(0x40)\n      0x08c379a000000000000000000000000000000000000000000000000000000000\n      dup2\n      mstore\n      0x04\n      add\n      tag_72\n      swap1\n      tag_57\n      jump\t// in\n    tag_72:\n      mload(0x40)\n      dup1\n      swap2\n      sub\n      swap1\n      revert\n    tag_71:\n        /* \"contracts/FinalProject.sol\":1940:1941  1 */\n      0x01\n        /* \"contracts/FinalProject.sol\":1929:1936  counter */\n      dup1\n      0x00\n        /* \"contracts/FinalProject.sol\":1929:1941  counter += 1 */\n      dup3\n      dup3\n      sload\n      tag_74\n      swap2\n      swap1\n      tag_75\n      jump\t// in\n    tag_74:\n      swap3\n      pop\n      pop\n      dup2\n      swap1\n      sstore\n      pop\n        /* \"contracts/FinalProject.sol\":1979:2247  Proposal({... */\n      mload(0x40)\n      dup1\n      0x0100\n      add\n      0x40\n      mstore\n      dup1\n        /* \"contracts/FinalProject.sol\":2009:2015  _title */\n      dup7\n      dup7\n        /* \"contracts/FinalProject.sol\":1979:2247  Proposal({... */\n      dup1\n      dup1\n      0x1f\n      add\n      0x20\n      dup1\n      swap2\n      div\n      mul\n      0x20\n      add\n      mload(0x40)\n      swap1\n      dup2\n      add\n      0x40\n      mstore\n      dup1\n      swap4\n      swap3\n      swap2\n      swap1\n      dup2\n      dup2\n      mstore\n      0x20\n      add\n      dup4\n      dup4\n      dup1\n      dup3\n      dup5\n      calldatacopy\n      0x00\n      dup2\n      dup5\n      add\n      mstore\n      not(0x1f)\n      0x1f\n      dup3\n      add\n      and\n      swap1\n      pop\n      dup1\n      dup4\n      add\n      swap3\n      pop\n      pop\n      pop\n      pop\n      pop\n      pop\n      pop\n      dup2\n      mstore\n      0x20\n      add\n        /* \"contracts/FinalProject.sol\":2042:2054  _description */\n      dup5\n      dup5\n        /* \"contracts/FinalProject.sol\":1979:2247  Proposal({... */\n      dup1\n      dup1\n      0x1f\n      add\n      0x20\n      dup1\n      swap2\n      div\n      mul\n      0x20\n      add\n      mload(0x40)\n      swap1\n      dup2\n      add\n      0x40\n      mstore\n      dup1\n      swap4\n      swap3\n      swap2\n      swap1\n      dup2\n      dup2\n      mstore\n      0x20\n      add\n      dup4\n      dup4\n      dup1\n      dup3\n      dup5\n      calldatacopy\n      0x00\n      dup2\n      dup5\n      add\n      mstore\n      not(0x1f)\n      0x1f\n      dup3\n      add\n      and\n      swap1\n      pop\n      dup1\n      dup4\n      add\n      swap3\n      pop\n      pop\n      pop\n      pop\n      pop\n      pop\n      pop\n      dup2\n      mstore\n      0x20\n      add\n        /* \"contracts/FinalProject.sol\":2077:2078  0 */\n      0x00\n        /* \"contracts/FinalProject.sol\":1979:2247  Proposal({... */\n      dup2\n      mstore\n      0x20\n      add\n        /* \"contracts/FinalProject.sol\":2100:2101  0 */\n      0x00\n        /* \"contracts/FinalProject.sol\":1979:2247  Proposal({... */\n      dup2\n      mstore\n      0x20\n      add\n        /* \"contracts/FinalProject.sol\":2121:2122  0 */\n      0x00\n        /* \"contracts/FinalProject.sol\":1979:2247  Proposal({... */\n      dup2\n      mstore\n      0x20\n      add\n        /* \"contracts/FinalProject.sol\":2155:2173  _total_vote_to_end */\n      dup3\n        /* \"contracts/FinalProject.sol\":1979:2247  Proposal({... */\n      dup2\n      mstore\n      0x20\n      add\n        /* \"contracts/FinalProject.sol\":2202:2207  false */\n      0x00\n        /* \"contracts/FinalProject.sol\":1979:2247  Proposal({... */\n      iszero\n      iszero\n      dup2\n      mstore\n      0x20\n      add\n        /* \"contracts/FinalProject.sol\":2232:2236  true */\n      0x01\n        /* \"contracts/FinalProject.sol\":1979:2247  Proposal({... */\n      iszero\n      iszero\n      dup2\n      mstore\n      pop\n        /* \"contracts/FinalProject.sol\":1951:1967  proposal_history */\n      0x02\n        /* \"contracts/FinalProject.sol\":1951:1976  proposal_history[counter] */\n      0x00\n        /* \"contracts/FinalProject.sol\":1968:1975  counter */\n      sload(0x01)\n        /* \"contracts/FinalProject.sol\":1951:1976  proposal_history[counter] */\n      dup2\n      mstore\n      0x20\n      add\n      swap1\n      dup2\n      mstore\n      0x20\n      add\n      0x00\n      keccak256\n        /* \"contracts/FinalProject.sol\":1951:2247  proposal_history[counter] = Proposal({... */\n      0x00\n      dup3\n      add\n      mload\n      dup2\n      0x00\n      add\n      swap1\n      dup2\n      tag_76\n      swap2\n      swap1\n      tag_77\n      jump\t// in\n    tag_76:\n      pop\n      0x20\n      dup3\n      add\n      mload\n      dup2\n      0x01\n      add\n      swap1\n      dup2\n      tag_78\n      swap2\n      swap1\n      tag_77\n      jump\t// in\n    tag_78:\n      pop\n      0x40\n      dup3\n      add\n      mload\n      dup2\n      0x02\n      add\n      sstore\n      0x60\n      dup3\n      add\n      mload\n      dup2\n      0x03\n      add\n      sstore\n      0x80\n      dup3\n      add\n      mload\n      dup2\n      0x04\n      add\n      sstore\n      0xa0\n      dup3\n      add\n      mload\n      dup2\n      0x05\n      add\n      sstore\n      0xc0\n      dup3\n      add\n      mload\n      dup2\n      0x06\n      add\n      exp(0x0100, 0x00)\n      dup2\n      sload\n      dup2\n      0xff\n      mul\n      not\n      and\n      swap1\n      dup4\n      iszero\n      iszero\n      mul\n      or\n      swap1\n      sstore\n      pop\n      0xe0\n      dup3\n      add\n      mload\n      dup2\n      0x06\n      add\n      exp(0x0100, 0x01)\n      dup2\n      sload\n      dup2\n      0xff\n      mul\n      not\n      and\n      swap1\n      dup4\n      iszero\n      iszero\n      mul\n      or\n      swap1\n      sstore\n      pop\n      swap1\n      pop\n      pop\n        /* \"contracts/FinalProject.sol\":1802:2254  function create(string calldata _title, string calldata _description, uint256 _total_vote_to_end) external onlyOwner {... */\n      pop\n      pop\n      pop\n      pop\n      pop\n      jump\t// out\n        /* \"contracts/FinalProject.sol\":3558:3677  function getCurrentProposal() external view returns (Proposal memory) {... */\n    tag_33:\n        /* \"contracts/FinalProject.sol\":3611:3626  Proposal memory */\n      tag_79\n      tag_80\n      jump\t// in\n    tag_79:\n        /* \"contracts/FinalProject.sol\":3645:3661  proposal_history */\n      0x02\n        /* \"contracts/FinalProject.sol\":3645:3670  proposal_history[counter] */\n      0x00\n        /* \"contracts/FinalProject.sol\":3662:3669  counter */\n      sload(0x01)\n        /* \"contracts/FinalProject.sol\":3645:3670  proposal_history[counter] */\n      dup2\n      mstore\n      0x20\n      add\n      swap1\n      dup2\n      mstore\n      0x20\n      add\n      0x00\n      keccak256\n        /* \"contracts/FinalProject.sol\":3638:3670  return proposal_history[counter] */\n      mload(0x40)\n      dup1\n      0x0100\n      add\n      0x40\n      mstore\n      swap1\n      dup2\n      0x00\n      dup3\n      add\n      dup1\n      sload\n      tag_82\n      swap1\n      tag_60\n      jump\t// in\n    tag_82:\n      dup1\n      0x1f\n      add\n      0x20\n      dup1\n      swap2\n      div\n      mul\n      0x20\n      add\n      mload(0x40)\n      swap1\n      dup2\n      add\n      0x40\n      mstore\n      dup1\n      swap3\n      swap2\n      swap1\n      dup2\n      dup2\n      mstore\n      0x20\n      add\n      dup3\n      dup1\n      sload\n      tag_83\n      swap1\n      tag_60\n      jump\t// in\n    tag_83:\n      dup1\n      iszero\n      tag_84\n      jumpi\n      dup1\n      0x1f\n      lt\n      tag_85\n      jumpi\n      0x0100\n      dup1\n      dup4\n      sload\n      div\n      mul\n      dup4\n      mstore\n      swap2\n      0x20\n      add\n      swap2\n      jump(tag_84)\n    tag_85:\n      dup3\n      add\n      swap2\n      swap1\n      0x00\n      mstore\n      keccak256(0x00, 0x20)\n      swap1\n    tag_86:\n      dup2\n      sload\n      dup2\n      mstore\n      swap1\n      0x01\n      add\n      swap1\n      0x20\n      add\n      dup1\n      dup4\n      gt\n      tag_86\n      jumpi\n      dup3\n      swap1\n      sub\n      0x1f\n      and\n      dup3\n      add\n      swap2\n    tag_84:\n      pop\n      pop\n      pop\n      pop\n      pop\n      dup2\n      mstore\n      0x20\n      add\n      0x01\n      dup3\n      add\n      dup1\n      sload\n      tag_87\n      swap1\n      tag_60\n      jump\t// in\n    tag_87:\n      dup1\n      0x1f\n      add\n      0x20\n      dup1\n      swap2\n      div\n      mul\n      0x20\n      add\n      mload(0x40)\n      swap1\n      dup2\n      add\n      0x40\n      mstore\n      dup1\n      swap3\n      swap2\n      swap1\n      dup2\n      dup2\n      mstore\n      0x20\n      add\n      dup3\n      dup1\n      sload\n      tag_88\n      swap1\n      tag_60\n      jump\t// in\n    tag_88:\n      dup1\n      iszero\n      tag_89\n      jumpi\n      dup1\n      0x1f\n      lt\n      tag_90\n      jumpi\n      0x0100\n      dup1\n      dup4\n      sload\n      div\n      mul\n      dup4\n      mstore\n      swap2\n      0x20\n      add\n      swap2\n      jump(tag_89)\n    tag_90:\n      dup3\n      add\n      swap2\n      swap1\n      0x00\n      mstore\n      keccak256(0x00, 0x20)\n      swap1\n    tag_91:\n      dup2\n      sload\n      dup2\n      mstore\n      swap1\n      0x01\n      add\n      swap1\n      0x20\n      add\n      dup1\n      dup4\n      gt\n      tag_91\n      jumpi\n      dup3\n      swap1\n      sub\n      0x1f\n      and\n      dup3\n      add\n      swap2\n    tag_89:\n      pop\n      pop\n      pop\n      pop\n      pop\n      dup2\n      mstore\n      0x20\n      add\n      0x02\n      dup3\n      add\n      sload\n      dup2\n      mstore\n      0x20\n      add\n      0x03\n      dup3\n      add\n      sload\n      dup2\n      mstore\n      0x20\n      add\n      0x04\n      dup3\n      add\n      sload\n      dup2\n      mstore\n      0x20\n      add\n      0x05\n      dup3\n      add\n      sload\n      dup2\n      mstore\n      0x20\n      add\n      0x06\n      dup3\n      add\n      0x00\n      swap1\n      sload\n      swap1\n      0x0100\n      exp\n      swap1\n      div\n      0xff\n      and\n      iszero\n      iszero\n      iszero\n      iszero\n      dup2\n      mstore\n      0x20\n      add\n      0x06\n      dup3\n      add\n      0x01\n      swap1\n      sload\n      swap1\n      0x0100\n      exp\n      swap1\n      div\n      0xff\n      and\n      iszero\n      iszero\n      iszero\n      iszero\n      dup2\n      mstore\n      pop\n      pop\n      swap1\n      pop\n        /* \"contracts/FinalProject.sol\":3558:3677  function getCurrentProposal() external view returns (Proposal memory) {... */\n      swap1\n      jump\t// out\n        /* \"contracts/FinalProject.sol\":3362:3509  function isVoted(uint256 proposalId, address _address) public view returns (bool) {... */\n    tag_39:\n        /* \"contracts/FinalProject.sol\":3438:3442  bool */\n      0x00\n        /* \"contracts/FinalProject.sol\":3492:3502  proposalId */\n      dup3\n        /* \"contracts/FinalProject.sol\":3461:3478  lastVotedProposal */\n      0x03\n        /* \"contracts/FinalProject.sol\":3461:3488  lastVotedProposal[_address] */\n      0x00\n        /* \"contracts/FinalProject.sol\":3479:3487  _address */\n      dup5\n        /* \"contracts/FinalProject.sol\":3461:3488  lastVotedProposal[_address] */\n      0xffffffffffffffffffffffffffffffffffffffff\n      and\n      0xffffffffffffffffffffffffffffffffffffffff\n      and\n      dup2\n      mstore\n      0x20\n      add\n      swap1\n      dup2\n      mstore\n      0x20\n      add\n      0x00\n      keccak256\n      sload\n        /* \"contracts/FinalProject.sol\":3461:3502  lastVotedProposal[_address] >= proposalId */\n      lt\n      iszero\n        /* \"contracts/FinalProject.sol\":3454:3502  return lastVotedProposal[_address] >= proposalId */\n      swap1\n      pop\n        /* \"contracts/FinalProject.sol\":3362:3509  function isVoted(uint256 proposalId, address _address) public view returns (bool) {... */\n      swap3\n      swap2\n      pop\n      pop\n      jump\t// out\n        /* \"contracts/FinalProject.sol\":115:135  address public owner */\n    tag_43:\n      0x00\n      dup1\n      sload\n      swap1\n      0x0100\n      exp\n      swap1\n      div\n      0xffffffffffffffffffffffffffffffffffffffff\n      and\n      dup2\n      jump\t// out\n        /* \"contracts/FinalProject.sol\":2287:3017  function vote(uint256 proposalId, uint8 choice) external active(proposalId) newVoter(proposalId) {... */\n    tag_49:\n        /* \"contracts/FinalProject.sol\":2351:2361  proposalId */\n      dup2\n        /* \"contracts/FinalProject.sol\":1313:1329  proposal_history */\n      0x02\n        /* \"contracts/FinalProject.sol\":1313:1341  proposal_history[proposalId] */\n      0x00\n        /* \"contracts/FinalProject.sol\":1330:1340  proposalId */\n      dup3\n        /* \"contracts/FinalProject.sol\":1313:1341  proposal_history[proposalId] */\n      dup2\n      mstore\n      0x20\n      add\n      swap1\n      dup2\n      mstore\n      0x20\n      add\n      0x00\n      keccak256\n        /* \"contracts/FinalProject.sol\":1313:1351  proposal_history[proposalId].is_active */\n      0x06\n      add\n      0x01\n      swap1\n      sload\n      swap1\n      0x0100\n      exp\n      swap1\n      div\n      0xff\n      and\n        /* \"contracts/FinalProject.sol\":1305:1383  require(proposal_history[proposalId].is_active, \"The proposal is not active.\") */\n      tag_94\n      jumpi\n      mload(0x40)\n      0x08c379a000000000000000000000000000000000000000000000000000000000\n      dup2\n      mstore\n      0x04\n      add\n      tag_95\n      swap1\n      tag_96\n      jump\t// in\n    tag_95:\n      mload(0x40)\n      dup1\n      swap2\n      sub\n      swap1\n      revert\n    tag_94:\n        /* \"contracts/FinalProject.sol\":2372:2382  proposalId */\n      dup3\n        /* \"contracts/FinalProject.sol\":1553:1563  proposalId */\n      dup1\n        /* \"contracts/FinalProject.sol\":1521:1538  lastVotedProposal */\n      0x03\n        /* \"contracts/FinalProject.sol\":1521:1550  lastVotedProposal[msg.sender] */\n      0x00\n        /* \"contracts/FinalProject.sol\":1539:1549  msg.sender */\n      caller\n        /* \"contracts/FinalProject.sol\":1521:1550  lastVotedProposal[msg.sender] */\n      0xffffffffffffffffffffffffffffffffffffffff\n      and\n      0xffffffffffffffffffffffffffffffffffffffff\n      and\n      dup2\n      mstore\n      0x20\n      add\n      swap1\n      dup2\n      mstore\n      0x20\n      add\n      0x00\n      keccak256\n      sload\n        /* \"contracts/FinalProject.sol\":1521:1563  lastVotedProposal[msg.sender] < proposalId */\n      lt\n        /* \"contracts/FinalProject.sol\":1513:1611  require(lastVotedProposal[msg.sender] < proposalId, \"Address has already voted on this proposal.\") */\n      tag_98\n      jumpi\n      mload(0x40)\n      0x08c379a000000000000000000000000000000000000000000000000000000000\n      dup2\n      mstore\n      0x04\n      add\n      tag_99\n      swap1\n      tag_100\n      jump\t// in\n    tag_99:\n      mload(0x40)\n      dup1\n      swap2\n      sub\n      swap1\n      revert\n    tag_98:\n        /* \"contracts/FinalProject.sol\":2394:2419  Proposal storage proposal */\n      0x00\n        /* \"contracts/FinalProject.sol\":2422:2438  proposal_history */\n      0x02\n        /* \"contracts/FinalProject.sol\":2422:2450  proposal_history[proposalId] */\n      0x00\n        /* \"contracts/FinalProject.sol\":2439:2449  proposalId */\n      dup7\n        /* \"contracts/FinalProject.sol\":2422:2450  proposal_history[proposalId] */\n      dup2\n      mstore\n      0x20\n      add\n      swap1\n      dup2\n      mstore\n      0x20\n      add\n      0x00\n      keccak256\n        /* \"contracts/FinalProject.sol\":2394:2450  Proposal storage proposal = proposal_history[proposalId] */\n      swap1\n      pop\n        /* \"contracts/FinalProject.sol\":2478:2479  2 */\n      0x02\n        /* \"contracts/FinalProject.sol\":2468:2474  choice */\n      dup5\n        /* \"contracts/FinalProject.sol\":2468:2479  choice <= 2 */\n      0xff\n      and\n      gt\n      iszero\n        /* \"contracts/FinalProject.sol\":2460:2499  require(choice <= 2, \"Invalid choice.\") */\n      tag_102\n      jumpi\n      mload(0x40)\n      0x08c379a000000000000000000000000000000000000000000000000000000000\n      dup2\n      mstore\n      0x04\n      add\n      tag_103\n      swap1\n      tag_104\n      jump\t// in\n    tag_103:\n      mload(0x40)\n      dup1\n      swap2\n      sub\n      swap1\n      revert\n    tag_102:\n        /* \"contracts/FinalProject.sol\":2550:2560  proposalId */\n      dup5\n        /* \"contracts/FinalProject.sol\":2518:2535  lastVotedProposal */\n      0x03\n        /* \"contracts/FinalProject.sol\":2518:2547  lastVotedProposal[msg.sender] */\n      0x00\n        /* \"contracts/FinalProject.sol\":2536:2546  msg.sender */\n      caller\n        /* \"contracts/FinalProject.sol\":2518:2547  lastVotedProposal[msg.sender] */\n      0xffffffffffffffffffffffffffffffffffffffff\n      and\n      0xffffffffffffffffffffffffffffffffffffffff\n      and\n      dup2\n      mstore\n      0x20\n      add\n      swap1\n      dup2\n      mstore\n      0x20\n      add\n      0x00\n      keccak256\n        /* \"contracts/FinalProject.sol\":2518:2560  lastVotedProposal[msg.sender] = proposalId */\n      dup2\n      swap1\n      sstore\n      pop\n        /* \"contracts/FinalProject.sol\":2585:2586  1 */\n      0x01\n        /* \"contracts/FinalProject.sol\":2575:2581  choice */\n      dup5\n        /* \"contracts/FinalProject.sol\":2575:2586  choice == 1 */\n      0xff\n      and\n      sub\n        /* \"contracts/FinalProject.sol\":2571:2751  if (choice == 1) {... */\n      tag_105\n      jumpi\n        /* \"contracts/FinalProject.sol\":2622:2623  1 */\n      0x01\n        /* \"contracts/FinalProject.sol\":2602:2610  proposal */\n      dup2\n        /* \"contracts/FinalProject.sol\":2602:2618  proposal.approve */\n      0x02\n      add\n      0x00\n        /* \"contracts/FinalProject.sol\":2602:2623  proposal.approve += 1 */\n      dup3\n      dup3\n      sload\n      tag_106\n      swap2\n      swap1\n      tag_75\n      jump\t// in\n    tag_106:\n      swap3\n      pop\n      pop\n      dup2\n      swap1\n      sstore\n      pop\n        /* \"contracts/FinalProject.sol\":2571:2751  if (choice == 1) {... */\n      jump(tag_107)\n    tag_105:\n        /* \"contracts/FinalProject.sol\":2654:2655  2 */\n      0x02\n        /* \"contracts/FinalProject.sol\":2644:2650  choice */\n      dup5\n        /* \"contracts/FinalProject.sol\":2644:2655  choice == 2 */\n      0xff\n      and\n      sub\n        /* \"contracts/FinalProject.sol\":2640:2751  if (choice == 2) {... */\n      tag_108\n      jumpi\n        /* \"contracts/FinalProject.sol\":2690:2691  1 */\n      0x01\n        /* \"contracts/FinalProject.sol\":2671:2679  proposal */\n      dup2\n        /* \"contracts/FinalProject.sol\":2671:2686  proposal.reject */\n      0x03\n      add\n      0x00\n        /* \"contracts/FinalProject.sol\":2671:2691  proposal.reject += 1 */\n      dup3\n      dup3\n      sload\n      tag_109\n      swap2\n      swap1\n      tag_75\n      jump\t// in\n    tag_109:\n      swap3\n      pop\n      pop\n      dup2\n      swap1\n      sstore\n      pop\n        /* \"contracts/FinalProject.sol\":2640:2751  if (choice == 2) {... */\n      jump(tag_110)\n    tag_108:\n        /* \"contracts/FinalProject.sol\":2739:2740  1 */\n      0x01\n        /* \"contracts/FinalProject.sol\":2722:2730  proposal */\n      dup2\n        /* \"contracts/FinalProject.sol\":2722:2735  proposal.pass */\n      0x04\n      add\n      0x00\n        /* \"contracts/FinalProject.sol\":2722:2740  proposal.pass += 1 */\n      dup3\n      dup3\n      sload\n      tag_111\n      swap2\n      swap1\n      tag_75\n      jump\t// in\n    tag_111:\n      swap3\n      pop\n      pop\n      dup2\n      swap1\n      sstore\n      pop\n        /* \"contracts/FinalProject.sol\":2640:2751  if (choice == 2) {... */\n    tag_110:\n        /* \"contracts/FinalProject.sol\":2571:2751  if (choice == 1) {... */\n    tag_107:\n        /* \"contracts/FinalProject.sol\":2761:2779  uint256 total_vote */\n      0x00\n        /* \"contracts/FinalProject.sol\":2819:2827  proposal */\n      dup2\n        /* \"contracts/FinalProject.sol\":2819:2832  proposal.pass */\n      0x04\n      add\n      sload\n        /* \"contracts/FinalProject.sol\":2801:2809  proposal */\n      dup3\n        /* \"contracts/FinalProject.sol\":2801:2816  proposal.reject */\n      0x03\n      add\n      sload\n        /* \"contracts/FinalProject.sol\":2782:2790  proposal */\n      dup4\n        /* \"contracts/FinalProject.sol\":2782:2798  proposal.approve */\n      0x02\n      add\n      sload\n        /* \"contracts/FinalProject.sol\":2782:2816  proposal.approve + proposal.reject */\n      tag_112\n      swap2\n      swap1\n      tag_75\n      jump\t// in\n    tag_112:\n        /* \"contracts/FinalProject.sol\":2782:2832  proposal.approve + proposal.reject + proposal.pass */\n      tag_113\n      swap2\n      swap1\n      tag_75\n      jump\t// in\n    tag_113:\n        /* \"contracts/FinalProject.sol\":2761:2832  uint256 total_vote = proposal.approve + proposal.reject + proposal.pass */\n      swap1\n      pop\n        /* \"contracts/FinalProject.sol\":2860:2868  proposal */\n      dup2\n        /* \"contracts/FinalProject.sol\":2860:2886  proposal.total_vote_to_end */\n      0x05\n      add\n      sload\n        /* \"contracts/FinalProject.sol\":2846:2856  total_vote */\n      dup2\n        /* \"contracts/FinalProject.sol\":2846:2886  total_vote >= proposal.total_vote_to_end */\n      lt\n        /* \"contracts/FinalProject.sol\":2842:3011  if (total_vote >= proposal.total_vote_to_end) {... */\n      tag_114\n      jumpi\n        /* \"contracts/FinalProject.sol\":2923:2928  false */\n      0x00\n        /* \"contracts/FinalProject.sol\":2902:2910  proposal */\n      dup3\n        /* \"contracts/FinalProject.sol\":2902:2920  proposal.is_active */\n      0x06\n      add\n      0x01\n        /* \"contracts/FinalProject.sol\":2902:2928  proposal.is_active = false */\n      0x0100\n      exp\n      dup2\n      sload\n      dup2\n      0xff\n      mul\n      not\n      and\n      swap1\n      dup4\n      iszero\n      iszero\n      mul\n      or\n      swap1\n      sstore\n      pop\n        /* \"contracts/FinalProject.sol\":2967:3000  calculateCurrentState(proposalId) */\n      tag_115\n        /* \"contracts/FinalProject.sol\":2989:2999  proposalId */\n      dup7\n        /* \"contracts/FinalProject.sol\":2967:2988  calculateCurrentState */\n      tag_116\n        /* \"contracts/FinalProject.sol\":2967:3000  calculateCurrentState(proposalId) */\n      jump\t// in\n    tag_115:\n        /* \"contracts/FinalProject.sol\":2942:2950  proposal */\n      dup3\n        /* \"contracts/FinalProject.sol\":2942:2964  proposal.current_state */\n      0x06\n      add\n      0x00\n        /* \"contracts/FinalProject.sol\":2942:3000  proposal.current_state = calculateCurrentState(proposalId) */\n      0x0100\n      exp\n      dup2\n      sload\n      dup2\n      0xff\n      mul\n      not\n      and\n      swap1\n      dup4\n      iszero\n      iszero\n      mul\n      or\n      swap1\n      sstore\n      pop\n        /* \"contracts/FinalProject.sol\":2842:3011  if (total_vote >= proposal.total_vote_to_end) {... */\n    tag_114:\n        /* \"contracts/FinalProject.sol\":2384:3017  {... */\n      pop\n      pop\n        /* \"contracts/FinalProject.sol\":1393:1394  _ */\n      pop\n        /* \"contracts/FinalProject.sol\":2287:3017  function vote(uint256 proposalId, uint8 choice) external active(proposalId) newVoter(proposalId) {... */\n      pop\n      pop\n      pop\n      jump\t// out\n        /* \"contracts/FinalProject.sol\":3729:3862  function getProposal(uint256 proposalId) external view returns (Proposal memory) {... */\n    tag_52:\n        /* \"contracts/FinalProject.sol\":3793:3808  Proposal memory */\n      tag_117\n      tag_80\n      jump\t// in\n    tag_117:\n        /* \"contracts/FinalProject.sol\":3827:3843  proposal_history */\n      0x02\n        /* \"contracts/FinalProject.sol\":3827:3855  proposal_history[proposalId] */\n      0x00\n        /* \"contracts/FinalProject.sol\":3844:3854  proposalId */\n      dup4\n        /* \"contracts/FinalProject.sol\":3827:3855  proposal_history[proposalId] */\n      dup2\n      mstore\n      0x20\n      add\n      swap1\n      dup2\n      mstore\n      0x20\n      add\n      0x00\n      keccak256\n        /* \"contracts/FinalProject.sol\":3820:3855  return proposal_history[proposalId] */\n      mload(0x40)\n      dup1\n      0x0100\n      add\n      0x40\n      mstore\n      swap1\n      dup2\n      0x00\n      dup3\n      add\n      dup1\n      sload\n      tag_119\n      swap1\n      tag_60\n      jump\t// in\n    tag_119:\n      dup1\n      0x1f\n      add\n      0x20\n      dup1\n      swap2\n      div\n      mul\n      0x20\n      add\n      mload(0x40)\n      swap1\n      dup2\n      add\n      0x40\n      mstore\n      dup1\n      swap3\n      swap2\n      swap1\n      dup2\n      dup2\n      mstore\n      0x20\n      add\n      dup3\n      dup1\n      sload\n      tag_120\n      swap1\n      tag_60\n      jump\t// in\n    tag_120:\n      dup1\n      iszero\n      tag_121\n      jumpi\n      dup1\n      0x1f\n      lt\n      tag_122\n      jumpi\n      0x0100\n      dup1\n      dup4\n      sload\n      div\n      mul\n      dup4\n      mstore\n      swap2\n      0x20\n      add\n      swap2\n      jump(tag_121)\n    tag_122:\n      dup3\n      add\n      swap2\n      swap1\n      0x00\n      mstore\n      keccak256(0x00, 0x20)\n      swap1\n    tag_123:\n      dup2\n      sload\n      dup2\n      mstore\n      swap1\n      0x01\n      add\n      swap1\n      0x20\n      add\n      dup1\n      dup4\n      gt\n      tag_123\n      jumpi\n      dup3\n      swap1\n      sub\n      0x1f\n      and\n      dup3\n      add\n      swap2\n    tag_121:\n      pop\n      pop\n      pop\n      pop\n      pop\n      dup2\n      mstore\n      0x20\n      add\n      0x01\n      dup3\n      add\n      dup1\n      sload\n      tag_124\n      swap1\n      tag_60\n      jump\t// in\n    tag_124:\n      dup1\n      0x1f\n      add\n      0x20\n      dup1\n      swap2\n      div\n      mul\n      0x20\n      add\n      mload(0x40)\n      swap1\n      dup2\n      add\n      0x40\n      mstore\n      dup1\n      swap3\n      swap2\n      swap1\n      dup2\n      dup2\n      mstore\n      0x20\n      add\n      dup3\n      dup1\n      sload\n      tag_125\n      swap1\n      tag_60\n      jump\t// in\n    tag_125:\n      dup1\n      iszero\n      tag_126\n      jumpi\n      dup1\n      0x1f\n      lt\n      tag_127\n      jumpi\n      0x0100\n      dup1\n      dup4\n      sload\n      div\n      mul\n      dup4\n      mstore\n      swap2\n      0x20\n      add\n      swap2\n      jump(tag_126)\n    tag_127:\n      dup3\n      add\n      swap2\n      swap1\n      0x00\n      mstore\n      keccak256(0x00, 0x20)\n      swap1\n    tag_128:\n      dup2\n      sload\n      dup2\n      mstore\n      swap1\n      0x01\n      add\n      swap1\n      0x20\n      add\n      dup1\n      dup4\n      gt\n      tag_128\n      jumpi\n      dup3\n      swap1\n      sub\n      0x1f\n      and\n      dup3\n      add\n      swap2\n    tag_126:\n      pop\n      pop\n      pop\n      pop\n      pop\n      dup2\n      mstore\n      0x20\n      add\n      0x02\n      dup3\n      add\n      sload\n      dup2\n      mstore\n      0x20\n      add\n      0x03\n      dup3\n      add\n      sload\n      dup2\n      mstore\n      0x20\n      add\n      0x04\n      dup3\n      add\n      sload\n      dup2\n      mstore\n      0x20\n      add\n      0x05\n      dup3\n      add\n      sload\n      dup2\n      mstore\n      0x20\n      add\n      0x06\n      dup3\n      add\n      0x00\n      swap1\n      sload\n      swap1\n      0x0100\n      exp\n      swap1\n      div\n      0xff\n      and\n      iszero\n      iszero\n      iszero\n      iszero\n      dup2\n      mstore\n      0x20\n      add\n      0x06\n      dup3\n      add\n      0x01\n      swap1\n      sload\n      swap1\n      0x0100\n      exp\n      swap1\n      div\n      0xff\n      and\n      iszero\n      iszero\n      iszero\n      iszero\n      dup2\n      mstore\n      pop\n      pop\n      swap1\n      pop\n        /* \"contracts/FinalProject.sol\":3729:3862  function getProposal(uint256 proposalId) external view returns (Proposal memory) {... */\n      swap2\n      swap1\n      pop\n      jump\t// out\n        /* \"contracts/FinalProject.sol\":3067:3293  function calculateCurrentState(uint256 proposalId) private view returns(bool) {... */\n    tag_116:\n        /* \"contracts/FinalProject.sol\":3139:3143  bool */\n      0x00\n        /* \"contracts/FinalProject.sol\":3155:3180  Proposal storage proposal */\n      dup1\n        /* \"contracts/FinalProject.sol\":3183:3199  proposal_history */\n      0x02\n        /* \"contracts/FinalProject.sol\":3183:3211  proposal_history[proposalId] */\n      0x00\n        /* \"contracts/FinalProject.sol\":3200:3210  proposalId */\n      dup5\n        /* \"contracts/FinalProject.sol\":3183:3211  proposal_history[proposalId] */\n      dup2\n      mstore\n      0x20\n      add\n      swap1\n      dup2\n      mstore\n      0x20\n      add\n      0x00\n      keccak256\n        /* \"contracts/FinalProject.sol\":3155:3211  Proposal storage proposal = proposal_history[proposalId] */\n      swap1\n      pop\n        /* \"contracts/FinalProject.sol\":3283:3284  2 */\n      0x02\n        /* \"contracts/FinalProject.sol\":3267:3275  proposal */\n      dup2\n        /* \"contracts/FinalProject.sol\":3267:3280  proposal.pass */\n      0x04\n      add\n      sload\n        /* \"contracts/FinalProject.sol\":3267:3284  proposal.pass / 2 */\n      tag_130\n      swap2\n      swap1\n      tag_131\n      jump\t// in\n    tag_130:\n        /* \"contracts/FinalProject.sol\":3248:3256  proposal */\n      dup2\n        /* \"contracts/FinalProject.sol\":3248:3263  proposal.reject */\n      0x03\n      add\n      sload\n        /* \"contracts/FinalProject.sol\":3248:3285  proposal.reject + (proposal.pass / 2) */\n      tag_132\n      swap2\n      swap1\n      tag_75\n      jump\t// in\n    tag_132:\n        /* \"contracts/FinalProject.sol\":3228:3236  proposal */\n      dup2\n        /* \"contracts/FinalProject.sol\":3228:3244  proposal.approve */\n      0x02\n      add\n      sload\n        /* \"contracts/FinalProject.sol\":3228:3286  proposal.approve > (proposal.reject + (proposal.pass / 2)) */\n      gt\n        /* \"contracts/FinalProject.sol\":3221:3286  return proposal.approve > (proposal.reject + (proposal.pass / 2)) */\n      swap2\n      pop\n      pop\n        /* \"contracts/FinalProject.sol\":3067:3293  function calculateCurrentState(uint256 proposalId) private view returns(bool) {... */\n      swap2\n      swap1\n      pop\n      jump\t// out\n    tag_80:\n      mload(0x40)\n      dup1\n      0x0100\n      add\n      0x40\n      mstore\n      dup1\n      0x60\n      dup2\n      mstore\n      0x20\n      add\n      0x60\n      dup2\n      mstore\n      0x20\n      add\n      0x00\n      dup2\n      mstore\n      0x20\n      add\n      0x00\n      dup2\n      mstore\n      0x20\n      add\n      0x00\n      dup2\n      mstore\n      0x20\n      add\n      0x00\n      dup2\n      mstore\n      0x20\n      add\n      iszero(iszero(0x00))\n      dup2\n      mstore\n      0x20\n      add\n      iszero(iszero(0x00))\n      dup2\n      mstore\n      pop\n      swap1\n      jump\t// out\n        /* \"#utility.yul\":88:205   */\n    tag_134:\n        /* \"#utility.yul\":197:198   */\n      0x00\n        /* \"#utility.yul\":194:195   */\n      dup1\n        /* \"#utility.yul\":187:199   */\n      revert\n        /* \"#utility.yul\":211:328   */\n    tag_135:\n        /* \"#utility.yul\":320:321   */\n      0x00\n        /* \"#utility.yul\":317:318   */\n      dup1\n        /* \"#utility.yul\":310:322   */\n      revert\n        /* \"#utility.yul\":334:460   */\n    tag_136:\n        /* \"#utility.yul\":371:378   */\n      0x00\n        /* \"#utility.yul\":411:453   */\n      0xffffffffffffffffffffffffffffffffffffffff\n        /* \"#utility.yul\":404:409   */\n      dup3\n        /* \"#utility.yul\":400:454   */\n      and\n        /* \"#utility.yul\":389:454   */\n      swap1\n      pop\n        /* \"#utility.yul\":334:460   */\n      swap2\n      swap1\n      pop\n      jump\t// out\n        /* \"#utility.yul\":466:562   */\n    tag_137:\n        /* \"#utility.yul\":503:510   */\n      0x00\n        /* \"#utility.yul\":532:556   */\n      tag_197\n        /* \"#utility.yul\":550:555   */\n      dup3\n        /* \"#utility.yul\":532:556   */\n      tag_136\n      jump\t// in\n    tag_197:\n        /* \"#utility.yul\":521:556   */\n      swap1\n      pop\n        /* \"#utility.yul\":466:562   */\n      swap2\n      swap1\n      pop\n      jump\t// out\n        /* \"#utility.yul\":568:690   */\n    tag_138:\n        /* \"#utility.yul\":641:665   */\n      tag_199\n        /* \"#utility.yul\":659:664   */\n      dup2\n        /* \"#utility.yul\":641:665   */\n      tag_137\n      jump\t// in\n    tag_199:\n        /* \"#utility.yul\":634:639   */\n      dup2\n        /* \"#utility.yul\":631:666   */\n      eq\n        /* \"#utility.yul\":621:684   */\n      tag_200\n      jumpi\n        /* \"#utility.yul\":680:681   */\n      0x00\n        /* \"#utility.yul\":677:678   */\n      dup1\n        /* \"#utility.yul\":670:682   */\n      revert\n        /* \"#utility.yul\":621:684   */\n    tag_200:\n        /* \"#utility.yul\":568:690   */\n      pop\n      jump\t// out\n        /* \"#utility.yul\":696:835   */\n    tag_139:\n        /* \"#utility.yul\":742:747   */\n      0x00\n        /* \"#utility.yul\":780:786   */\n      dup2\n        /* \"#utility.yul\":767:787   */\n      calldataload\n        /* \"#utility.yul\":758:787   */\n      swap1\n      pop\n        /* \"#utility.yul\":796:829   */\n      tag_202\n        /* \"#utility.yul\":823:828   */\n      dup2\n        /* \"#utility.yul\":796:829   */\n      tag_138\n      jump\t// in\n    tag_202:\n        /* \"#utility.yul\":696:835   */\n      swap3\n      swap2\n      pop\n      pop\n      jump\t// out\n        /* \"#utility.yul\":841:1170   */\n    tag_15:\n        /* \"#utility.yul\":900:906   */\n      0x00\n        /* \"#utility.yul\":949:951   */\n      0x20\n        /* \"#utility.yul\":937:946   */\n      dup3\n        /* \"#utility.yul\":928:935   */\n      dup5\n        /* \"#utility.yul\":924:947   */\n      sub\n        /* \"#utility.yul\":920:952   */\n      slt\n        /* \"#utility.yul\":917:1036   */\n      iszero\n      tag_204\n      jumpi\n        /* \"#utility.yul\":955:1034   */\n      tag_205\n      tag_134\n      jump\t// in\n    tag_205:\n        /* \"#utility.yul\":917:1036   */\n    tag_204:\n        /* \"#utility.yul\":1075:1076   */\n      0x00\n        /* \"#utility.yul\":1100:1153   */\n      tag_206\n        /* \"#utility.yul\":1145:1152   */\n      dup5\n        /* \"#utility.yul\":1136:1142   */\n      dup3\n        /* \"#utility.yul\":1125:1134   */\n      dup6\n        /* \"#utility.yul\":1121:1143   */\n      add\n        /* \"#utility.yul\":1100:1153   */\n      tag_139\n      jump\t// in\n    tag_206:\n        /* \"#utility.yul\":1090:1153   */\n      swap2\n      pop\n        /* \"#utility.yul\":1046:1163   */\n      pop\n        /* \"#utility.yul\":841:1170   */\n      swap3\n      swap2\n      pop\n      pop\n      jump\t// out\n        /* \"#utility.yul\":1176:1253   */\n    tag_140:\n        /* \"#utility.yul\":1213:1220   */\n      0x00\n        /* \"#utility.yul\":1242:1247   */\n      dup2\n        /* \"#utility.yul\":1231:1247   */\n      swap1\n      pop\n        /* \"#utility.yul\":1176:1253   */\n      swap2\n      swap1\n      pop\n      jump\t// out\n        /* \"#utility.yul\":1259:1377   */\n    tag_141:\n        /* \"#utility.yul\":1346:1370   */\n      tag_209\n        /* \"#utility.yul\":1364:1369   */\n      dup2\n        /* \"#utility.yul\":1346:1370   */\n      tag_140\n      jump\t// in\n    tag_209:\n        /* \"#utility.yul\":1341:1344   */\n      dup3\n        /* \"#utility.yul\":1334:1371   */\n      mstore\n        /* \"#utility.yul\":1259:1377   */\n      pop\n      pop\n      jump\t// out\n        /* \"#utility.yul\":1383:1605   */\n    tag_18:\n        /* \"#utility.yul\":1476:1480   */\n      0x00\n        /* \"#utility.yul\":1514:1516   */\n      0x20\n        /* \"#utility.yul\":1503:1512   */\n      dup3\n        /* \"#utility.yul\":1499:1517   */\n      add\n        /* \"#utility.yul\":1491:1517   */\n      swap1\n      pop\n        /* \"#utility.yul\":1527:1598   */\n      tag_211\n        /* \"#utility.yul\":1595:1596   */\n      0x00\n        /* \"#utility.yul\":1584:1593   */\n      dup4\n        /* \"#utility.yul\":1580:1597   */\n      add\n        /* \"#utility.yul\":1571:1577   */\n      dup5\n        /* \"#utility.yul\":1527:1598   */\n      tag_141\n      jump\t// in\n    tag_211:\n        /* \"#utility.yul\":1383:1605   */\n      swap3\n      swap2\n      pop\n      pop\n      jump\t// out\n        /* \"#utility.yul\":1611:1733   */\n    tag_142:\n        /* \"#utility.yul\":1684:1708   */\n      tag_213\n        /* \"#utility.yul\":1702:1707   */\n      dup2\n        /* \"#utility.yul\":1684:1708   */\n      tag_140\n      jump\t// in\n    tag_213:\n        /* \"#utility.yul\":1677:1682   */\n      dup2\n        /* \"#utility.yul\":1674:1709   */\n      eq\n        /* \"#utility.yul\":1664:1727   */\n      tag_214\n      jumpi\n        /* \"#utility.yul\":1723:1724   */\n      0x00\n        /* \"#utility.yul\":1720:1721   */\n      dup1\n        /* \"#utility.yul\":1713:1725   */\n      revert\n        /* \"#utility.yul\":1664:1727   */\n    tag_214:\n        /* \"#utility.yul\":1611:1733   */\n      pop\n      jump\t// out\n        /* \"#utility.yul\":1739:1878   */\n    tag_143:\n        /* \"#utility.yul\":1785:1790   */\n      0x00\n        /* \"#utility.yul\":1823:1829   */\n      dup2\n        /* \"#utility.yul\":1810:1830   */\n      calldataload\n        /* \"#utility.yul\":1801:1830   */\n      swap1\n      pop\n        /* \"#utility.yul\":1839:1872   */\n      tag_216\n        /* \"#utility.yul\":1866:1871   */\n      dup2\n        /* \"#utility.yul\":1839:1872   */\n      tag_142\n      jump\t// in\n    tag_216:\n        /* \"#utility.yul\":1739:1878   */\n      swap3\n      swap2\n      pop\n      pop\n      jump\t// out\n        /* \"#utility.yul\":1884:2213   */\n    tag_24:\n        /* \"#utility.yul\":1943:1949   */\n      0x00\n        /* \"#utility.yul\":1992:1994   */\n      0x20\n        /* \"#utility.yul\":1980:1989   */\n      dup3\n        /* \"#utility.yul\":1971:1978   */\n      dup5\n        /* \"#utility.yul\":1967:1990   */\n      sub\n        /* \"#utility.yul\":1963:1995   */\n      slt\n        /* \"#utility.yul\":1960:2079   */\n      iszero\n      tag_218\n      jumpi\n        /* \"#utility.yul\":1998:2077   */\n      tag_219\n      tag_134\n      jump\t// in\n    tag_219:\n        /* \"#utility.yul\":1960:2079   */\n    tag_218:\n        /* \"#utility.yul\":2118:2119   */\n      0x00\n        /* \"#utility.yul\":2143:2196   */\n      tag_220\n        /* \"#utility.yul\":2188:2195   */\n      dup5\n        /* \"#utility.yul\":2179:2185   */\n      dup3\n        /* \"#utility.yul\":2168:2177   */\n      dup6\n        /* \"#utility.yul\":2164:2186   */\n      add\n        /* \"#utility.yul\":2143:2196   */\n      tag_143\n      jump\t// in\n    tag_220:\n        /* \"#utility.yul\":2133:2196   */\n      swap2\n      pop\n        /* \"#utility.yul\":2089:2206   */\n      pop\n        /* \"#utility.yul\":1884:2213   */\n      swap3\n      swap2\n      pop\n      pop\n      jump\t// out\n        /* \"#utility.yul\":2219:2318   */\n    tag_144:\n        /* \"#utility.yul\":2271:2277   */\n      0x00\n        /* \"#utility.yul\":2305:2310   */\n      dup2\n        /* \"#utility.yul\":2299:2311   */\n      mload\n        /* \"#utility.yul\":2289:2311   */\n      swap1\n      pop\n        /* \"#utility.yul\":2219:2318   */\n      swap2\n      swap1\n      pop\n      jump\t// out\n        /* \"#utility.yul\":2324:2493   */\n    tag_145:\n        /* \"#utility.yul\":2408:2419   */\n      0x00\n        /* \"#utility.yul\":2442:2448   */\n      dup3\n        /* \"#utility.yul\":2437:2440   */\n      dup3\n        /* \"#utility.yul\":2430:2449   */\n      mstore\n        /* \"#utility.yul\":2482:2486   */\n      0x20\n        /* \"#utility.yul\":2477:2480   */\n      dup3\n        /* \"#utility.yul\":2473:2487   */\n      add\n        /* \"#utility.yul\":2458:2487   */\n      swap1\n      pop\n        /* \"#utility.yul\":2324:2493   */\n      swap3\n      swap2\n      pop\n      pop\n      jump\t// out\n        /* \"#utility.yul\":2499:2745   */\n    tag_146:\n        /* \"#utility.yul\":2580:2581   */\n      0x00\n        /* \"#utility.yul\":2590:2703   */\n    tag_224:\n        /* \"#utility.yul\":2604:2610   */\n      dup4\n        /* \"#utility.yul\":2601:2602   */\n      dup2\n        /* \"#utility.yul\":2598:2611   */\n      lt\n        /* \"#utility.yul\":2590:2703   */\n      iszero\n      tag_226\n      jumpi\n        /* \"#utility.yul\":2689:2690   */\n      dup1\n        /* \"#utility.yul\":2684:2687   */\n      dup3\n        /* \"#utility.yul\":2680:2691   */\n      add\n        /* \"#utility.yul\":2674:2692   */\n      mload\n        /* \"#utility.yul\":2670:2671   */\n      dup2\n        /* \"#utility.yul\":2665:2668   */\n      dup5\n        /* \"#utility.yul\":2661:2672   */\n      add\n        /* \"#utility.yul\":2654:2693   */\n      mstore\n        /* \"#utility.yul\":2626:2628   */\n      0x20\n        /* \"#utility.yul\":2623:2624   */\n      dup2\n        /* \"#utility.yul\":2619:2629   */\n      add\n        /* \"#utility.yul\":2614:2629   */\n      swap1\n      pop\n        /* \"#utility.yul\":2590:2703   */\n      jump(tag_224)\n    tag_226:\n        /* \"#utility.yul\":2737:2738   */\n      0x00\n        /* \"#utility.yul\":2728:2734   */\n      dup5\n        /* \"#utility.yul\":2723:2726   */\n      dup5\n        /* \"#utility.yul\":2719:2735   */\n      add\n        /* \"#utility.yul\":2712:2739   */\n      mstore\n        /* \"#utility.yul\":2561:2745   */\n      pop\n        /* \"#utility.yul\":2499:2745   */\n      pop\n      pop\n      pop\n      jump\t// out\n        /* \"#utility.yul\":2751:2853   */\n    tag_147:\n        /* \"#utility.yul\":2792:2798   */\n      0x00\n        /* \"#utility.yul\":2843:2845   */\n      0x1f\n        /* \"#utility.yul\":2839:2846   */\n      not\n        /* \"#utility.yul\":2834:2836   */\n      0x1f\n        /* \"#utility.yul\":2827:2832   */\n      dup4\n        /* \"#utility.yul\":2823:2837   */\n      add\n        /* \"#utility.yul\":2819:2847   */\n      and\n        /* \"#utility.yul\":2809:2847   */\n      swap1\n      pop\n        /* \"#utility.yul\":2751:2853   */\n      swap2\n      swap1\n      pop\n      jump\t// out\n        /* \"#utility.yul\":2859:3236   */\n    tag_148:\n        /* \"#utility.yul\":2947:2950   */\n      0x00\n        /* \"#utility.yul\":2975:3014   */\n      tag_229\n        /* \"#utility.yul\":3008:3013   */\n      dup3\n        /* \"#utility.yul\":2975:3014   */\n      tag_144\n      jump\t// in\n    tag_229:\n        /* \"#utility.yul\":3030:3101   */\n      tag_230\n        /* \"#utility.yul\":3094:3100   */\n      dup2\n        /* \"#utility.yul\":3089:3092   */\n      dup6\n        /* \"#utility.yul\":3030:3101   */\n      tag_145\n      jump\t// in\n    tag_230:\n        /* \"#utility.yul\":3023:3101   */\n      swap4\n      pop\n        /* \"#utility.yul\":3110:3175   */\n      tag_231\n        /* \"#utility.yul\":3168:3174   */\n      dup2\n        /* \"#utility.yul\":3163:3166   */\n      dup6\n        /* \"#utility.yul\":3156:3160   */\n      0x20\n        /* \"#utility.yul\":3149:3154   */\n      dup7\n        /* \"#utility.yul\":3145:3161   */\n      add\n        /* \"#utility.yul\":3110:3175   */\n      tag_146\n      jump\t// in\n    tag_231:\n        /* \"#utility.yul\":3200:3229   */\n      tag_232\n        /* \"#utility.yul\":3222:3228   */\n      dup2\n        /* \"#utility.yul\":3200:3229   */\n      tag_147\n      jump\t// in\n    tag_232:\n        /* \"#utility.yul\":3195:3198   */\n      dup5\n        /* \"#utility.yul\":3191:3230   */\n      add\n        /* \"#utility.yul\":3184:3230   */\n      swap2\n      pop\n        /* \"#utility.yul\":2951:3236   */\n      pop\n        /* \"#utility.yul\":2859:3236   */\n      swap3\n      swap2\n      pop\n      pop\n      jump\t// out\n        /* \"#utility.yul\":3242:3332   */\n    tag_149:\n        /* \"#utility.yul\":3276:3283   */\n      0x00\n        /* \"#utility.yul\":3319:3324   */\n      dup2\n        /* \"#utility.yul\":3312:3325   */\n      iszero\n        /* \"#utility.yul\":3305:3326   */\n      iszero\n        /* \"#utility.yul\":3294:3326   */\n      swap1\n      pop\n        /* \"#utility.yul\":3242:3332   */\n      swap2\n      swap1\n      pop\n      jump\t// out\n        /* \"#utility.yul\":3338:3447   */\n    tag_150:\n        /* \"#utility.yul\":3419:3440   */\n      tag_235\n        /* \"#utility.yul\":3434:3439   */\n      dup2\n        /* \"#utility.yul\":3419:3440   */\n      tag_149\n      jump\t// in\n    tag_235:\n        /* \"#utility.yul\":3414:3417   */\n      dup3\n        /* \"#utility.yul\":3407:3441   */\n      mstore\n        /* \"#utility.yul\":3338:3447   */\n      pop\n      pop\n      jump\t// out\n        /* \"#utility.yul\":3453:4608   */\n    tag_27:\n        /* \"#utility.yul\":3770:3774   */\n      0x00\n        /* \"#utility.yul\":3808:3811   */\n      0x0100\n        /* \"#utility.yul\":3797:3806   */\n      dup3\n        /* \"#utility.yul\":3793:3812   */\n      add\n        /* \"#utility.yul\":3785:3812   */\n      swap1\n      pop\n        /* \"#utility.yul\":3858:3867   */\n      dup2\n        /* \"#utility.yul\":3852:3856   */\n      dup2\n        /* \"#utility.yul\":3848:3868   */\n      sub\n        /* \"#utility.yul\":3844:3845   */\n      0x00\n        /* \"#utility.yul\":3833:3842   */\n      dup4\n        /* \"#utility.yul\":3829:3846   */\n      add\n        /* \"#utility.yul\":3822:3869   */\n      mstore\n        /* \"#utility.yul\":3886:3964   */\n      tag_237\n        /* \"#utility.yul\":3959:3963   */\n      dup2\n        /* \"#utility.yul\":3950:3956   */\n      dup12\n        /* \"#utility.yul\":3886:3964   */\n      tag_148\n      jump\t// in\n    tag_237:\n        /* \"#utility.yul\":3878:3964   */\n      swap1\n      pop\n        /* \"#utility.yul\":4011:4020   */\n      dup2\n        /* \"#utility.yul\":4005:4009   */\n      dup2\n        /* \"#utility.yul\":4001:4021   */\n      sub\n        /* \"#utility.yul\":3996:3998   */\n      0x20\n        /* \"#utility.yul\":3985:3994   */\n      dup4\n        /* \"#utility.yul\":3981:3999   */\n      add\n        /* \"#utility.yul\":3974:4022   */\n      mstore\n        /* \"#utility.yul\":4039:4117   */\n      tag_238\n        /* \"#utility.yul\":4112:4116   */\n      dup2\n        /* \"#utility.yul\":4103:4109   */\n      dup11\n        /* \"#utility.yul\":4039:4117   */\n      tag_148\n      jump\t// in\n    tag_238:\n        /* \"#utility.yul\":4031:4117   */\n      swap1\n      pop\n        /* \"#utility.yul\":4127:4199   */\n      tag_239\n        /* \"#utility.yul\":4195:4197   */\n      0x40\n        /* \"#utility.yul\":4184:4193   */\n      dup4\n        /* \"#utility.yul\":4180:4198   */\n      add\n        /* \"#utility.yul\":4171:4177   */\n      dup10\n        /* \"#utility.yul\":4127:4199   */\n      tag_141\n      jump\t// in\n    tag_239:\n        /* \"#utility.yul\":4209:4281   */\n      tag_240\n        /* \"#utility.yul\":4277:4279   */\n      0x60\n        /* \"#utility.yul\":4266:4275   */\n      dup4\n        /* \"#utility.yul\":4262:4280   */\n      add\n        /* \"#utility.yul\":4253:4259   */\n      dup9\n        /* \"#utility.yul\":4209:4281   */\n      tag_141\n      jump\t// in\n    tag_240:\n        /* \"#utility.yul\":4291:4364   */\n      tag_241\n        /* \"#utility.yul\":4359:4362   */\n      0x80\n        /* \"#utility.yul\":4348:4357   */\n      dup4\n        /* \"#utility.yul\":4344:4363   */\n      add\n        /* \"#utility.yul\":4335:4341   */\n      dup8\n        /* \"#utility.yul\":4291:4364   */\n      tag_141\n      jump\t// in\n    tag_241:\n        /* \"#utility.yul\":4374:4447   */\n      tag_242\n        /* \"#utility.yul\":4442:4445   */\n      0xa0\n        /* \"#utility.yul\":4431:4440   */\n      dup4\n        /* \"#utility.yul\":4427:4446   */\n      add\n        /* \"#utility.yul\":4418:4424   */\n      dup7\n        /* \"#utility.yul\":4374:4447   */\n      tag_141\n      jump\t// in\n    tag_242:\n        /* \"#utility.yul\":4457:4524   */\n      tag_243\n        /* \"#utility.yul\":4519:4522   */\n      0xc0\n        /* \"#utility.yul\":4508:4517   */\n      dup4\n        /* \"#utility.yul\":4504:4523   */\n      add\n        /* \"#utility.yul\":4495:4501   */\n      dup6\n        /* \"#utility.yul\":4457:4524   */\n      tag_150\n      jump\t// in\n    tag_243:\n        /* \"#utility.yul\":4534:4601   */\n      tag_244\n        /* \"#utility.yul\":4596:4599   */\n      0xe0\n        /* \"#utility.yul\":4585:4594   */\n      dup4\n        /* \"#utility.yul\":4581:4600   */\n      add\n        /* \"#utility.yul\":4572:4578   */\n      dup5\n        /* \"#utility.yul\":4534:4601   */\n      tag_150\n      jump\t// in\n    tag_244:\n        /* \"#utility.yul\":3453:4608   */\n      swap10\n      swap9\n      pop\n      pop\n      pop\n      pop\n      pop\n      pop\n      pop\n      pop\n      pop\n      jump\t// out\n        /* \"#utility.yul\":4614:4731   */\n    tag_151:\n        /* \"#utility.yul\":4723:4724   */\n      0x00\n        /* \"#utility.yul\":4720:4721   */\n      dup1\n        /* \"#utility.yul\":4713:4725   */\n      revert\n        /* \"#utility.yul\":4737:4854   */\n    tag_152:\n        /* \"#utility.yul\":4846:4847   */\n      0x00\n        /* \"#utility.yul\":4843:4844   */\n      dup1\n        /* \"#utility.yul\":4836:4848   */\n      revert\n        /* \"#utility.yul\":4860:4977   */\n    tag_153:\n        /* \"#utility.yul\":4969:4970   */\n      0x00\n        /* \"#utility.yul\":4966:4967   */\n      dup1\n        /* \"#utility.yul\":4959:4971   */\n      revert\n        /* \"#utility.yul\":4997:5550   */\n    tag_154:\n        /* \"#utility.yul\":5055:5063   */\n      0x00\n        /* \"#utility.yul\":5065:5071   */\n      dup1\n        /* \"#utility.yul\":5115:5118   */\n      dup4\n        /* \"#utility.yul\":5108:5112   */\n      0x1f\n        /* \"#utility.yul\":5100:5106   */\n      dup5\n        /* \"#utility.yul\":5096:5113   */\n      add\n        /* \"#utility.yul\":5092:5119   */\n      slt\n        /* \"#utility.yul\":5082:5204   */\n      tag_249\n      jumpi\n        /* \"#utility.yul\":5123:5202   */\n      tag_250\n      tag_151\n      jump\t// in\n    tag_250:\n        /* \"#utility.yul\":5082:5204   */\n    tag_249:\n        /* \"#utility.yul\":5236:5242   */\n      dup3\n        /* \"#utility.yul\":5223:5243   */\n      calldataload\n        /* \"#utility.yul\":5213:5243   */\n      swap1\n      pop\n        /* \"#utility.yul\":5266:5284   */\n      0xffffffffffffffff\n        /* \"#utility.yul\":5258:5264   */\n      dup2\n        /* \"#utility.yul\":5255:5285   */\n      gt\n        /* \"#utility.yul\":5252:5369   */\n      iszero\n      tag_251\n      jumpi\n        /* \"#utility.yul\":5288:5367   */\n      tag_252\n      tag_152\n      jump\t// in\n    tag_252:\n        /* \"#utility.yul\":5252:5369   */\n    tag_251:\n        /* \"#utility.yul\":5402:5406   */\n      0x20\n        /* \"#utility.yul\":5394:5400   */\n      dup4\n        /* \"#utility.yul\":5390:5407   */\n      add\n        /* \"#utility.yul\":5378:5407   */\n      swap2\n      pop\n        /* \"#utility.yul\":5456:5459   */\n      dup4\n        /* \"#utility.yul\":5448:5452   */\n      0x01\n        /* \"#utility.yul\":5440:5446   */\n      dup3\n        /* \"#utility.yul\":5436:5453   */\n      mul\n        /* \"#utility.yul\":5426:5434   */\n      dup4\n        /* \"#utility.yul\":5422:5454   */\n      add\n        /* \"#utility.yul\":5419:5460   */\n      gt\n        /* \"#utility.yul\":5416:5544   */\n      iszero\n      tag_253\n      jumpi\n        /* \"#utility.yul\":5463:5542   */\n      tag_254\n      tag_153\n      jump\t// in\n    tag_254:\n        /* \"#utility.yul\":5416:5544   */\n    tag_253:\n        /* \"#utility.yul\":4997:5550   */\n      swap3\n      pop\n      swap3\n      swap1\n      pop\n      jump\t// out\n        /* \"#utility.yul\":5556:6575   */\n    tag_30:\n        /* \"#utility.yul\":5657:5663   */\n      0x00\n        /* \"#utility.yul\":5665:5671   */\n      dup1\n        /* \"#utility.yul\":5673:5679   */\n      0x00\n        /* \"#utility.yul\":5681:5687   */\n      dup1\n        /* \"#utility.yul\":5689:5695   */\n      0x00\n        /* \"#utility.yul\":5738:5740   */\n      0x60\n        /* \"#utility.yul\":5726:5735   */\n      dup7\n        /* \"#utility.yul\":5717:5724   */\n      dup9\n        /* \"#utility.yul\":5713:5736   */\n      sub\n        /* \"#utility.yul\":5709:5741   */\n      slt\n        /* \"#utility.yul\":5706:5825   */\n      iszero\n      tag_256\n      jumpi\n        /* \"#utility.yul\":5744:5823   */\n      tag_257\n      tag_134\n      jump\t// in\n    tag_257:\n        /* \"#utility.yul\":5706:5825   */\n    tag_256:\n        /* \"#utility.yul\":5892:5893   */\n      0x00\n        /* \"#utility.yul\":5881:5890   */\n      dup7\n        /* \"#utility.yul\":5877:5894   */\n      add\n        /* \"#utility.yul\":5864:5895   */\n      calldataload\n        /* \"#utility.yul\":5922:5940   */\n      0xffffffffffffffff\n        /* \"#utility.yul\":5914:5920   */\n      dup2\n        /* \"#utility.yul\":5911:5941   */\n      gt\n        /* \"#utility.yul\":5908:6025   */\n      iszero\n      tag_258\n      jumpi\n        /* \"#utility.yul\":5944:6023   */\n      tag_259\n      tag_135\n      jump\t// in\n    tag_259:\n        /* \"#utility.yul\":5908:6025   */\n    tag_258:\n        /* \"#utility.yul\":6057:6122   */\n      tag_260\n        /* \"#utility.yul\":6114:6121   */\n      dup9\n        /* \"#utility.yul\":6105:6111   */\n      dup3\n        /* \"#utility.yul\":6094:6103   */\n      dup10\n        /* \"#utility.yul\":6090:6112   */\n      add\n        /* \"#utility.yul\":6057:6122   */\n      tag_154\n      jump\t// in\n    tag_260:\n        /* \"#utility.yul\":6039:6122   */\n      swap6\n      pop\n      swap6\n      pop\n        /* \"#utility.yul\":5835:6132   */\n      pop\n        /* \"#utility.yul\":6199:6201   */\n      0x20\n        /* \"#utility.yul\":6188:6197   */\n      dup7\n        /* \"#utility.yul\":6184:6202   */\n      add\n        /* \"#utility.yul\":6171:6203   */\n      calldataload\n        /* \"#utility.yul\":6230:6248   */\n      0xffffffffffffffff\n        /* \"#utility.yul\":6222:6228   */\n      dup2\n        /* \"#utility.yul\":6219:6249   */\n      gt\n        /* \"#utility.yul\":6216:6333   */\n      iszero\n      tag_261\n      jumpi\n        /* \"#utility.yul\":6252:6331   */\n      tag_262\n      tag_135\n      jump\t// in\n    tag_262:\n        /* \"#utility.yul\":6216:6333   */\n    tag_261:\n        /* \"#utility.yul\":6365:6430   */\n      tag_263\n        /* \"#utility.yul\":6422:6429   */\n      dup9\n        /* \"#utility.yul\":6413:6419   */\n      dup3\n        /* \"#utility.yul\":6402:6411   */\n      dup10\n        /* \"#utility.yul\":6398:6420   */\n      add\n        /* \"#utility.yul\":6365:6430   */\n      tag_154\n      jump\t// in\n    tag_263:\n        /* \"#utility.yul\":6347:6430   */\n      swap4\n      pop\n      swap4\n      pop\n        /* \"#utility.yul\":6142:6440   */\n      pop\n        /* \"#utility.yul\":6479:6481   */\n      0x40\n        /* \"#utility.yul\":6505:6558   */\n      tag_264\n        /* \"#utility.yul\":6550:6557   */\n      dup9\n        /* \"#utility.yul\":6541:6547   */\n      dup3\n        /* \"#utility.yul\":6530:6539   */\n      dup10\n        /* \"#utility.yul\":6526:6548   */\n      add\n        /* \"#utility.yul\":6505:6558   */\n      tag_143\n      jump\t// in\n    tag_264:\n        /* \"#utility.yul\":6495:6558   */\n      swap2\n      pop\n        /* \"#utility.yul\":6450:6568   */\n      pop\n        /* \"#utility.yul\":5556:6575   */\n      swap3\n      swap6\n      pop\n      swap3\n      swap6\n      swap1\n      swap4\n      pop\n      jump\t// out\n        /* \"#utility.yul\":6581:6740   */\n    tag_155:\n        /* \"#utility.yul\":6655:6666   */\n      0x00\n        /* \"#utility.yul\":6689:6695   */\n      dup3\n        /* \"#utility.yul\":6684:6687   */\n      dup3\n        /* \"#utility.yul\":6677:6696   */\n      mstore\n        /* \"#utility.yul\":6729:6733   */\n      0x20\n        /* \"#utility.yul\":6724:6727   */\n      dup3\n        /* \"#utility.yul\":6720:6734   */\n      add\n        /* \"#utility.yul\":6705:6734   */\n      swap1\n      pop\n        /* \"#utility.yul\":6581:6740   */\n      swap3\n      swap2\n      pop\n      pop\n      jump\t// out\n        /* \"#utility.yul\":6746:7103   */\n    tag_156:\n        /* \"#utility.yul\":6824:6827   */\n      0x00\n        /* \"#utility.yul\":6852:6891   */\n      tag_267\n        /* \"#utility.yul\":6885:6890   */\n      dup3\n        /* \"#utility.yul\":6852:6891   */\n      tag_144\n      jump\t// in\n    tag_267:\n        /* \"#utility.yul\":6907:6968   */\n      tag_268\n        /* \"#utility.yul\":6961:6967   */\n      dup2\n        /* \"#utility.yul\":6956:6959   */\n      dup6\n        /* \"#utility.yul\":6907:6968   */\n      tag_155\n      jump\t// in\n    tag_268:\n        /* \"#utility.yul\":6900:6968   */\n      swap4\n      pop\n        /* \"#utility.yul\":6977:7042   */\n      tag_269\n        /* \"#utility.yul\":7035:7041   */\n      dup2\n        /* \"#utility.yul\":7030:7033   */\n      dup6\n        /* \"#utility.yul\":7023:7027   */\n      0x20\n        /* \"#utility.yul\":7016:7021   */\n      dup7\n        /* \"#utility.yul\":7012:7028   */\n      add\n        /* \"#utility.yul\":6977:7042   */\n      tag_146\n      jump\t// in\n    tag_269:\n        /* \"#utility.yul\":7067:7096   */\n      tag_270\n        /* \"#utility.yul\":7089:7095   */\n      dup2\n        /* \"#utility.yul\":7067:7096   */\n      tag_147\n      jump\t// in\n    tag_270:\n        /* \"#utility.yul\":7062:7065   */\n      dup5\n        /* \"#utility.yul\":7058:7097   */\n      add\n        /* \"#utility.yul\":7051:7097   */\n      swap2\n      pop\n        /* \"#utility.yul\":6828:7103   */\n      pop\n        /* \"#utility.yul\":6746:7103   */\n      swap3\n      swap2\n      pop\n      pop\n      jump\t// out\n        /* \"#utility.yul\":7109:7217   */\n    tag_157:\n        /* \"#utility.yul\":7186:7210   */\n      tag_272\n        /* \"#utility.yul\":7204:7209   */\n      dup2\n        /* \"#utility.yul\":7186:7210   */\n      tag_140\n      jump\t// in\n    tag_272:\n        /* \"#utility.yul\":7181:7184   */\n      dup3\n        /* \"#utility.yul\":7174:7211   */\n      mstore\n        /* \"#utility.yul\":7109:7217   */\n      pop\n      pop\n      jump\t// out\n        /* \"#utility.yul\":7223:7322   */\n    tag_158:\n        /* \"#utility.yul\":7294:7315   */\n      tag_274\n        /* \"#utility.yul\":7309:7314   */\n      dup2\n        /* \"#utility.yul\":7294:7315   */\n      tag_149\n      jump\t// in\n    tag_274:\n        /* \"#utility.yul\":7289:7292   */\n      dup3\n        /* \"#utility.yul\":7282:7316   */\n      mstore\n        /* \"#utility.yul\":7223:7322   */\n      pop\n      pop\n      jump\t// out\n        /* \"#utility.yul\":7404:9153   */\n    tag_159:\n        /* \"#utility.yul\":7521:7524   */\n      0x00\n        /* \"#utility.yul\":7557:7563   */\n      0x0100\n        /* \"#utility.yul\":7552:7555   */\n      dup4\n        /* \"#utility.yul\":7548:7564   */\n      add\n        /* \"#utility.yul\":7647:7651   */\n      0x00\n        /* \"#utility.yul\":7640:7645   */\n      dup4\n        /* \"#utility.yul\":7636:7652   */\n      add\n        /* \"#utility.yul\":7630:7653   */\n      mload\n        /* \"#utility.yul\":7700:7703   */\n      dup5\n        /* \"#utility.yul\":7694:7698   */\n      dup3\n        /* \"#utility.yul\":7690:7704   */\n      sub\n        /* \"#utility.yul\":7683:7687   */\n      0x00\n        /* \"#utility.yul\":7678:7681   */\n      dup7\n        /* \"#utility.yul\":7674:7688   */\n      add\n        /* \"#utility.yul\":7667:7705   */\n      mstore\n        /* \"#utility.yul\":7726:7799   */\n      tag_276\n        /* \"#utility.yul\":7794:7798   */\n      dup3\n        /* \"#utility.yul\":7780:7792   */\n      dup3\n        /* \"#utility.yul\":7726:7799   */\n      tag_156\n      jump\t// in\n    tag_276:\n        /* \"#utility.yul\":7718:7799   */\n      swap2\n      pop\n        /* \"#utility.yul\":7574:7810   */\n      pop\n        /* \"#utility.yul\":7899:7903   */\n      0x20\n        /* \"#utility.yul\":7892:7897   */\n      dup4\n        /* \"#utility.yul\":7888:7904   */\n      add\n        /* \"#utility.yul\":7882:7905   */\n      mload\n        /* \"#utility.yul\":7952:7955   */\n      dup5\n        /* \"#utility.yul\":7946:7950   */\n      dup3\n        /* \"#utility.yul\":7942:7956   */\n      sub\n        /* \"#utility.yul\":7935:7939   */\n      0x20\n        /* \"#utility.yul\":7930:7933   */\n      dup7\n        /* \"#utility.yul\":7926:7940   */\n      add\n        /* \"#utility.yul\":7919:7957   */\n      mstore\n        /* \"#utility.yul\":7978:8051   */\n      tag_277\n        /* \"#utility.yul\":8046:8050   */\n      dup3\n        /* \"#utility.yul\":8032:8044   */\n      dup3\n        /* \"#utility.yul\":7978:8051   */\n      tag_156\n      jump\t// in\n    tag_277:\n        /* \"#utility.yul\":7970:8051   */\n      swap2\n      pop\n        /* \"#utility.yul\":7820:8062   */\n      pop\n        /* \"#utility.yul\":8147:8151   */\n      0x40\n        /* \"#utility.yul\":8140:8145   */\n      dup4\n        /* \"#utility.yul\":8136:8152   */\n      add\n        /* \"#utility.yul\":8130:8153   */\n      mload\n        /* \"#utility.yul\":8166:8229   */\n      tag_278\n        /* \"#utility.yul\":8223:8227   */\n      0x40\n        /* \"#utility.yul\":8218:8221   */\n      dup7\n        /* \"#utility.yul\":8214:8228   */\n      add\n        /* \"#utility.yul\":8200:8212   */\n      dup3\n        /* \"#utility.yul\":8166:8229   */\n      tag_157\n      jump\t// in\n    tag_278:\n        /* \"#utility.yul\":8072:8239   */\n      pop\n        /* \"#utility.yul\":8323:8327   */\n      0x60\n        /* \"#utility.yul\":8316:8321   */\n      dup4\n        /* \"#utility.yul\":8312:8328   */\n      add\n        /* \"#utility.yul\":8306:8329   */\n      mload\n        /* \"#utility.yul\":8342:8405   */\n      tag_279\n        /* \"#utility.yul\":8399:8403   */\n      0x60\n        /* \"#utility.yul\":8394:8397   */\n      dup7\n        /* \"#utility.yul\":8390:8404   */\n      add\n        /* \"#utility.yul\":8376:8388   */\n      dup3\n        /* \"#utility.yul\":8342:8405   */\n      tag_157\n      jump\t// in\n    tag_279:\n        /* \"#utility.yul\":8249:8415   */\n      pop\n        /* \"#utility.yul\":8497:8501   */\n      0x80\n        /* \"#utility.yul\":8490:8495   */\n      dup4\n        /* \"#utility.yul\":8486:8502   */\n      add\n        /* \"#utility.yul\":8480:8503   */\n      mload\n        /* \"#utility.yul\":8516:8579   */\n      tag_280\n        /* \"#utility.yul\":8573:8577   */\n      0x80\n        /* \"#utility.yul\":8568:8571   */\n      dup7\n        /* \"#utility.yul\":8564:8578   */\n      add\n        /* \"#utility.yul\":8550:8562   */\n      dup3\n        /* \"#utility.yul\":8516:8579   */\n      tag_157\n      jump\t// in\n    tag_280:\n        /* \"#utility.yul\":8425:8589   */\n      pop\n        /* \"#utility.yul\":8684:8688   */\n      0xa0\n        /* \"#utility.yul\":8677:8682   */\n      dup4\n        /* \"#utility.yul\":8673:8689   */\n      add\n        /* \"#utility.yul\":8667:8690   */\n      mload\n        /* \"#utility.yul\":8703:8766   */\n      tag_281\n        /* \"#utility.yul\":8760:8764   */\n      0xa0\n        /* \"#utility.yul\":8755:8758   */\n      dup7\n        /* \"#utility.yul\":8751:8765   */\n      add\n        /* \"#utility.yul\":8737:8749   */\n      dup3\n        /* \"#utility.yul\":8703:8766   */\n      tag_157\n      jump\t// in\n    tag_281:\n        /* \"#utility.yul\":8599:8776   */\n      pop\n        /* \"#utility.yul\":8867:8871   */\n      0xc0\n        /* \"#utility.yul\":8860:8865   */\n      dup4\n        /* \"#utility.yul\":8856:8872   */\n      add\n        /* \"#utility.yul\":8850:8873   */\n      mload\n        /* \"#utility.yul\":8886:8943   */\n      tag_282\n        /* \"#utility.yul\":8937:8941   */\n      0xc0\n        /* \"#utility.yul\":8932:8935   */\n      dup7\n        /* \"#utility.yul\":8928:8942   */\n      add\n        /* \"#utility.yul\":8914:8926   */\n      dup3\n        /* \"#utility.yul\":8886:8943   */\n      tag_158\n      jump\t// in\n    tag_282:\n        /* \"#utility.yul\":8786:8953   */\n      pop\n        /* \"#utility.yul\":9040:9044   */\n      0xe0\n        /* \"#utility.yul\":9033:9038   */\n      dup4\n        /* \"#utility.yul\":9029:9045   */\n      add\n        /* \"#utility.yul\":9023:9046   */\n      mload\n        /* \"#utility.yul\":9059:9116   */\n      tag_283\n        /* \"#utility.yul\":9110:9114   */\n      0xe0\n        /* \"#utility.yul\":9105:9108   */\n      dup7\n        /* \"#utility.yul\":9101:9115   */\n      add\n        /* \"#utility.yul\":9087:9099   */\n      dup3\n        /* \"#utility.yul\":9059:9116   */\n      tag_158\n      jump\t// in\n    tag_283:\n        /* \"#utility.yul\":8963:9126   */\n      pop\n        /* \"#utility.yul\":9143:9147   */\n      dup1\n        /* \"#utility.yul\":9136:9147   */\n      swap2\n      pop\n        /* \"#utility.yul\":7526:9153   */\n      pop\n        /* \"#utility.yul\":7404:9153   */\n      swap3\n      swap2\n      pop\n      pop\n      jump\t// out\n        /* \"#utility.yul\":9159:9528   */\n    tag_35:\n        /* \"#utility.yul\":9300:9304   */\n      0x00\n        /* \"#utility.yul\":9338:9340   */\n      0x20\n        /* \"#utility.yul\":9327:9336   */\n      dup3\n        /* \"#utility.yul\":9323:9341   */\n      add\n        /* \"#utility.yul\":9315:9341   */\n      swap1\n      pop\n        /* \"#utility.yul\":9387:9396   */\n      dup2\n        /* \"#utility.yul\":9381:9385   */\n      dup2\n        /* \"#utility.yul\":9377:9397   */\n      sub\n        /* \"#utility.yul\":9373:9374   */\n      0x00\n        /* \"#utility.yul\":9362:9371   */\n      dup4\n        /* \"#utility.yul\":9358:9375   */\n      add\n        /* \"#utility.yul\":9351:9398   */\n      mstore\n        /* \"#utility.yul\":9415:9521   */\n      tag_285\n        /* \"#utility.yul\":9516:9520   */\n      dup2\n        /* \"#utility.yul\":9507:9513   */\n      dup5\n        /* \"#utility.yul\":9415:9521   */\n      tag_159\n      jump\t// in\n    tag_285:\n        /* \"#utility.yul\":9407:9521   */\n      swap1\n      pop\n        /* \"#utility.yul\":9159:9528   */\n      swap3\n      swap2\n      pop\n      pop\n      jump\t// out\n        /* \"#utility.yul\":9534:10008   */\n    tag_38:\n        /* \"#utility.yul\":9602:9608   */\n      0x00\n        /* \"#utility.yul\":9610:9616   */\n      dup1\n        /* \"#utility.yul\":9659:9661   */\n      0x40\n        /* \"#utility.yul\":9647:9656   */\n      dup4\n        /* \"#utility.yul\":9638:9645   */\n      dup6\n        /* \"#utility.yul\":9634:9657   */\n      sub\n        /* \"#utility.yul\":9630:9662   */\n      slt\n        /* \"#utility.yul\":9627:9746   */\n      iszero\n      tag_287\n      jumpi\n        /* \"#utility.yul\":9665:9744   */\n      tag_288\n      tag_134\n      jump\t// in\n    tag_288:\n        /* \"#utility.yul\":9627:9746   */\n    tag_287:\n        /* \"#utility.yul\":9785:9786   */\n      0x00\n        /* \"#utility.yul\":9810:9863   */\n      tag_289\n        /* \"#utility.yul\":9855:9862   */\n      dup6\n        /* \"#utility.yul\":9846:9852   */\n      dup3\n        /* \"#utility.yul\":9835:9844   */\n      dup7\n        /* \"#utility.yul\":9831:9853   */\n      add\n        /* \"#utility.yul\":9810:9863   */\n      tag_143\n      jump\t// in\n    tag_289:\n        /* \"#utility.yul\":9800:9863   */\n      swap3\n      pop\n        /* \"#utility.yul\":9756:9873   */\n      pop\n        /* \"#utility.yul\":9912:9914   */\n      0x20\n        /* \"#utility.yul\":9938:9991   */\n      tag_290\n        /* \"#utility.yul\":9983:9990   */\n      dup6\n        /* \"#utility.yul\":9974:9980   */\n      dup3\n        /* \"#utility.yul\":9963:9972   */\n      dup7\n        /* \"#utility.yul\":9959:9981   */\n      add\n        /* \"#utility.yul\":9938:9991   */\n      tag_139\n      jump\t// in\n    tag_290:\n        /* \"#utility.yul\":9928:9991   */\n      swap2\n      pop\n        /* \"#utility.yul\":9883:10001   */\n      pop\n        /* \"#utility.yul\":9534:10008   */\n      swap3\n      pop\n      swap3\n      swap1\n      pop\n      jump\t// out\n        /* \"#utility.yul\":10014:10224   */\n    tag_41:\n        /* \"#utility.yul\":10101:10105   */\n      0x00\n        /* \"#utility.yul\":10139:10141   */\n      0x20\n        /* \"#utility.yul\":10128:10137   */\n      dup3\n        /* \"#utility.yul\":10124:10142   */\n      add\n        /* \"#utility.yul\":10116:10142   */\n      swap1\n      pop\n        /* \"#utility.yul\":10152:10217   */\n      tag_292\n        /* \"#utility.yul\":10214:10215   */\n      0x00\n        /* \"#utility.yul\":10203:10212   */\n      dup4\n        /* \"#utility.yul\":10199:10216   */\n      add\n        /* \"#utility.yul\":10190:10196   */\n      dup5\n        /* \"#utility.yul\":10152:10217   */\n      tag_150\n      jump\t// in\n    tag_292:\n        /* \"#utility.yul\":10014:10224   */\n      swap3\n      swap2\n      pop\n      pop\n      jump\t// out\n        /* \"#utility.yul\":10230:10348   */\n    tag_160:\n        /* \"#utility.yul\":10317:10341   */\n      tag_294\n        /* \"#utility.yul\":10335:10340   */\n      dup2\n        /* \"#utility.yul\":10317:10341   */\n      tag_137\n      jump\t// in\n    tag_294:\n        /* \"#utility.yul\":10312:10315   */\n      dup3\n        /* \"#utility.yul\":10305:10342   */\n      mstore\n        /* \"#utility.yul\":10230:10348   */\n      pop\n      pop\n      jump\t// out\n        /* \"#utility.yul\":10354:10576   */\n    tag_45:\n        /* \"#utility.yul\":10447:10451   */\n      0x00\n        /* \"#utility.yul\":10485:10487   */\n      0x20\n        /* \"#utility.yul\":10474:10483   */\n      dup3\n        /* \"#utility.yul\":10470:10488   */\n      add\n        /* \"#utility.yul\":10462:10488   */\n      swap1\n      pop\n        /* \"#utility.yul\":10498:10569   */\n      tag_296\n        /* \"#utility.yul\":10566:10567   */\n      0x00\n        /* \"#utility.yul\":10555:10564   */\n      dup4\n        /* \"#utility.yul\":10551:10568   */\n      add\n        /* \"#utility.yul\":10542:10548   */\n      dup5\n        /* \"#utility.yul\":10498:10569   */\n      tag_160\n      jump\t// in\n    tag_296:\n        /* \"#utility.yul\":10354:10576   */\n      swap3\n      swap2\n      pop\n      pop\n      jump\t// out\n        /* \"#utility.yul\":10582:10668   */\n    tag_161:\n        /* \"#utility.yul\":10617:10624   */\n      0x00\n        /* \"#utility.yul\":10657:10661   */\n      0xff\n        /* \"#utility.yul\":10650:10655   */\n      dup3\n        /* \"#utility.yul\":10646:10662   */\n      and\n        /* \"#utility.yul\":10635:10662   */\n      swap1\n      pop\n        /* \"#utility.yul\":10582:10668   */\n      swap2\n      swap1\n      pop\n      jump\t// out\n        /* \"#utility.yul\":10674:10792   */\n    tag_162:\n        /* \"#utility.yul\":10745:10767   */\n      tag_299\n        /* \"#utility.yul\":10761:10766   */\n      dup2\n        /* \"#utility.yul\":10745:10767   */\n      tag_161\n      jump\t// in\n    tag_299:\n        /* \"#utility.yul\":10738:10743   */\n      dup2\n        /* \"#utility.yul\":10735:10768   */\n      eq\n        /* \"#utility.yul\":10725:10786   */\n      tag_300\n      jumpi\n        /* \"#utility.yul\":10782:10783   */\n      0x00\n        /* \"#utility.yul\":10779:10780   */\n      dup1\n        /* \"#utility.yul\":10772:10784   */\n      revert\n        /* \"#utility.yul\":10725:10786   */\n    tag_300:\n        /* \"#utility.yul\":10674:10792   */\n      pop\n      jump\t// out\n        /* \"#utility.yul\":10798:10933   */\n    tag_163:\n        /* \"#utility.yul\":10842:10847   */\n      0x00\n        /* \"#utility.yul\":10880:10886   */\n      dup2\n        /* \"#utility.yul\":10867:10887   */\n      calldataload\n        /* \"#utility.yul\":10858:10887   */\n      swap1\n      pop\n        /* \"#utility.yul\":10896:10927   */\n      tag_302\n        /* \"#utility.yul\":10921:10926   */\n      dup2\n        /* \"#utility.yul\":10896:10927   */\n      tag_162\n      jump\t// in\n    tag_302:\n        /* \"#utility.yul\":10798:10933   */\n      swap3\n      swap2\n      pop\n      pop\n      jump\t// out\n        /* \"#utility.yul\":10939:11409   */\n    tag_48:\n        /* \"#utility.yul\":11005:11011   */\n      0x00\n        /* \"#utility.yul\":11013:11019   */\n      dup1\n        /* \"#utility.yul\":11062:11064   */\n      0x40\n        /* \"#utility.yul\":11050:11059   */\n      dup4\n        /* \"#utility.yul\":11041:11048   */\n      dup6\n        /* \"#utility.yul\":11037:11060   */\n      sub\n        /* \"#utility.yul\":11033:11065   */\n      slt\n        /* \"#utility.yul\":11030:11149   */\n      iszero\n      tag_304\n      jumpi\n        /* \"#utility.yul\":11068:11147   */\n      tag_305\n      tag_134\n      jump\t// in\n    tag_305:\n        /* \"#utility.yul\":11030:11149   */\n    tag_304:\n        /* \"#utility.yul\":11188:11189   */\n      0x00\n        /* \"#utility.yul\":11213:11266   */\n      tag_306\n        /* \"#utility.yul\":11258:11265   */\n      dup6\n        /* \"#utility.yul\":11249:11255   */\n      dup3\n        /* \"#utility.yul\":11238:11247   */\n      dup7\n        /* \"#utility.yul\":11234:11256   */\n      add\n        /* \"#utility.yul\":11213:11266   */\n      tag_143\n      jump\t// in\n    tag_306:\n        /* \"#utility.yul\":11203:11266   */\n      swap3\n      pop\n        /* \"#utility.yul\":11159:11276   */\n      pop\n        /* \"#utility.yul\":11315:11317   */\n      0x20\n        /* \"#utility.yul\":11341:11392   */\n      tag_307\n        /* \"#utility.yul\":11384:11391   */\n      dup6\n        /* \"#utility.yul\":11375:11381   */\n      dup3\n        /* \"#utility.yul\":11364:11373   */\n      dup7\n        /* \"#utility.yul\":11360:11382   */\n      add\n        /* \"#utility.yul\":11341:11392   */\n      tag_163\n      jump\t// in\n    tag_307:\n        /* \"#utility.yul\":11331:11392   */\n      swap2\n      pop\n        /* \"#utility.yul\":11286:11402   */\n      pop\n        /* \"#utility.yul\":10939:11409   */\n      swap3\n      pop\n      swap3\n      swap1\n      pop\n      jump\t// out\n        /* \"#utility.yul\":11415:11597   */\n    tag_164:\n        /* \"#utility.yul\":11555:11589   */\n      0x4f6e6c7920746865206f776e65722063616e206578656375746520746869732e\n        /* \"#utility.yul\":11551:11552   */\n      0x00\n        /* \"#utility.yul\":11543:11549   */\n      dup3\n        /* \"#utility.yul\":11539:11553   */\n      add\n        /* \"#utility.yul\":11532:11590   */\n      mstore\n        /* \"#utility.yul\":11415:11597   */\n      pop\n      jump\t// out\n        /* \"#utility.yul\":11603:11969   */\n    tag_165:\n        /* \"#utility.yul\":11745:11748   */\n      0x00\n        /* \"#utility.yul\":11766:11833   */\n      tag_310\n        /* \"#utility.yul\":11830:11832   */\n      0x20\n        /* \"#utility.yul\":11825:11828   */\n      dup4\n        /* \"#utility.yul\":11766:11833   */\n      tag_145\n      jump\t// in\n    tag_310:\n        /* \"#utility.yul\":11759:11833   */\n      swap2\n      pop\n        /* \"#utility.yul\":11842:11935   */\n      tag_311\n        /* \"#utility.yul\":11931:11934   */\n      dup3\n        /* \"#utility.yul\":11842:11935   */\n      tag_164\n      jump\t// in\n    tag_311:\n        /* \"#utility.yul\":11960:11962   */\n      0x20\n        /* \"#utility.yul\":11955:11958   */\n      dup3\n        /* \"#utility.yul\":11951:11963   */\n      add\n        /* \"#utility.yul\":11944:11963   */\n      swap1\n      pop\n        /* \"#utility.yul\":11603:11969   */\n      swap2\n      swap1\n      pop\n      jump\t// out\n        /* \"#utility.yul\":11975:12394   */\n    tag_57:\n        /* \"#utility.yul\":12141:12145   */\n      0x00\n        /* \"#utility.yul\":12179:12181   */\n      0x20\n        /* \"#utility.yul\":12168:12177   */\n      dup3\n        /* \"#utility.yul\":12164:12182   */\n      add\n        /* \"#utility.yul\":12156:12182   */\n      swap1\n      pop\n        /* \"#utility.yul\":12228:12237   */\n      dup2\n        /* \"#utility.yul\":12222:12226   */\n      dup2\n        /* \"#utility.yul\":12218:12238   */\n      sub\n        /* \"#utility.yul\":12214:12215   */\n      0x00\n        /* \"#utility.yul\":12203:12212   */\n      dup4\n        /* \"#utility.yul\":12199:12216   */\n      add\n        /* \"#utility.yul\":12192:12239   */\n      mstore\n        /* \"#utility.yul\":12256:12387   */\n      tag_313\n        /* \"#utility.yul\":12382:12386   */\n      dup2\n        /* \"#utility.yul\":12256:12387   */\n      tag_165\n      jump\t// in\n    tag_313:\n        /* \"#utility.yul\":12248:12387   */\n      swap1\n      pop\n        /* \"#utility.yul\":11975:12394   */\n      swap2\n      swap1\n      pop\n      jump\t// out\n        /* \"#utility.yul\":12400:12580   */\n    tag_166:\n        /* \"#utility.yul\":12448:12525   */\n      0x4e487b7100000000000000000000000000000000000000000000000000000000\n        /* \"#utility.yul\":12445:12446   */\n      0x00\n        /* \"#utility.yul\":12438:12526   */\n      mstore\n        /* \"#utility.yul\":12545:12549   */\n      0x22\n        /* \"#utility.yul\":12542:12543   */\n      0x04\n        /* \"#utility.yul\":12535:12550   */\n      mstore\n        /* \"#utility.yul\":12569:12573   */\n      0x24\n        /* \"#utility.yul\":12566:12567   */\n      0x00\n        /* \"#utility.yul\":12559:12574   */\n      revert\n        /* \"#utility.yul\":12586:12906   */\n    tag_60:\n        /* \"#utility.yul\":12630:12636   */\n      0x00\n        /* \"#utility.yul\":12667:12668   */\n      0x02\n        /* \"#utility.yul\":12661:12665   */\n      dup3\n        /* \"#utility.yul\":12657:12669   */\n      div\n        /* \"#utility.yul\":12647:12669   */\n      swap1\n      pop\n        /* \"#utility.yul\":12714:12715   */\n      0x01\n        /* \"#utility.yul\":12708:12712   */\n      dup3\n        /* \"#utility.yul\":12704:12716   */\n      and\n        /* \"#utility.yul\":12735:12753   */\n      dup1\n        /* \"#utility.yul\":12725:12806   */\n      tag_316\n      jumpi\n        /* \"#utility.yul\":12791:12795   */\n      0x7f\n        /* \"#utility.yul\":12783:12789   */\n      dup3\n        /* \"#utility.yul\":12779:12796   */\n      and\n        /* \"#utility.yul\":12769:12796   */\n      swap2\n      pop\n        /* \"#utility.yul\":12725:12806   */\n    tag_316:\n        /* \"#utility.yul\":12853:12855   */\n      0x20\n        /* \"#utility.yul\":12845:12851   */\n      dup3\n        /* \"#utility.yul\":12842:12856   */\n      lt\n        /* \"#utility.yul\":12822:12840   */\n      dup2\n        /* \"#utility.yul\":12819:12857   */\n      sub\n        /* \"#utility.yul\":12816:12900   */\n      tag_317\n      jumpi\n        /* \"#utility.yul\":12872:12890   */\n      tag_318\n      tag_166\n      jump\t// in\n    tag_318:\n        /* \"#utility.yul\":12816:12900   */\n    tag_317:\n        /* \"#utility.yul\":12637:12906   */\n      pop\n        /* \"#utility.yul\":12586:12906   */\n      swap2\n      swap1\n      pop\n      jump\t// out\n        /* \"#utility.yul\":12912:13092   */\n    tag_167:\n        /* \"#utility.yul\":12960:13037   */\n      0x4e487b7100000000000000000000000000000000000000000000000000000000\n        /* \"#utility.yul\":12957:12958   */\n      0x00\n        /* \"#utility.yul\":12950:13038   */\n      mstore\n        /* \"#utility.yul\":13057:13061   */\n      0x11\n        /* \"#utility.yul\":13054:13055   */\n      0x04\n        /* \"#utility.yul\":13047:13062   */\n      mstore\n        /* \"#utility.yul\":13081:13085   */\n      0x24\n        /* \"#utility.yul\":13078:13079   */\n      0x00\n        /* \"#utility.yul\":13071:13086   */\n      revert\n        /* \"#utility.yul\":13098:13289   */\n    tag_75:\n        /* \"#utility.yul\":13138:13141   */\n      0x00\n        /* \"#utility.yul\":13157:13177   */\n      tag_321\n        /* \"#utility.yul\":13175:13176   */\n      dup3\n        /* \"#utility.yul\":13157:13177   */\n      tag_140\n      jump\t// in\n    tag_321:\n        /* \"#utility.yul\":13152:13177   */\n      swap2\n      pop\n        /* \"#utility.yul\":13191:13211   */\n      tag_322\n        /* \"#utility.yul\":13209:13210   */\n      dup4\n        /* \"#utility.yul\":13191:13211   */\n      tag_140\n      jump\t// in\n    tag_322:\n        /* \"#utility.yul\":13186:13211   */\n      swap3\n      pop\n        /* \"#utility.yul\":13234:13235   */\n      dup3\n        /* \"#utility.yul\":13231:13232   */\n      dup3\n        /* \"#utility.yul\":13227:13236   */\n      add\n        /* \"#utility.yul\":13220:13236   */\n      swap1\n      pop\n        /* \"#utility.yul\":13255:13258   */\n      dup1\n        /* \"#utility.yul\":13252:13253   */\n      dup3\n        /* \"#utility.yul\":13249:13259   */\n      gt\n        /* \"#utility.yul\":13246:13282   */\n      iszero\n      tag_323\n      jumpi\n        /* \"#utility.yul\":13262:13280   */\n      tag_324\n      tag_167\n      jump\t// in\n    tag_324:\n        /* \"#utility.yul\":13246:13282   */\n    tag_323:\n        /* \"#utility.yul\":13098:13289   */\n      swap3\n      swap2\n      pop\n      pop\n      jump\t// out\n        /* \"#utility.yul\":13295:13475   */\n    tag_168:\n        /* \"#utility.yul\":13343:13420   */\n      0x4e487b7100000000000000000000000000000000000000000000000000000000\n        /* \"#utility.yul\":13340:13341   */\n      0x00\n        /* \"#utility.yul\":13333:13421   */\n      mstore\n        /* \"#utility.yul\":13440:13444   */\n      0x41\n        /* \"#utility.yul\":13437:13438   */\n      0x04\n        /* \"#utility.yul\":13430:13445   */\n      mstore\n        /* \"#utility.yul\":13464:13468   */\n      0x24\n        /* \"#utility.yul\":13461:13462   */\n      0x00\n        /* \"#utility.yul\":13454:13469   */\n      revert\n        /* \"#utility.yul\":13481:13622   */\n    tag_169:\n        /* \"#utility.yul\":13530:13534   */\n      0x00\n        /* \"#utility.yul\":13553:13556   */\n      dup2\n        /* \"#utility.yul\":13545:13556   */\n      swap1\n      pop\n        /* \"#utility.yul\":13576:13579   */\n      dup2\n        /* \"#utility.yul\":13573:13574   */\n      0x00\n        /* \"#utility.yul\":13566:13580   */\n      mstore\n        /* \"#utility.yul\":13610:13614   */\n      0x20\n        /* \"#utility.yul\":13607:13608   */\n      0x00\n        /* \"#utility.yul\":13597:13615   */\n      keccak256\n        /* \"#utility.yul\":13589:13615   */\n      swap1\n      pop\n        /* \"#utility.yul\":13481:13622   */\n      swap2\n      swap1\n      pop\n      jump\t// out\n        /* \"#utility.yul\":13628:13721   */\n    tag_170:\n        /* \"#utility.yul\":13665:13671   */\n      0x00\n        /* \"#utility.yul\":13712:13714   */\n      0x20\n        /* \"#utility.yul\":13707:13709   */\n      0x1f\n        /* \"#utility.yul\":13700:13705   */\n      dup4\n        /* \"#utility.yul\":13696:13710   */\n      add\n        /* \"#utility.yul\":13692:13715   */\n      div\n        /* \"#utility.yul\":13682:13715   */\n      swap1\n      pop\n        /* \"#utility.yul\":13628:13721   */\n      swap2\n      swap1\n      pop\n      jump\t// out\n        /* \"#utility.yul\":13727:13834   */\n    tag_171:\n        /* \"#utility.yul\":13771:13779   */\n      0x00\n        /* \"#utility.yul\":13821:13826   */\n      dup3\n        /* \"#utility.yul\":13815:13819   */\n      dup3\n        /* \"#utility.yul\":13811:13827   */\n      shl\n        /* \"#utility.yul\":13790:13827   */\n      swap1\n      pop\n        /* \"#utility.yul\":13727:13834   */\n      swap3\n      swap2\n      pop\n      pop\n      jump\t// out\n        /* \"#utility.yul\":13840:14233   */\n    tag_172:\n        /* \"#utility.yul\":13909:13915   */\n      0x00\n        /* \"#utility.yul\":13959:13960   */\n      0x08\n        /* \"#utility.yul\":13947:13957   */\n      dup4\n        /* \"#utility.yul\":13943:13961   */\n      mul\n        /* \"#utility.yul\":13982:14079   */\n      tag_330\n        /* \"#utility.yul\":14012:14078   */\n      0xffffffffffffffffffffffffffffffffffffffffffffffffffffffffffffffff\n        /* \"#utility.yul\":14001:14010   */\n      dup3\n        /* \"#utility.yul\":13982:14079   */\n      tag_171\n      jump\t// in\n    tag_330:\n        /* \"#utility.yul\":14100:14139   */\n      tag_331\n        /* \"#utility.yul\":14130:14138   */\n      dup7\n        /* \"#utility.yul\":14119:14128   */\n      dup4\n        /* \"#utility.yul\":14100:14139   */\n      tag_171\n      jump\t// in\n    tag_331:\n        /* \"#utility.yul\":14088:14139   */\n      swap6\n      pop\n        /* \"#utility.yul\":14172:14176   */\n      dup1\n        /* \"#utility.yul\":14168:14177   */\n      not\n        /* \"#utility.yul\":14161:14166   */\n      dup5\n        /* \"#utility.yul\":14157:14178   */\n      and\n        /* \"#utility.yul\":14148:14178   */\n      swap4\n      pop\n        /* \"#utility.yul\":14221:14225   */\n      dup1\n        /* \"#utility.yul\":14211:14219   */\n      dup7\n        /* \"#utility.yul\":14207:14226   */\n      and\n        /* \"#utility.yul\":14200:14205   */\n      dup5\n        /* \"#utility.yul\":14197:14227   */\n      or\n        /* \"#utility.yul\":14187:14227   */\n      swap3\n      pop\n        /* \"#utility.yul\":13916:14233   */\n      pop\n      pop\n        /* \"#utility.yul\":13840:14233   */\n      swap4\n      swap3\n      pop\n      pop\n      pop\n      jump\t// out\n        /* \"#utility.yul\":14239:14299   */\n    tag_173:\n        /* \"#utility.yul\":14267:14270   */\n      0x00\n        /* \"#utility.yul\":14288:14293   */\n      dup2\n        /* \"#utility.yul\":14281:14293   */\n      swap1\n      pop\n        /* \"#utility.yul\":14239:14299   */\n      swap2\n      swap1\n      pop\n      jump\t// out\n        /* \"#utility.yul\":14305:14447   */\n    tag_174:\n        /* \"#utility.yul\":14355:14364   */\n      0x00\n        /* \"#utility.yul\":14388:14441   */\n      tag_334\n        /* \"#utility.yul\":14406:14440   */\n      tag_335\n        /* \"#utility.yul\":14415:14439   */\n      tag_336\n        /* \"#utility.yul\":14433:14438   */\n      dup5\n        /* \"#utility.yul\":14415:14439   */\n      tag_140\n      jump\t// in\n    tag_336:\n        /* \"#utility.yul\":14406:14440   */\n      tag_173\n      jump\t// in\n    tag_335:\n        /* \"#utility.yul\":14388:14441   */\n      tag_140\n      jump\t// in\n    tag_334:\n        /* \"#utility.yul\":14375:14441   */\n      swap1\n      pop\n        /* \"#utility.yul\":14305:14447   */\n      swap2\n      swap1\n      pop\n      jump\t// out\n        /* \"#utility.yul\":14453:14528   */\n    tag_175:\n        /* \"#utility.yul\":14496:14499   */\n      0x00\n        /* \"#utility.yul\":14517:14522   */\n      dup2\n        /* \"#utility.yul\":14510:14522   */\n      swap1\n      pop\n        /* \"#utility.yul\":14453:14528   */\n      swap2\n      swap1\n      pop\n      jump\t// out\n        /* \"#utility.yul\":14534:14803   */\n    tag_176:\n        /* \"#utility.yul\":14644:14683   */\n      tag_339\n        /* \"#utility.yul\":14675:14682   */\n      dup4\n        /* \"#utility.yul\":14644:14683   */\n      tag_174\n      jump\t// in\n    tag_339:\n        /* \"#utility.yul\":14705:14796   */\n      tag_340\n        /* \"#utility.yul\":14754:14795   */\n      tag_341\n        /* \"#utility.yul\":14778:14794   */\n      dup3\n        /* \"#utility.yul\":14754:14795   */\n      tag_175\n      jump\t// in\n    tag_341:\n        /* \"#utility.yul\":14746:14752   */\n      dup5\n        /* \"#utility.yul\":14739:14743   */\n      dup5\n        /* \"#utility.yul\":14733:14744   */\n      sload\n        /* \"#utility.yul\":14705:14796   */\n      tag_172\n      jump\t// in\n    tag_340:\n        /* \"#utility.yul\":14699:14703   */\n      dup3\n        /* \"#utility.yul\":14692:14797   */\n      sstore\n        /* \"#utility.yul\":14610:14803   */\n      pop\n        /* \"#utility.yul\":14534:14803   */\n      pop\n      pop\n      pop\n      jump\t// out\n        /* \"#utility.yul\":14809:14882   */\n    tag_177:\n        /* \"#utility.yul\":14854:14857   */\n      0x00\n        /* \"#utility.yul\":14809:14882   */\n      swap1\n      jump\t// out\n        /* \"#utility.yul\":14888:15077   */\n    tag_178:\n        /* \"#utility.yul\":14965:14997   */\n      tag_344\n      tag_177\n      jump\t// in\n    tag_344:\n        /* \"#utility.yul\":15006:15071   */\n      tag_345\n        /* \"#utility.yul\":15064:15070   */\n      dup2\n        /* \"#utility.yul\":15056:15062   */\n      dup5\n        /* \"#utility.yul\":15050:15054   */\n      dup5\n        /* \"#utility.yul\":15006:15071   */\n      tag_176\n      jump\t// in\n    tag_345:\n        /* \"#utility.yul\":14941:15077   */\n      pop\n        /* \"#utility.yul\":14888:15077   */\n      pop\n      pop\n      jump\t// out\n        /* \"#utility.yul\":15083:15269   */\n    tag_179:\n        /* \"#utility.yul\":15143:15263   */\n    tag_347:\n        /* \"#utility.yul\":15160:15163   */\n      dup2\n        /* \"#utility.yul\":15153:15158   */\n      dup2\n        /* \"#utility.yul\":15150:15164   */\n      lt\n        /* \"#utility.yul\":15143:15263   */\n      iszero\n      tag_349\n      jumpi\n        /* \"#utility.yul\":15214:15253   */\n      tag_350\n        /* \"#utility.yul\":15251:15252   */\n      0x00\n        /* \"#utility.yul\":15244:15249   */\n      dup3\n        /* \"#utility.yul\":15214:15253   */\n      tag_178\n      jump\t// in\n    tag_350:\n        /* \"#utility.yul\":15187:15188   */\n      0x01\n        /* \"#utility.yul\":15180:15185   */\n      dup2\n        /* \"#utility.yul\":15176:15189   */\n      add\n        /* \"#utility.yul\":15167:15189   */\n      swap1\n      pop\n        /* \"#utility.yul\":15143:15263   */\n      jump(tag_347)\n    tag_349:\n        /* \"#utility.yul\":15083:15269   */\n      pop\n      pop\n      jump\t// out\n        /* \"#utility.yul\":15275:15818   */\n    tag_180:\n        /* \"#utility.yul\":15376:15378   */\n      0x1f\n        /* \"#utility.yul\":15371:15374   */\n      dup3\n        /* \"#utility.yul\":15368:15379   */\n      gt\n        /* \"#utility.yul\":15365:15811   */\n      iszero\n      tag_352\n      jumpi\n        /* \"#utility.yul\":15410:15448   */\n      tag_353\n        /* \"#utility.yul\":15442:15447   */\n      dup2\n        /* \"#utility.yul\":15410:15448   */\n      tag_169\n      jump\t// in\n    tag_353:\n        /* \"#utility.yul\":15494:15523   */\n      tag_354\n        /* \"#utility.yul\":15512:15522   */\n      dup5\n        /* \"#utility.yul\":15494:15523   */\n      tag_170\n      jump\t// in\n    tag_354:\n        /* \"#utility.yul\":15484:15492   */\n      dup2\n        /* \"#utility.yul\":15480:15524   */\n      add\n        /* \"#utility.yul\":15677:15679   */\n      0x20\n        /* \"#utility.yul\":15665:15675   */\n      dup6\n        /* \"#utility.yul\":15662:15680   */\n      lt\n        /* \"#utility.yul\":15659:15708   */\n      iszero\n      tag_355\n      jumpi\n        /* \"#utility.yul\":15698:15706   */\n      dup2\n        /* \"#utility.yul\":15683:15706   */\n      swap1\n      pop\n        /* \"#utility.yul\":15659:15708   */\n    tag_355:\n        /* \"#utility.yul\":15721:15801   */\n      tag_356\n        /* \"#utility.yul\":15777:15799   */\n      tag_357\n        /* \"#utility.yul\":15795:15798   */\n      dup6\n        /* \"#utility.yul\":15777:15799   */\n      tag_170\n      jump\t// in\n    tag_357:\n        /* \"#utility.yul\":15767:15775   */\n      dup4\n        /* \"#utility.yul\":15763:15800   */\n      add\n        /* \"#utility.yul\":15750:15761   */\n      dup3\n        /* \"#utility.yul\":15721:15801   */\n      tag_179\n      jump\t// in\n    tag_356:\n        /* \"#utility.yul\":15380:15811   */\n      pop\n      pop\n        /* \"#utility.yul\":15365:15811   */\n    tag_352:\n        /* \"#utility.yul\":15275:15818   */\n      pop\n      pop\n      pop\n      jump\t// out\n        /* \"#utility.yul\":15824:15941   */\n    tag_181:\n        /* \"#utility.yul\":15878:15886   */\n      0x00\n        /* \"#utility.yul\":15928:15933   */\n      dup3\n        /* \"#utility.yul\":15922:15926   */\n      dup3\n        /* \"#utility.yul\":15918:15934   */\n      shr\n        /* \"#utility.yul\":15897:15934   */\n      swap1\n      pop\n        /* \"#utility.yul\":15824:15941   */\n      swap3\n      swap2\n      pop\n      pop\n      jump\t// out\n        /* \"#utility.yul\":15947:16116   */\n    tag_182:\n        /* \"#utility.yul\":15991:15997   */\n      0x00\n        /* \"#utility.yul\":16024:16075   */\n      tag_360\n        /* \"#utility.yul\":16072:16073   */\n      0x00\n        /* \"#utility.yul\":16068:16074   */\n      not\n        /* \"#utility.yul\":16060:16065   */\n      dup5\n        /* \"#utility.yul\":16057:16058   */\n      0x08\n        /* \"#utility.yul\":16053:16066   */\n      mul\n        /* \"#utility.yul\":16024:16075   */\n      tag_181\n      jump\t// in\n    tag_360:\n        /* \"#utility.yul\":16020:16076   */\n      not\n        /* \"#utility.yul\":16105:16109   */\n      dup1\n        /* \"#utility.yul\":16099:16103   */\n      dup4\n        /* \"#utility.yul\":16095:16110   */\n      and\n        /* \"#utility.yul\":16085:16110   */\n      swap2\n      pop\n        /* \"#utility.yul\":15998:16116   */\n      pop\n        /* \"#utility.yul\":15947:16116   */\n      swap3\n      swap2\n      pop\n      pop\n      jump\t// out\n        /* \"#utility.yul\":16121:16416   */\n    tag_183:\n        /* \"#utility.yul\":16197:16201   */\n      0x00\n        /* \"#utility.yul\":16343:16372   */\n      tag_362\n        /* \"#utility.yul\":16368:16371   */\n      dup4\n        /* \"#utility.yul\":16362:16366   */\n      dup4\n        /* \"#utility.yul\":16343:16372   */\n      tag_182\n      jump\t// in\n    tag_362:\n        /* \"#utility.yul\":16335:16372   */\n      swap2\n      pop\n        /* \"#utility.yul\":16405:16408   */\n      dup3\n        /* \"#utility.yul\":16402:16403   */\n      0x02\n        /* \"#utility.yul\":16398:16409   */\n      mul\n        /* \"#utility.yul\":16392:16396   */\n      dup3\n        /* \"#utility.yul\":16389:16410   */\n      or\n        /* \"#utility.yul\":16381:16410   */\n      swap1\n      pop\n        /* \"#utility.yul\":16121:16416   */\n      swap3\n      swap2\n      pop\n      pop\n      jump\t// out\n        /* \"#utility.yul\":16421:17816   */\n    tag_77:\n        /* \"#utility.yul\":16538:16575   */\n      tag_364\n        /* \"#utility.yul\":16571:16574   */\n      dup3\n        /* \"#utility.yul\":16538:16575   */\n      tag_144\n      jump\t// in\n    tag_364:\n        /* \"#utility.yul\":16640:16658   */\n      0xffffffffffffffff\n        /* \"#utility.yul\":16632:16638   */\n      dup2\n        /* \"#utility.yul\":16629:16659   */\n      gt\n        /* \"#utility.yul\":16626:16682   */\n      iszero\n      tag_365\n      jumpi\n        /* \"#utility.yul\":16662:16680   */\n      tag_366\n      tag_168\n      jump\t// in\n    tag_366:\n        /* \"#utility.yul\":16626:16682   */\n    tag_365:\n        /* \"#utility.yul\":16706:16744   */\n      tag_367\n        /* \"#utility.yul\":16738:16742   */\n      dup3\n        /* \"#utility.yul\":16732:16743   */\n      sload\n        /* \"#utility.yul\":16706:16744   */\n      tag_60\n      jump\t// in\n    tag_367:\n        /* \"#utility.yul\":16791:16858   */\n      tag_368\n        /* \"#utility.yul\":16851:16857   */\n      dup3\n        /* \"#utility.yul\":16843:16849   */\n      dup3\n        /* \"#utility.yul\":16837:16841   */\n      dup6\n        /* \"#utility.yul\":16791:16858   */\n      tag_180\n      jump\t// in\n    tag_368:\n        /* \"#utility.yul\":16885:16886   */\n      0x00\n        /* \"#utility.yul\":16909:16913   */\n      0x20\n        /* \"#utility.yul\":16896:16913   */\n      swap1\n      pop\n        /* \"#utility.yul\":16941:16943   */\n      0x1f\n        /* \"#utility.yul\":16933:16939   */\n      dup4\n        /* \"#utility.yul\":16930:16944   */\n      gt\n        /* \"#utility.yul\":16958:16959   */\n      0x01\n        /* \"#utility.yul\":16953:17571   */\n      dup2\n      eq\n      tag_370\n      jumpi\n        /* \"#utility.yul\":17615:17616   */\n      0x00\n        /* \"#utility.yul\":17632:17638   */\n      dup5\n        /* \"#utility.yul\":17629:17706   */\n      iszero\n      tag_371\n      jumpi\n        /* \"#utility.yul\":17681:17690   */\n      dup3\n        /* \"#utility.yul\":17676:17679   */\n      dup8\n        /* \"#utility.yul\":17672:17691   */\n      add\n        /* \"#utility.yul\":17666:17692   */\n      mload\n        /* \"#utility.yul\":17657:17692   */\n      swap1\n      pop\n        /* \"#utility.yul\":17629:17706   */\n    tag_371:\n        /* \"#utility.yul\":17732:17799   */\n      tag_372\n        /* \"#utility.yul\":17792:17798   */\n      dup6\n        /* \"#utility.yul\":17785:17790   */\n      dup3\n        /* \"#utility.yul\":17732:17799   */\n      tag_183\n      jump\t// in\n    tag_372:\n        /* \"#utility.yul\":17726:17730   */\n      dup7\n        /* \"#utility.yul\":17719:17800   */\n      sstore\n        /* \"#utility.yul\":17588:17810   */\n      pop\n        /* \"#utility.yul\":16923:17810   */\n      jump(tag_369)\n        /* \"#utility.yul\":16953:17571   */\n    tag_370:\n        /* \"#utility.yul\":17005:17009   */\n      0x1f\n        /* \"#utility.yul\":17001:17010   */\n      not\n        /* \"#utility.yul\":16993:16999   */\n      dup5\n        /* \"#utility.yul\":16989:17011   */\n      and\n        /* \"#utility.yul\":17039:17076   */\n      tag_373\n        /* \"#utility.yul\":17071:17075   */\n      dup7\n        /* \"#utility.yul\":17039:17076   */\n      tag_169\n      jump\t// in\n    tag_373:\n        /* \"#utility.yul\":17098:17099   */\n      0x00\n        /* \"#utility.yul\":17112:17320   */\n    tag_374:\n        /* \"#utility.yul\":17126:17133   */\n      dup3\n        /* \"#utility.yul\":17123:17124   */\n      dup2\n        /* \"#utility.yul\":17120:17134   */\n      lt\n        /* \"#utility.yul\":17112:17320   */\n      iszero\n      tag_376\n      jumpi\n        /* \"#utility.yul\":17205:17214   */\n      dup5\n        /* \"#utility.yul\":17200:17203   */\n      dup10\n        /* \"#utility.yul\":17196:17215   */\n      add\n        /* \"#utility.yul\":17190:17216   */\n      mload\n        /* \"#utility.yul\":17182:17188   */\n      dup3\n        /* \"#utility.yul\":17175:17217   */\n      sstore\n        /* \"#utility.yul\":17256:17257   */\n      0x01\n        /* \"#utility.yul\":17248:17254   */\n      dup3\n        /* \"#utility.yul\":17244:17258   */\n      add\n        /* \"#utility.yul\":17234:17258   */\n      swap2\n      pop\n        /* \"#utility.yul\":17303:17305   */\n      0x20\n        /* \"#utility.yul\":17292:17301   */\n      dup6\n        /* \"#utility.yul\":17288:17306   */\n      add\n        /* \"#utility.yul\":17275:17306   */\n      swap5\n      pop\n        /* \"#utility.yul\":17149:17153   */\n      0x20\n        /* \"#utility.yul\":17146:17147   */\n      dup2\n        /* \"#utility.yul\":17142:17154   */\n      add\n        /* \"#utility.yul\":17137:17154   */\n      swap1\n      pop\n        /* \"#utility.yul\":17112:17320   */\n      jump(tag_374)\n    tag_376:\n        /* \"#utility.yul\":17348:17354   */\n      dup7\n        /* \"#utility.yul\":17339:17346   */\n      dup4\n        /* \"#utility.yul\":17336:17355   */\n      lt\n        /* \"#utility.yul\":17333:17512   */\n      iszero\n      tag_377\n      jumpi\n        /* \"#utility.yul\":17406:17415   */\n      dup5\n        /* \"#utility.yul\":17401:17404   */\n      dup10\n        /* \"#utility.yul\":17397:17416   */\n      add\n        /* \"#utility.yul\":17391:17417   */\n      mload\n        /* \"#utility.yul\":17449:17497   */\n      tag_378\n        /* \"#utility.yul\":17491:17495   */\n      0x1f\n        /* \"#utility.yul\":17483:17489   */\n      dup10\n        /* \"#utility.yul\":17479:17496   */\n      and\n        /* \"#utility.yul\":17468:17477   */\n      dup3\n        /* \"#utility.yul\":17449:17497   */\n      tag_182\n      jump\t// in\n    tag_378:\n        /* \"#utility.yul\":17441:17447   */\n      dup4\n        /* \"#utility.yul\":17434:17498   */\n      sstore\n        /* \"#utility.yul\":17356:17512   */\n      pop\n        /* \"#utility.yul\":17333:17512   */\n    tag_377:\n        /* \"#utility.yul\":17558:17559   */\n      0x01\n        /* \"#utility.yul\":17554:17555   */\n      0x02\n        /* \"#utility.yul\":17546:17552   */\n      dup9\n        /* \"#utility.yul\":17542:17556   */\n      mul\n        /* \"#utility.yul\":17538:17560   */\n      add\n        /* \"#utility.yul\":17532:17536   */\n      dup9\n        /* \"#utility.yul\":17525:17561   */\n      sstore\n        /* \"#utility.yul\":16960:17571   */\n      pop\n      pop\n      pop\n        /* \"#utility.yul\":16923:17810   */\n    tag_369:\n      pop\n        /* \"#utility.yul\":16513:17816   */\n      pop\n      pop\n      pop\n        /* \"#utility.yul\":16421:17816   */\n      pop\n      pop\n      jump\t// out\n        /* \"#utility.yul\":17822:17999   */\n    tag_184:\n        /* \"#utility.yul\":17962:17991   */\n      0x5468652070726f706f73616c206973206e6f74206163746976652e0000000000\n        /* \"#utility.yul\":17958:17959   */\n      0x00\n        /* \"#utility.yul\":17950:17956   */\n      dup3\n        /* \"#utility.yul\":17946:17960   */\n      add\n        /* \"#utility.yul\":17939:17992   */\n      mstore\n        /* \"#utility.yul\":17822:17999   */\n      pop\n      jump\t// out\n        /* \"#utility.yul\":18005:18371   */\n    tag_185:\n        /* \"#utility.yul\":18147:18150   */\n      0x00\n        /* \"#utility.yul\":18168:18235   */\n      tag_381\n        /* \"#utility.yul\":18232:18234   */\n      0x1b\n        /* \"#utility.yul\":18227:18230   */\n      dup4\n        /* \"#utility.yul\":18168:18235   */\n      tag_145\n      jump\t// in\n    tag_381:\n        /* \"#utility.yul\":18161:18235   */\n      swap2\n      pop\n        /* \"#utility.yul\":18244:18337   */\n      tag_382\n        /* \"#utility.yul\":18333:18336   */\n      dup3\n        /* \"#utility.yul\":18244:18337   */\n      tag_184\n      jump\t// in\n    tag_382:\n        /* \"#utility.yul\":18362:18364   */\n      0x20\n        /* \"#utility.yul\":18357:18360   */\n      dup3\n        /* \"#utility.yul\":18353:18365   */\n      add\n        /* \"#utility.yul\":18346:18365   */\n      swap1\n      pop\n        /* \"#utility.yul\":18005:18371   */\n      swap2\n      swap1\n      pop\n      jump\t// out\n        /* \"#utility.yul\":18377:18796   */\n    tag_96:\n        /* \"#utility.yul\":18543:18547   */\n      0x00\n        /* \"#utility.yul\":18581:18583   */\n      0x20\n        /* \"#utility.yul\":18570:18579   */\n      dup3\n        /* \"#utility.yul\":18566:18584   */\n      add\n        /* \"#utility.yul\":18558:18584   */\n      swap1\n      pop\n        /* \"#utility.yul\":18630:18639   */\n      dup2\n        /* \"#utility.yul\":18624:18628   */\n      dup2\n        /* \"#utility.yul\":18620:18640   */\n      sub\n        /* \"#utility.yul\":18616:18617   */\n      0x00\n        /* \"#utility.yul\":18605:18614   */\n      dup4\n        /* \"#utility.yul\":18601:18618   */\n      add\n        /* \"#utility.yul\":18594:18641   */\n      mstore\n        /* \"#utility.yul\":18658:18789   */\n      tag_384\n        /* \"#utility.yul\":18784:18788   */\n      dup2\n        /* \"#utility.yul\":18658:18789   */\n      tag_185\n      jump\t// in\n    tag_384:\n        /* \"#utility.yul\":18650:18789   */\n      swap1\n      pop\n        /* \"#utility.yul\":18377:18796   */\n      swap2\n      swap1\n      pop\n      jump\t// out\n        /* \"#utility.yul\":18802:19032   */\n    tag_186:\n        /* \"#utility.yul\":18942:18976   */\n      0x416464726573732068617320616c726561647920766f746564206f6e20746869\n        /* \"#utility.yul\":18938:18939   */\n      0x00\n        /* \"#utility.yul\":18930:18936   */\n      dup3\n        /* \"#utility.yul\":18926:18940   */\n      add\n        /* \"#utility.yul\":18919:18977   */\n      mstore\n        /* \"#utility.yul\":19011:19024   */\n      0x732070726f706f73616c2e000000000000000000000000000000000000000000\n        /* \"#utility.yul\":19006:19008   */\n      0x20\n        /* \"#utility.yul\":18998:19004   */\n      dup3\n        /* \"#utility.yul\":18994:19009   */\n      add\n        /* \"#utility.yul\":18987:19025   */\n      mstore\n        /* \"#utility.yul\":18802:19032   */\n      pop\n      jump\t// out\n        /* \"#utility.yul\":19038:19404   */\n    tag_187:\n        /* \"#utility.yul\":19180:19183   */\n      0x00\n        /* \"#utility.yul\":19201:19268   */\n      tag_387\n        /* \"#utility.yul\":19265:19267   */\n      0x2b\n        /* \"#utility.yul\":19260:19263   */\n      dup4\n        /* \"#utility.yul\":19201:19268   */\n      tag_145\n      jump\t// in\n    tag_387:\n        /* \"#utility.yul\":19194:19268   */\n      swap2\n      pop\n        /* \"#utility.yul\":19277:19370   */\n      tag_388\n        /* \"#utility.yul\":19366:19369   */\n      dup3\n        /* \"#utility.yul\":19277:19370   */\n      tag_186\n      jump\t// in\n    tag_388:\n        /* \"#utility.yul\":19395:19397   */\n      0x40\n        /* \"#utility.yul\":19390:19393   */\n      dup3\n        /* \"#utility.yul\":19386:19398   */\n      add\n        /* \"#utility.yul\":19379:19398   */\n      swap1\n      pop\n        /* \"#utility.yul\":19038:19404   */\n      swap2\n      swap1\n      pop\n      jump\t// out\n        /* \"#utility.yul\":19410:19829   */\n    tag_100:\n        /* \"#utility.yul\":19576:19580   */\n      0x00\n        /* \"#utility.yul\":19614:19616   */\n      0x20\n        /* \"#utility.yul\":19603:19612   */\n      dup3\n        /* \"#utility.yul\":19599:19617   */\n      add\n        /* \"#utility.yul\":19591:19617   */\n      swap1\n      pop\n        /* \"#utility.yul\":19663:19672   */\n      dup2\n        /* \"#utility.yul\":19657:19661   */\n      dup2\n        /* \"#utility.yul\":19653:19673   */\n      sub\n        /* \"#utility.yul\":19649:19650   */\n      0x00\n        /* \"#utility.yul\":19638:19647   */\n      dup4\n        /* \"#utility.yul\":19634:19651   */\n      add\n        /* \"#utility.yul\":19627:19674   */\n      mstore\n        /* \"#utility.yul\":19691:19822   */\n      tag_390\n        /* \"#utility.yul\":19817:19821   */\n      dup2\n        /* \"#utility.yul\":19691:19822   */\n      tag_187\n      jump\t// in\n    tag_390:\n        /* \"#utility.yul\":19683:19822   */\n      swap1\n      pop\n        /* \"#utility.yul\":19410:19829   */\n      swap2\n      swap1\n      pop\n      jump\t// out\n        /* \"#utility.yul\":19835:20000   */\n    tag_188:\n        /* \"#utility.yul\":19975:19992   */\n      0x496e76616c69642063686f6963652e0000000000000000000000000000000000\n        /* \"#utility.yul\":19971:19972   */\n      0x00\n        /* \"#utility.yul\":19963:19969   */\n      dup3\n        /* \"#utility.yul\":19959:19973   */\n      add\n        /* \"#utility.yul\":19952:19993   */\n      mstore\n        /* \"#utility.yul\":19835:20000   */\n      pop\n      jump\t// out\n        /* \"#utility.yul\":20006:20372   */\n    tag_189:\n        /* \"#utility.yul\":20148:20151   */\n      0x00\n        /* \"#utility.yul\":20169:20236   */\n      tag_393\n        /* \"#utility.yul\":20233:20235   */\n      0x0f\n        /* \"#utility.yul\":20228:20231   */\n      dup4\n        /* \"#utility.yul\":20169:20236   */\n      tag_145\n      jump\t// in\n    tag_393:\n        /* \"#utility.yul\":20162:20236   */\n      swap2\n      pop\n        /* \"#utility.yul\":20245:20338   */\n      tag_394\n        /* \"#utility.yul\":20334:20337   */\n      dup3\n        /* \"#utility.yul\":20245:20338   */\n      tag_188\n      jump\t// in\n    tag_394:\n        /* \"#utility.yul\":20363:20365   */\n      0x20\n        /* \"#utility.yul\":20358:20361   */\n      dup3\n        /* \"#utility.yul\":20354:20366   */\n      add\n        /* \"#utility.yul\":20347:20366   */\n      swap1\n      pop\n        /* \"#utility.yul\":20006:20372   */\n      swap2\n      swap1\n      pop\n      jump\t// out\n        /* \"#utility.yul\":20378:20797   */\n    tag_104:\n        /* \"#utility.yul\":20544:20548   */\n      0x00\n        /* \"#utility.yul\":20582:20584   */\n      0x20\n        /* \"#utility.yul\":20571:20580   */\n      dup3\n        /* \"#utility.yul\":20567:20585   */\n      add\n        /* \"#utility.yul\":20559:20585   */\n      swap1\n      pop\n        /* \"#utility.yul\":20631:20640   */\n      dup2\n        /* \"#utility.yul\":20625:20629   */\n      dup2\n        /* \"#utility.yul\":20621:20641   */\n      sub\n        /* \"#utility.yul\":20617:20618   */\n      0x00\n        /* \"#utility.yul\":20606:20615   */\n      dup4\n        /* \"#utility.yul\":20602:20619   */\n      add\n        /* \"#utility.yul\":20595:20642   */\n      mstore\n        /* \"#utility.yul\":20659:20790   */\n      tag_396\n        /* \"#utility.yul\":20785:20789   */\n      dup2\n        /* \"#utility.yul\":20659:20790   */\n      tag_189\n      jump\t// in\n    tag_396:\n        /* \"#utility.yul\":20651:20790   */\n      swap1\n      pop\n        /* \"#utility.yul\":20378:20797   */\n      swap2\n      swap1\n      pop\n      jump\t// out\n        /* \"#utility.yul\":20803:20983   */\n    tag_190:\n        /* \"#utility.yul\":20851:20928   */\n      0x4e487b7100000000000000000000000000000000000000000000000000000000\n        /* \"#utility.yul\":20848:20849   */\n      0x00\n        /* \"#utility.yul\":20841:20929   */\n      mstore\n        /* \"#utility.yul\":20948:20952   */\n      0x12\n        /* \"#utility.yul\":20945:20946   */\n      0x04\n        /* \"#utility.yul\":20938:20953   */\n      mstore\n        /* \"#utility.yul\":20972:20976   */\n      0x24\n        /* \"#utility.yul\":20969:20970   */\n      0x00\n        /* \"#utility.yul\":20962:20977   */\n      revert\n        /* \"#utility.yul\":20989:21174   */\n    tag_131:\n        /* \"#utility.yul\":21029:21030   */\n      0x00\n        /* \"#utility.yul\":21046:21066   */\n      tag_399\n        /* \"#utility.yul\":21064:21065   */\n      dup3\n        /* \"#utility.yul\":21046:21066   */\n      tag_140\n      jump\t// in\n    tag_399:\n        /* \"#utility.yul\":21041:21066   */\n      swap2\n      pop\n        /* \"#utility.yul\":21080:21100   */\n      tag_400\n        /* \"#utility.yul\":21098:21099   */\n      dup4\n        /* \"#utility.yul\":21080:21100   */\n      tag_140\n      jump\t// in\n    tag_400:\n        /* \"#utility.yul\":21075:21100   */\n      swap3\n      pop\n        /* \"#utility.yul\":21119:21120   */\n      dup3\n        /* \"#utility.yul\":21109:21144   */\n      tag_401\n      jumpi\n        /* \"#utility.yul\":21124:21142   */\n      tag_402\n      tag_190\n      jump\t// in\n    tag_402:\n        /* \"#utility.yul\":21109:21144   */\n    tag_401:\n        /* \"#utility.yul\":21166:21167   */\n      dup3\n        /* \"#utility.yul\":21163:21164   */\n      dup3\n        /* \"#utility.yul\":21159:21168   */\n      div\n        /* \"#utility.yul\":21154:21168   */\n      swap1\n      pop\n        /* \"#utility.yul\":20989:21174   */\n      swap3\n      swap2\n      pop\n      pop\n      jump\t// out\n\n    auxdata: 0xa26469706673582212206e46993d10270ebc0777bfd41d40ea51097c9c3d72dd06e2f7a44fca8ee59c2164736f6c63430008180033\n}\n",
				"bytecode": {
					"linkReferences": {},
					"object": "608060405234801561000f575f80fd5b50335f806101000a81548173ffffffffffffffffffffffffffffffffffffffff021916908373ffffffffffffffffffffffffffffffffffffffff16021790555061180e8061005c5f395ff3fe608060405234801561000f575f80fd5b5060043610610091575f3560e01c806341ec68701161006457806341ec68701461013457806349c1a581146101525780638da5cb5b14610182578063943e8216146101a0578063c7f758a8146101bc57610091565b806302802bd11461009557806313af4035146100c5578063350f0d8c146100e15780633ca6d10014610118575b5f80fd5b6100af60048036038101906100aa9190610d61565b6101ec565b6040516100bc9190610da4565b60405180910390f35b6100df60048036038101906100da9190610d61565b610201565b005b6100fb60048036038101906100f69190610de7565b6102d0565b60405161010f989796959493929190610eb6565b60405180910390f35b610132600480360381019061012d9190610fa1565b610439565b005b61013c610651565b604051610149919061114c565b60405180910390f35b61016c6004803603810190610167919061116c565b6107f9565b60405161017991906111aa565b60405180910390f35b61018a610843565b60405161019791906111d2565b60405180910390f35b6101ba60048036038101906101b59190611221565b610866565b005b6101d660048036038101906101d19190610de7565b610ad1565b6040516101e3919061114c565b60405180910390f35b6003602052805f5260405f205f915090505481565b5f8054906101000a900473ffffffffffffffffffffffffffffffffffffffff1673ffffffffffffffffffffffffffffffffffffffff163373ffffffffffffffffffffffffffffffffffffffff161461028e576040517f08c379a0000000000000000000000000000000000000000000000000000000008152600401610285906112a9565b60405180910390fd5b805f806101000a81548173ffffffffffffffffffffffffffffffffffffffff021916908373ffffffffffffffffffffffffffffffffffffffff16021790555050565b6002602052805f5260405f205f91509050805f0180546102ef906112f4565b80601f016020809104026020016040519081016040528092919081815260200182805461031b906112f4565b80156103665780601f1061033d57610100808354040283529160200191610366565b820191905f5260205f20905b81548152906001019060200180831161034957829003601f168201915b50505050509080600101805461037b906112f4565b80601f01602080910402602001604051908101604052809291908181526020018280546103a7906112f4565b80156103f25780601f106103c9576101008083540402835291602001916103f2565b820191905f5260205f20905b8154815290600101906020018083116103d557829003601f168201915b505050505090806002015490806003015490806004015490806005015490806006015f9054906101000a900460ff16908060060160019054906101000a900460ff16905088565b5f8054906101000a900473ffffffffffffffffffffffffffffffffffffffff1673ffffffffffffffffffffffffffffffffffffffff163373ffffffffffffffffffffffffffffffffffffffff16146104c6576040517f08c379a00000000000000000000000000000000000000000000000000000000081526004016104bd906112a9565b60405180910390fd5b6001805f8282546104d79190611351565b9250508190555060405180610100016040528086868080601f0160208091040260200160405190810160405280939291908181526020018383808284375f81840152601f19601f82011690508083019250505050505050815260200184848080601f0160208091040260200160405190810160405280939291908181526020018383808284375f81840152601f19601f8201169050808301925050505050505081526020015f81526020015f81526020015f81526020018281526020015f151581526020016001151581525060025f60015481526020019081526020015f205f820151815f0190816105c9919061154e565b5060208201518160010190816105df919061154e565b5060408201518160020155606082015181600301556080820151816004015560a0820151816005015560c0820151816006015f6101000a81548160ff02191690831515021790555060e08201518160060160016101000a81548160ff0219169083151502179055509050505050505050565b610659610cbc565b60025f60015481526020019081526020015f20604051806101000160405290815f82018054610687906112f4565b80601f01602080910402602001604051908101604052809291908181526020018280546106b3906112f4565b80156106fe5780601f106106d5576101008083540402835291602001916106fe565b820191905f5260205f20905b8154815290600101906020018083116106e157829003601f168201915b50505050508152602001600182018054610717906112f4565b80601f0160208091040260200160405190810160405280929190818152602001828054610743906112f4565b801561078e5780601f106107655761010080835404028352916020019161078e565b820191905f5260205f20905b81548152906001019060200180831161077157829003601f168201915b5050505050815260200160028201548152602001600382015481526020016004820154815260200160058201548152602001600682015f9054906101000a900460ff161515151581526020016006820160019054906101000a900460ff161515151581525050905090565b5f8260035f8473ffffffffffffffffffffffffffffffffffffffff1673ffffffffffffffffffffffffffffffffffffffff1681526020019081526020015f20541015905092915050565b5f8054906101000a900473ffffffffffffffffffffffffffffffffffffffff1681565b8160025f8281526020019081526020015f2060060160019054906101000a900460ff166108c8576040517f08c379a00000000000000000000000000000000000000000000000000000000081526004016108bf90611667565b60405180910390fd5b828060035f3373ffffffffffffffffffffffffffffffffffffffff1673ffffffffffffffffffffffffffffffffffffffff1681526020019081526020015f205410610948576040517f08c379a000000000000000000000000000000000000000000000000000000000815260040161093f906116f5565b60405180910390fd5b5f60025f8681526020019081526020015f20905060028460ff1611156109a3576040517f08c379a000000000000000000000000000000000000000000000000000000000815260040161099a9061175d565b60405180910390fd5b8460035f3373ffffffffffffffffffffffffffffffffffffffff1673ffffffffffffffffffffffffffffffffffffffff1681526020019081526020015f208190555060018460ff1603610a10576001816002015f828254610a049190611351565b92505081905550610a58565b60028460ff1603610a3b576001816003015f828254610a2f9190611351565b92505081905550610a57565b6001816004015f828254610a4f9190611351565b925050819055505b5b5f816004015482600301548360020154610a729190611351565b610a7c9190611351565b905081600501548110610ac9575f8260060160016101000a81548160ff021916908315150217905550610aae86610c79565b826006015f6101000a81548160ff0219169083151502179055505b505050505050565b610ad9610cbc565b60025f8381526020019081526020015f20604051806101000160405290815f82018054610b05906112f4565b80601f0160208091040260200160405190810160405280929190818152602001828054610b31906112f4565b8015610b7c5780601f10610b5357610100808354040283529160200191610b7c565b820191905f5260205f20905b815481529060010190602001808311610b5f57829003601f168201915b50505050508152602001600182018054610b95906112f4565b80601f0160208091040260200160405190810160405280929190818152602001828054610bc1906112f4565b8015610c0c5780601f10610be357610100808354040283529160200191610c0c565b820191905f5260205f20905b815481529060010190602001808311610bef57829003601f168201915b5050505050815260200160028201548152602001600382015481526020016004820154815260200160058201548152602001600682015f9054906101000a900460ff161515151581526020016006820160019054906101000a900460ff1615151515815250509050919050565b5f8060025f8481526020019081526020015f20905060028160040154610c9f91906117a8565b8160030154610cae9190611351565b816002015411915050919050565b60405180610100016040528060608152602001606081526020015f81526020015f81526020015f81526020015f81526020015f151581526020015f151581525090565b5f80fd5b5f80fd5b5f73ffffffffffffffffffffffffffffffffffffffff82169050919050565b5f610d3082610d07565b9050919050565b610d4081610d26565b8114610d4a575f80fd5b50565b5f81359050610d5b81610d37565b92915050565b5f60208284031215610d7657610d75610cff565b5b5f610d8384828501610d4d565b91505092915050565b5f819050919050565b610d9e81610d8c565b82525050565b5f602082019050610db75f830184610d95565b92915050565b610dc681610d8c565b8114610dd0575f80fd5b50565b5f81359050610de181610dbd565b92915050565b5f60208284031215610dfc57610dfb610cff565b5b5f610e0984828501610dd3565b91505092915050565b5f81519050919050565b5f82825260208201905092915050565b5f5b83811015610e49578082015181840152602081019050610e2e565b5f8484015250505050565b5f601f19601f8301169050919050565b5f610e6e82610e12565b610e788185610e1c565b9350610e88818560208601610e2c565b610e9181610e54565b840191505092915050565b5f8115159050919050565b610eb081610e9c565b82525050565b5f610100820190508181035f830152610ecf818b610e64565b90508181036020830152610ee3818a610e64565b9050610ef26040830189610d95565b610eff6060830188610d95565b610f0c6080830187610d95565b610f1960a0830186610d95565b610f2660c0830185610ea7565b610f3360e0830184610ea7565b9998505050505050505050565b5f80fd5b5f80fd5b5f80fd5b5f8083601f840112610f6157610f60610f40565b5b8235905067ffffffffffffffff811115610f7e57610f7d610f44565b5b602083019150836001820283011115610f9a57610f99610f48565b5b9250929050565b5f805f805f60608688031215610fba57610fb9610cff565b5b5f86013567ffffffffffffffff811115610fd757610fd6610d03565b5b610fe388828901610f4c565b9550955050602086013567ffffffffffffffff81111561100657611005610d03565b5b61101288828901610f4c565b9350935050604061102588828901610dd3565b9150509295509295909350565b5f82825260208201905092915050565b5f61104c82610e12565b6110568185611032565b9350611066818560208601610e2c565b61106f81610e54565b840191505092915050565b61108381610d8c565b82525050565b61109281610e9c565b82525050565b5f61010083015f8301518482035f8601526110b38282611042565b915050602083015184820360208601526110cd8282611042565b91505060408301516110e2604086018261107a565b5060608301516110f5606086018261107a565b506080830151611108608086018261107a565b5060a083015161111b60a086018261107a565b5060c083015161112e60c0860182611089565b5060e083015161114160e0860182611089565b508091505092915050565b5f6020820190508181035f8301526111648184611098565b905092915050565b5f806040838503121561118257611181610cff565b5b5f61118f85828601610dd3565b92505060206111a085828601610d4d565b9150509250929050565b5f6020820190506111bd5f830184610ea7565b92915050565b6111cc81610d26565b82525050565b5f6020820190506111e55f8301846111c3565b92915050565b5f60ff82169050919050565b611200816111eb565b811461120a575f80fd5b50565b5f8135905061121b816111f7565b92915050565b5f806040838503121561123757611236610cff565b5b5f61124485828601610dd3565b92505060206112558582860161120d565b9150509250929050565b7f4f6e6c7920746865206f776e65722063616e206578656375746520746869732e5f82015250565b5f611293602083610e1c565b915061129e8261125f565b602082019050919050565b5f6020820190508181035f8301526112c081611287565b9050919050565b7f4e487b71000000000000000000000000000000000000000000000000000000005f52602260045260245ffd5b5f600282049050600182168061130b57607f821691505b60208210810361131e5761131d6112c7565b5b50919050565b7f4e487b71000000000000000000000000000000000000000000000000000000005f52601160045260245ffd5b5f61135b82610d8c565b915061136683610d8c565b925082820190508082111561137e5761137d611324565b5b92915050565b7f4e487b71000000000000000000000000000000000000000000000000000000005f52604160045260245ffd5b5f819050815f5260205f209050919050565b5f6020601f8301049050919050565b5f82821b905092915050565b5f6008830261140d7fffffffffffffffffffffffffffffffffffffffffffffffffffffffffffffffff826113d2565b61141786836113d2565b95508019841693508086168417925050509392505050565b5f819050919050565b5f61145261144d61144884610d8c565b61142f565b610d8c565b9050919050565b5f819050919050565b61146b83611438565b61147f61147782611459565b8484546113de565b825550505050565b5f90565b611493611487565b61149e818484611462565b505050565b5b818110156114c1576114b65f8261148b565b6001810190506114a4565b5050565b601f821115611506576114d7816113b1565b6114e0846113c3565b810160208510156114ef578190505b6115036114fb856113c3565b8301826114a3565b50505b505050565b5f82821c905092915050565b5f6115265f198460080261150b565b1980831691505092915050565b5f61153e8383611517565b9150826002028217905092915050565b61155782610e12565b67ffffffffffffffff8111156115705761156f611384565b5b61157a82546112f4565b6115858282856114c5565b5f60209050601f8311600181146115b6575f84156115a4578287015190505b6115ae8582611533565b865550611615565b601f1984166115c4866113b1565b5f5b828110156115eb578489015182556001820191506020850194506020810190506115c6565b868310156116085784890151611604601f891682611517565b8355505b6001600288020188555050505b505050505050565b7f5468652070726f706f73616c206973206e6f74206163746976652e00000000005f82015250565b5f611651601b83610e1c565b915061165c8261161d565b602082019050919050565b5f6020820190508181035f83015261167e81611645565b9050919050565b7f416464726573732068617320616c726561647920766f746564206f6e207468695f8201527f732070726f706f73616c2e000000000000000000000000000000000000000000602082015250565b5f6116df602b83610e1c565b91506116ea82611685565b604082019050919050565b5f6020820190508181035f83015261170c816116d3565b9050919050565b7f496e76616c69642063686f6963652e00000000000000000000000000000000005f82015250565b5f611747600f83610e1c565b915061175282611713565b602082019050919050565b5f6020820190508181035f8301526117748161173b565b9050919050565b7f4e487b71000000000000000000000000000000000000000000000000000000005f52601260045260245ffd5b5f6117b282610d8c565b91506117bd83610d8c565b9250826117cd576117cc61177b565b5b82820490509291505056fea26469706673582212206e46993d10270ebc0777bfd41d40ea51097c9c3d72dd06e2f7a44fca8ee59c2164736f6c63430008180033",
					"opcodes": "PUSH1 0x80 PUSH1 0x40 MSTORE CALLVALUE DUP1 ISZERO PUSH2 0xF JUMPI PUSH0 DUP1 REVERT JUMPDEST POP CALLER PUSH0 DUP1 PUSH2 0x100 EXP DUP2 SLOAD DUP2 PUSH20 0xFFFFFFFFFFFFFFFFFFFFFFFFFFFFFFFFFFFFFFFF MUL NOT AND SWAP1 DUP4 PUSH20 0xFFFFFFFFFFFFFFFFFFFFFFFFFFFFFFFFFFFFFFFF AND MUL OR SWAP1 SSTORE POP PUSH2 0x180E DUP1 PUSH2 0x5C PUSH0 CODECOPY PUSH0 RETURN INVALID PUSH1 0x80 PUSH1 0x40 MSTORE CALLVALUE DUP1 ISZERO PUSH2 0xF JUMPI PUSH0 DUP1 REVERT JUMPDEST POP PUSH1 0x4 CALLDATASIZE LT PUSH2 0x91 JUMPI PUSH0 CALLDATALOAD PUSH1 0xE0 SHR DUP1 PUSH4 0x41EC6870 GT PUSH2 0x64 JUMPI DUP1 PUSH4 0x41EC6870 EQ PUSH2 0x134 JUMPI DUP1 PUSH4 0x49C1A581 EQ PUSH2 0x152 JUMPI DUP1 PUSH4 0x8DA5CB5B EQ PUSH2 0x182 JUMPI DUP1 PUSH4 0x943E8216 EQ PUSH2 0x1A0 JUMPI DUP1 PUSH4 0xC7F758A8 EQ PUSH2 0x1BC JUMPI PUSH2 0x91 JUMP JUMPDEST DUP1 PUSH4 0x2802BD1 EQ PUSH2 0x95 JUMPI DUP1 PUSH4 0x13AF4035 EQ PUSH2 0xC5 JUMPI DUP1 PUSH4 0x350F0D8C EQ PUSH2 0xE1 JUMPI DUP1 PUSH4 0x3CA6D100 EQ PUSH2 0x118 JUMPI JUMPDEST PUSH0 DUP1 REVERT JUMPDEST PUSH2 0xAF PUSH1 0x4 DUP1 CALLDATASIZE SUB DUP2 ADD SWAP1 PUSH2 0xAA SWAP2 SWAP1 PUSH2 0xD61 JUMP JUMPDEST PUSH2 0x1EC JUMP JUMPDEST PUSH1 0x40 MLOAD PUSH2 0xBC SWAP2 SWAP1 PUSH2 0xDA4 JUMP JUMPDEST PUSH1 0x40 MLOAD DUP1 SWAP2 SUB SWAP1 RETURN JUMPDEST PUSH2 0xDF PUSH1 0x4 DUP1 CALLDATASIZE SUB DUP2 ADD SWAP1 PUSH2 0xDA SWAP2 SWAP1 PUSH2 0xD61 JUMP JUMPDEST PUSH2 0x201 JUMP JUMPDEST STOP JUMPDEST PUSH2 0xFB PUSH1 0x4 DUP1 CALLDATASIZE SUB DUP2 ADD SWAP1 PUSH2 0xF6 SWAP2 SWAP1 PUSH2 0xDE7 JUMP JUMPDEST PUSH2 0x2D0 JUMP JUMPDEST PUSH1 0x40 MLOAD PUSH2 0x10F SWAP9 SWAP8 SWAP7 SWAP6 SWAP5 SWAP4 SWAP3 SWAP2 SWAP1 PUSH2 0xEB6 JUMP JUMPDEST PUSH1 0x40 MLOAD DUP1 SWAP2 SUB SWAP1 RETURN JUMPDEST PUSH2 0x132 PUSH1 0x4 DUP1 CALLDATASIZE SUB DUP2 ADD SWAP1 PUSH2 0x12D SWAP2 SWAP1 PUSH2 0xFA1 JUMP JUMPDEST PUSH2 0x439 JUMP JUMPDEST STOP JUMPDEST PUSH2 0x13C PUSH2 0x651 JUMP JUMPDEST PUSH1 0x40 MLOAD PUSH2 0x149 SWAP2 SWAP1 PUSH2 0x114C JUMP JUMPDEST PUSH1 0x40 MLOAD DUP1 SWAP2 SUB SWAP1 RETURN JUMPDEST PUSH2 0x16C PUSH1 0x4 DUP1 CALLDATASIZE SUB DUP2 ADD SWAP1 PUSH2 0x167 SWAP2 SWAP1 PUSH2 0x116C JUMP JUMPDEST PUSH2 0x7F9 JUMP JUMPDEST PUSH1 0x40 MLOAD PUSH2 0x179 SWAP2 SWAP1 PUSH2 0x11AA JUMP JUMPDEST PUSH1 0x40 MLOAD DUP1 SWAP2 SUB SWAP1 RETURN JUMPDEST PUSH2 0x18A PUSH2 0x843 JUMP JUMPDEST PUSH1 0x40 MLOAD PUSH2 0x197 SWAP2 SWAP1 PUSH2 0x11D2 JUMP JUMPDEST PUSH1 0x40 MLOAD DUP1 SWAP2 SUB SWAP1 RETURN JUMPDEST PUSH2 0x1BA PUSH1 0x4 DUP1 CALLDATASIZE SUB DUP2 ADD SWAP1 PUSH2 0x1B5 SWAP2 SWAP1 PUSH2 0x1221 JUMP JUMPDEST PUSH2 0x866 JUMP JUMPDEST STOP JUMPDEST PUSH2 0x1D6 PUSH1 0x4 DUP1 CALLDATASIZE SUB DUP2 ADD SWAP1 PUSH2 0x1D1 SWAP2 SWAP1 PUSH2 0xDE7 JUMP JUMPDEST PUSH2 0xAD1 JUMP JUMPDEST PUSH1 0x40 MLOAD PUSH2 0x1E3 SWAP2 SWAP1 PUSH2 0x114C JUMP JUMPDEST PUSH1 0x40 MLOAD DUP1 SWAP2 SUB SWAP1 RETURN JUMPDEST PUSH1 0x3 PUSH1 0x20 MSTORE DUP1 PUSH0 MSTORE PUSH1 0x40 PUSH0 KECCAK256 PUSH0 SWAP2 POP SWAP1 POP SLOAD DUP2 JUMP JUMPDEST PUSH0 DUP1 SLOAD SWAP1 PUSH2 0x100 EXP SWAP1 DIV PUSH20 0xFFFFFFFFFFFFFFFFFFFFFFFFFFFFFFFFFFFFFFFF AND PUSH20 0xFFFFFFFFFFFFFFFFFFFFFFFFFFFFFFFFFFFFFFFF AND CALLER PUSH20 0xFFFFFFFFFFFFFFFFFFFFFFFFFFFFFFFFFFFFFFFF AND EQ PUSH2 0x28E JUMPI PUSH1 0x40 MLOAD PUSH32 0x8C379A000000000000000000000000000000000000000000000000000000000 DUP2 MSTORE PUSH1 0x4 ADD PUSH2 0x285 SWAP1 PUSH2 0x12A9 JUMP JUMPDEST PUSH1 0x40 MLOAD DUP1 SWAP2 SUB SWAP1 REVERT JUMPDEST DUP1 PUSH0 DUP1 PUSH2 0x100 EXP DUP2 SLOAD DUP2 PUSH20 0xFFFFFFFFFFFFFFFFFFFFFFFFFFFFFFFFFFFFFFFF MUL NOT AND SWAP1 DUP4 PUSH20 0xFFFFFFFFFFFFFFFFFFFFFFFFFFFFFFFFFFFFFFFF AND MUL OR SWAP1 SSTORE POP POP JUMP JUMPDEST PUSH1 0x2 PUSH1 0x20 MSTORE DUP1 PUSH0 MSTORE PUSH1 0x40 PUSH0 KECCAK256 PUSH0 SWAP2 POP SWAP1 POP DUP1 PUSH0 ADD DUP1 SLOAD PUSH2 0x2EF SWAP1 PUSH2 0x12F4 JUMP JUMPDEST DUP1 PUSH1 0x1F ADD PUSH1 0x20 DUP1 SWAP2 DIV MUL PUSH1 0x20 ADD PUSH1 0x40 MLOAD SWAP1 DUP2 ADD PUSH1 0x40 MSTORE DUP1 SWAP3 SWAP2 SWAP1 DUP2 DUP2 MSTORE PUSH1 0x20 ADD DUP3 DUP1 SLOAD PUSH2 0x31B SWAP1 PUSH2 0x12F4 JUMP JUMPDEST DUP1 ISZERO PUSH2 0x366 JUMPI DUP1 PUSH1 0x1F LT PUSH2 0x33D JUMPI PUSH2 0x100 DUP1 DUP4 SLOAD DIV MUL DUP4 MSTORE SWAP2 PUSH1 0x20 ADD SWAP2 PUSH2 0x366 JUMP JUMPDEST DUP3 ADD SWAP2 SWAP1 PUSH0 MSTORE PUSH1 0x20 PUSH0 KECCAK256 SWAP1 JUMPDEST DUP2 SLOAD DUP2 MSTORE SWAP1 PUSH1 0x1 ADD SWAP1 PUSH1 0x20 ADD DUP1 DUP4 GT PUSH2 0x349 JUMPI DUP3 SWAP1 SUB PUSH1 0x1F AND DUP3 ADD SWAP2 JUMPDEST POP POP POP POP POP SWAP1 DUP1 PUSH1 0x1 ADD DUP1 SLOAD PUSH2 0x37B SWAP1 PUSH2 0x12F4 JUMP JUMPDEST DUP1 PUSH1 0x1F ADD PUSH1 0x20 DUP1 SWAP2 DIV MUL PUSH1 0x20 ADD PUSH1 0x40 MLOAD SWAP1 DUP2 ADD PUSH1 0x40 MSTORE DUP1 SWAP3 SWAP2 SWAP1 DUP2 DUP2 MSTORE PUSH1 0x20 ADD DUP3 DUP1 SLOAD PUSH2 0x3A7 SWAP1 PUSH2 0x12F4 JUMP JUMPDEST DUP1 ISZERO PUSH2 0x3F2 JUMPI DUP1 PUSH1 0x1F LT PUSH2 0x3C9 JUMPI PUSH2 0x100 DUP1 DUP4 SLOAD DIV MUL DUP4 MSTORE SWAP2 PUSH1 0x20 ADD SWAP2 PUSH2 0x3F2 JUMP JUMPDEST DUP3 ADD SWAP2 SWAP1 PUSH0 MSTORE PUSH1 0x20 PUSH0 KECCAK256 SWAP1 JUMPDEST DUP2 SLOAD DUP2 MSTORE SWAP1 PUSH1 0x1 ADD SWAP1 PUSH1 0x20 ADD DUP1 DUP4 GT PUSH2 0x3D5 JUMPI DUP3 SWAP1 SUB PUSH1 0x1F AND DUP3 ADD SWAP2 JUMPDEST POP POP POP POP POP SWAP1 DUP1 PUSH1 0x2 ADD SLOAD SWAP1 DUP1 PUSH1 0x3 ADD SLOAD SWAP1 DUP1 PUSH1 0x4 ADD SLOAD SWAP1 DUP1 PUSH1 0x5 ADD SLOAD SWAP1 DUP1 PUSH1 0x6 ADD PUSH0 SWAP1 SLOAD SWAP1 PUSH2 0x100 EXP SWAP1 DIV PUSH1 0xFF AND SWAP1 DUP1 PUSH1 0x6 ADD PUSH1 0x1 SWAP1 SLOAD SWAP1 PUSH2 0x100 EXP SWAP1 DIV PUSH1 0xFF AND SWAP1 POP DUP9 JUMP JUMPDEST PUSH0 DUP1 SLOAD SWAP1 PUSH2 0x100 EXP SWAP1 DIV PUSH20 0xFFFFFFFFFFFFFFFFFFFFFFFFFFFFFFFFFFFFFFFF AND PUSH20 0xFFFFFFFFFFFFFFFFFFFFFFFFFFFFFFFFFFFFFFFF AND CALLER PUSH20 0xFFFFFFFFFFFFFFFFFFFFFFFFFFFFFFFFFFFFFFFF AND EQ PUSH2 0x4C6 JUMPI PUSH1 0x40 MLOAD PUSH32 0x8C379A000000000000000000000000000000000000000000000000000000000 DUP2 MSTORE PUSH1 0x4 ADD PUSH2 0x4BD SWAP1 PUSH2 0x12A9 JUMP JUMPDEST PUSH1 0x40 MLOAD DUP1 SWAP2 SUB SWAP1 REVERT JUMPDEST PUSH1 0x1 DUP1 PUSH0 DUP3 DUP3 SLOAD PUSH2 0x4D7 SWAP2 SWAP1 PUSH2 0x1351 JUMP JUMPDEST SWAP3 POP POP DUP2 SWAP1 SSTORE POP PUSH1 0x40 MLOAD DUP1 PUSH2 0x100 ADD PUSH1 0x40 MSTORE DUP1 DUP7 DUP7 DUP1 DUP1 PUSH1 0x1F ADD PUSH1 0x20 DUP1 SWAP2 DIV MUL PUSH1 0x20 ADD PUSH1 0x40 MLOAD SWAP1 DUP2 ADD PUSH1 0x40 MSTORE DUP1 SWAP4 SWAP3 SWAP2 SWAP1 DUP2 DUP2 MSTORE PUSH1 0x20 ADD DUP4 DUP4 DUP1 DUP3 DUP5 CALLDATACOPY PUSH0 DUP2 DUP5 ADD MSTORE PUSH1 0x1F NOT PUSH1 0x1F DUP3 ADD AND SWAP1 POP DUP1 DUP4 ADD SWAP3 POP POP POP POP POP POP POP DUP2 MSTORE PUSH1 0x20 ADD DUP5 DUP5 DUP1 DUP1 PUSH1 0x1F ADD PUSH1 0x20 DUP1 SWAP2 DIV MUL PUSH1 0x20 ADD PUSH1 0x40 MLOAD SWAP1 DUP2 ADD PUSH1 0x40 MSTORE DUP1 SWAP4 SWAP3 SWAP2 SWAP1 DUP2 DUP2 MSTORE PUSH1 0x20 ADD DUP4 DUP4 DUP1 DUP3 DUP5 CALLDATACOPY PUSH0 DUP2 DUP5 ADD MSTORE PUSH1 0x1F NOT PUSH1 0x1F DUP3 ADD AND SWAP1 POP DUP1 DUP4 ADD SWAP3 POP POP POP POP POP POP POP DUP2 MSTORE PUSH1 0x20 ADD PUSH0 DUP2 MSTORE PUSH1 0x20 ADD PUSH0 DUP2 MSTORE PUSH1 0x20 ADD PUSH0 DUP2 MSTORE PUSH1 0x20 ADD DUP3 DUP2 MSTORE PUSH1 0x20 ADD PUSH0 ISZERO ISZERO DUP2 MSTORE PUSH1 0x20 ADD PUSH1 0x1 ISZERO ISZERO DUP2 MSTORE POP PUSH1 0x2 PUSH0 PUSH1 0x1 SLOAD DUP2 MSTORE PUSH1 0x20 ADD SWAP1 DUP2 MSTORE PUSH1 0x20 ADD PUSH0 KECCAK256 PUSH0 DUP3 ADD MLOAD DUP2 PUSH0 ADD SWAP1 DUP2 PUSH2 0x5C9 SWAP2 SWAP1 PUSH2 0x154E JUMP JUMPDEST POP PUSH1 0x20 DUP3 ADD MLOAD DUP2 PUSH1 0x1 ADD SWAP1 DUP2 PUSH2 0x5DF SWAP2 SWAP1 PUSH2 0x154E JUMP JUMPDEST POP PUSH1 0x40 DUP3 ADD MLOAD DUP2 PUSH1 0x2 ADD SSTORE PUSH1 0x60 DUP3 ADD MLOAD DUP2 PUSH1 0x3 ADD SSTORE PUSH1 0x80 DUP3 ADD MLOAD DUP2 PUSH1 0x4 ADD SSTORE PUSH1 0xA0 DUP3 ADD MLOAD DUP2 PUSH1 0x5 ADD SSTORE PUSH1 0xC0 DUP3 ADD MLOAD DUP2 PUSH1 0x6 ADD PUSH0 PUSH2 0x100 EXP DUP2 SLOAD DUP2 PUSH1 0xFF MUL NOT AND SWAP1 DUP4 ISZERO ISZERO MUL OR SWAP1 SSTORE POP PUSH1 0xE0 DUP3 ADD MLOAD DUP2 PUSH1 0x6 ADD PUSH1 0x1 PUSH2 0x100 EXP DUP2 SLOAD DUP2 PUSH1 0xFF MUL NOT AND SWAP1 DUP4 ISZERO ISZERO MUL OR SWAP1 SSTORE POP SWAP1 POP POP POP POP POP POP POP JUMP JUMPDEST PUSH2 0x659 PUSH2 0xCBC JUMP JUMPDEST PUSH1 0x2 PUSH0 PUSH1 0x1 SLOAD DUP2 MSTORE PUSH1 0x20 ADD SWAP1 DUP2 MSTORE PUSH1 0x20 ADD PUSH0 KECCAK256 PUSH1 0x40 MLOAD DUP1 PUSH2 0x100 ADD PUSH1 0x40 MSTORE SWAP1 DUP2 PUSH0 DUP3 ADD DUP1 SLOAD PUSH2 0x687 SWAP1 PUSH2 0x12F4 JUMP JUMPDEST DUP1 PUSH1 0x1F ADD PUSH1 0x20 DUP1 SWAP2 DIV MUL PUSH1 0x20 ADD PUSH1 0x40 MLOAD SWAP1 DUP2 ADD PUSH1 0x40 MSTORE DUP1 SWAP3 SWAP2 SWAP1 DUP2 DUP2 MSTORE PUSH1 0x20 ADD DUP3 DUP1 SLOAD PUSH2 0x6B3 SWAP1 PUSH2 0x12F4 JUMP JUMPDEST DUP1 ISZERO PUSH2 0x6FE JUMPI DUP1 PUSH1 0x1F LT PUSH2 0x6D5 JUMPI PUSH2 0x100 DUP1 DUP4 SLOAD DIV MUL DUP4 MSTORE SWAP2 PUSH1 0x20 ADD SWAP2 PUSH2 0x6FE JUMP JUMPDEST DUP3 ADD SWAP2 SWAP1 PUSH0 MSTORE PUSH1 0x20 PUSH0 KECCAK256 SWAP1 JUMPDEST DUP2 SLOAD DUP2 MSTORE SWAP1 PUSH1 0x1 ADD SWAP1 PUSH1 0x20 ADD DUP1 DUP4 GT PUSH2 0x6E1 JUMPI DUP3 SWAP1 SUB PUSH1 0x1F AND DUP3 ADD SWAP2 JUMPDEST POP POP POP POP POP DUP2 MSTORE PUSH1 0x20 ADD PUSH1 0x1 DUP3 ADD DUP1 SLOAD PUSH2 0x717 SWAP1 PUSH2 0x12F4 JUMP JUMPDEST DUP1 PUSH1 0x1F ADD PUSH1 0x20 DUP1 SWAP2 DIV MUL PUSH1 0x20 ADD PUSH1 0x40 MLOAD SWAP1 DUP2 ADD PUSH1 0x40 MSTORE DUP1 SWAP3 SWAP2 SWAP1 DUP2 DUP2 MSTORE PUSH1 0x20 ADD DUP3 DUP1 SLOAD PUSH2 0x743 SWAP1 PUSH2 0x12F4 JUMP JUMPDEST DUP1 ISZERO PUSH2 0x78E JUMPI DUP1 PUSH1 0x1F LT PUSH2 0x765 JUMPI PUSH2 0x100 DUP1 DUP4 SLOAD DIV MUL DUP4 MSTORE SWAP2 PUSH1 0x20 ADD SWAP2 PUSH2 0x78E JUMP JUMPDEST DUP3 ADD SWAP2 SWAP1 PUSH0 MSTORE PUSH1 0x20 PUSH0 KECCAK256 SWAP1 JUMPDEST DUP2 SLOAD DUP2 MSTORE SWAP1 PUSH1 0x1 ADD SWAP1 PUSH1 0x20 ADD DUP1 DUP4 GT PUSH2 0x771 JUMPI DUP3 SWAP1 SUB PUSH1 0x1F AND DUP3 ADD SWAP2 JUMPDEST POP POP POP POP POP DUP2 MSTORE PUSH1 0x20 ADD PUSH1 0x2 DUP3 ADD SLOAD DUP2 MSTORE PUSH1 0x20 ADD PUSH1 0x3 DUP3 ADD SLOAD DUP2 MSTORE PUSH1 0x20 ADD PUSH1 0x4 DUP3 ADD SLOAD DUP2 MSTORE PUSH1 0x20 ADD PUSH1 0x5 DUP3 ADD SLOAD DUP2 MSTORE PUSH1 0x20 ADD PUSH1 0x6 DUP3 ADD PUSH0 SWAP1 SLOAD SWAP1 PUSH2 0x100 EXP SWAP1 DIV PUSH1 0xFF AND ISZERO ISZERO ISZERO ISZERO DUP2 MSTORE PUSH1 0x20 ADD PUSH1 0x6 DUP3 ADD PUSH1 0x1 SWAP1 SLOAD SWAP1 PUSH2 0x100 EXP SWAP1 DIV PUSH1 0xFF AND ISZERO ISZERO ISZERO ISZERO DUP2 MSTORE POP POP SWAP1 POP SWAP1 JUMP JUMPDEST PUSH0 DUP3 PUSH1 0x3 PUSH0 DUP5 PUSH20 0xFFFFFFFFFFFFFFFFFFFFFFFFFFFFFFFFFFFFFFFF AND PUSH20 0xFFFFFFFFFFFFFFFFFFFFFFFFFFFFFFFFFFFFFFFF AND DUP2 MSTORE PUSH1 0x20 ADD SWAP1 DUP2 MSTORE PUSH1 0x20 ADD PUSH0 KECCAK256 SLOAD LT ISZERO SWAP1 POP SWAP3 SWAP2 POP POP JUMP JUMPDEST PUSH0 DUP1 SLOAD SWAP1 PUSH2 0x100 EXP SWAP1 DIV PUSH20 0xFFFFFFFFFFFFFFFFFFFFFFFFFFFFFFFFFFFFFFFF AND DUP2 JUMP JUMPDEST DUP2 PUSH1 0x2 PUSH0 DUP3 DUP2 MSTORE PUSH1 0x20 ADD SWAP1 DUP2 MSTORE PUSH1 0x20 ADD PUSH0 KECCAK256 PUSH1 0x6 ADD PUSH1 0x1 SWAP1 SLOAD SWAP1 PUSH2 0x100 EXP SWAP1 DIV PUSH1 0xFF AND PUSH2 0x8C8 JUMPI PUSH1 0x40 MLOAD PUSH32 0x8C379A000000000000000000000000000000000000000000000000000000000 DUP2 MSTORE PUSH1 0x4 ADD PUSH2 0x8BF SWAP1 PUSH2 0x1667 JUMP JUMPDEST PUSH1 0x40 MLOAD DUP1 SWAP2 SUB SWAP1 REVERT JUMPDEST DUP3 DUP1 PUSH1 0x3 PUSH0 CALLER PUSH20 0xFFFFFFFFFFFFFFFFFFFFFFFFFFFFFFFFFFFFFFFF AND PUSH20 0xFFFFFFFFFFFFFFFFFFFFFFFFFFFFFFFFFFFFFFFF AND DUP2 MSTORE PUSH1 0x20 ADD SWAP1 DUP2 MSTORE PUSH1 0x20 ADD PUSH0 KECCAK256 SLOAD LT PUSH2 0x948 JUMPI PUSH1 0x40 MLOAD PUSH32 0x8C379A000000000000000000000000000000000000000000000000000000000 DUP2 MSTORE PUSH1 0x4 ADD PUSH2 0x93F SWAP1 PUSH2 0x16F5 JUMP JUMPDEST PUSH1 0x40 MLOAD DUP1 SWAP2 SUB SWAP1 REVERT JUMPDEST PUSH0 PUSH1 0x2 PUSH0 DUP7 DUP2 MSTORE PUSH1 0x20 ADD SWAP1 DUP2 MSTORE PUSH1 0x20 ADD PUSH0 KECCAK256 SWAP1 POP PUSH1 0x2 DUP5 PUSH1 0xFF AND GT ISZERO PUSH2 0x9A3 JUMPI PUSH1 0x40 MLOAD PUSH32 0x8C379A000000000000000000000000000000000000000000000000000000000 DUP2 MSTORE PUSH1 0x4 ADD PUSH2 0x99A SWAP1 PUSH2 0x175D JUMP JUMPDEST PUSH1 0x40 MLOAD DUP1 SWAP2 SUB SWAP1 REVERT JUMPDEST DUP5 PUSH1 0x3 PUSH0 CALLER PUSH20 0xFFFFFFFFFFFFFFFFFFFFFFFFFFFFFFFFFFFFFFFF AND PUSH20 0xFFFFFFFFFFFFFFFFFFFFFFFFFFFFFFFFFFFFFFFF AND DUP2 MSTORE PUSH1 0x20 ADD SWAP1 DUP2 MSTORE PUSH1 0x20 ADD PUSH0 KECCAK256 DUP2 SWAP1 SSTORE POP PUSH1 0x1 DUP5 PUSH1 0xFF AND SUB PUSH2 0xA10 JUMPI PUSH1 0x1 DUP2 PUSH1 0x2 ADD PUSH0 DUP3 DUP3 SLOAD PUSH2 0xA04 SWAP2 SWAP1 PUSH2 0x1351 JUMP JUMPDEST SWAP3 POP POP DUP2 SWAP1 SSTORE POP PUSH2 0xA58 JUMP JUMPDEST PUSH1 0x2 DUP5 PUSH1 0xFF AND SUB PUSH2 0xA3B JUMPI PUSH1 0x1 DUP2 PUSH1 0x3 ADD PUSH0 DUP3 DUP3 SLOAD PUSH2 0xA2F SWAP2 SWAP1 PUSH2 0x1351 JUMP JUMPDEST SWAP3 POP POP DUP2 SWAP1 SSTORE POP PUSH2 0xA57 JUMP JUMPDEST PUSH1 0x1 DUP2 PUSH1 0x4 ADD PUSH0 DUP3 DUP3 SLOAD PUSH2 0xA4F SWAP2 SWAP1 PUSH2 0x1351 JUMP JUMPDEST SWAP3 POP POP DUP2 SWAP1 SSTORE POP JUMPDEST JUMPDEST PUSH0 DUP2 PUSH1 0x4 ADD SLOAD DUP3 PUSH1 0x3 ADD SLOAD DUP4 PUSH1 0x2 ADD SLOAD PUSH2 0xA72 SWAP2 SWAP1 PUSH2 0x1351 JUMP JUMPDEST PUSH2 0xA7C SWAP2 SWAP1 PUSH2 0x1351 JUMP JUMPDEST SWAP1 POP DUP2 PUSH1 0x5 ADD SLOAD DUP2 LT PUSH2 0xAC9 JUMPI PUSH0 DUP3 PUSH1 0x6 ADD PUSH1 0x1 PUSH2 0x100 EXP DUP2 SLOAD DUP2 PUSH1 0xFF MUL NOT AND SWAP1 DUP4 ISZERO ISZERO MUL OR SWAP1 SSTORE POP PUSH2 0xAAE DUP7 PUSH2 0xC79 JUMP JUMPDEST DUP3 PUSH1 0x6 ADD PUSH0 PUSH2 0x100 EXP DUP2 SLOAD DUP2 PUSH1 0xFF MUL NOT AND SWAP1 DUP4 ISZERO ISZERO MUL OR SWAP1 SSTORE POP JUMPDEST POP POP POP POP POP POP JUMP JUMPDEST PUSH2 0xAD9 PUSH2 0xCBC JUMP JUMPDEST PUSH1 0x2 PUSH0 DUP4 DUP2 MSTORE PUSH1 0x20 ADD SWAP1 DUP2 MSTORE PUSH1 0x20 ADD PUSH0 KECCAK256 PUSH1 0x40 MLOAD DUP1 PUSH2 0x100 ADD PUSH1 0x40 MSTORE SWAP1 DUP2 PUSH0 DUP3 ADD DUP1 SLOAD PUSH2 0xB05 SWAP1 PUSH2 0x12F4 JUMP JUMPDEST DUP1 PUSH1 0x1F ADD PUSH1 0x20 DUP1 SWAP2 DIV MUL PUSH1 0x20 ADD PUSH1 0x40 MLOAD SWAP1 DUP2 ADD PUSH1 0x40 MSTORE DUP1 SWAP3 SWAP2 SWAP1 DUP2 DUP2 MSTORE PUSH1 0x20 ADD DUP3 DUP1 SLOAD PUSH2 0xB31 SWAP1 PUSH2 0x12F4 JUMP JUMPDEST DUP1 ISZERO PUSH2 0xB7C JUMPI DUP1 PUSH1 0x1F LT PUSH2 0xB53 JUMPI PUSH2 0x100 DUP1 DUP4 SLOAD DIV MUL DUP4 MSTORE SWAP2 PUSH1 0x20 ADD SWAP2 PUSH2 0xB7C JUMP JUMPDEST DUP3 ADD SWAP2 SWAP1 PUSH0 MSTORE PUSH1 0x20 PUSH0 KECCAK256 SWAP1 JUMPDEST DUP2 SLOAD DUP2 MSTORE SWAP1 PUSH1 0x1 ADD SWAP1 PUSH1 0x20 ADD DUP1 DUP4 GT PUSH2 0xB5F JUMPI DUP3 SWAP1 SUB PUSH1 0x1F AND DUP3 ADD SWAP2 JUMPDEST POP POP POP POP POP DUP2 MSTORE PUSH1 0x20 ADD PUSH1 0x1 DUP3 ADD DUP1 SLOAD PUSH2 0xB95 SWAP1 PUSH2 0x12F4 JUMP JUMPDEST DUP1 PUSH1 0x1F ADD PUSH1 0x20 DUP1 SWAP2 DIV MUL PUSH1 0x20 ADD PUSH1 0x40 MLOAD SWAP1 DUP2 ADD PUSH1 0x40 MSTORE DUP1 SWAP3 SWAP2 SWAP1 DUP2 DUP2 MSTORE PUSH1 0x20 ADD DUP3 DUP1 SLOAD PUSH2 0xBC1 SWAP1 PUSH2 0x12F4 JUMP JUMPDEST DUP1 ISZERO PUSH2 0xC0C JUMPI DUP1 PUSH1 0x1F LT PUSH2 0xBE3 JUMPI PUSH2 0x100 DUP1 DUP4 SLOAD DIV MUL DUP4 MSTORE SWAP2 PUSH1 0x20 ADD SWAP2 PUSH2 0xC0C JUMP JUMPDEST DUP3 ADD SWAP2 SWAP1 PUSH0 MSTORE PUSH1 0x20 PUSH0 KECCAK256 SWAP1 JUMPDEST DUP2 SLOAD DUP2 MSTORE SWAP1 PUSH1 0x1 ADD SWAP1 PUSH1 0x20 ADD DUP1 DUP4 GT PUSH2 0xBEF JUMPI DUP3 SWAP1 SUB PUSH1 0x1F AND DUP3 ADD SWAP2 JUMPDEST POP POP POP POP POP DUP2 MSTORE PUSH1 0x20 ADD PUSH1 0x2 DUP3 ADD SLOAD DUP2 MSTORE PUSH1 0x20 ADD PUSH1 0x3 DUP3 ADD SLOAD DUP2 MSTORE PUSH1 0x20 ADD PUSH1 0x4 DUP3 ADD SLOAD DUP2 MSTORE PUSH1 0x20 ADD PUSH1 0x5 DUP3 ADD SLOAD DUP2 MSTORE PUSH1 0x20 ADD PUSH1 0x6 DUP3 ADD PUSH0 SWAP1 SLOAD SWAP1 PUSH2 0x100 EXP SWAP1 DIV PUSH1 0xFF AND ISZERO ISZERO ISZERO ISZERO DUP2 MSTORE PUSH1 0x20 ADD PUSH1 0x6 DUP3 ADD PUSH1 0x1 SWAP1 SLOAD SWAP1 PUSH2 0x100 EXP SWAP1 DIV PUSH1 0xFF AND ISZERO ISZERO ISZERO ISZERO DUP2 MSTORE POP POP SWAP1 POP SWAP2 SWAP1 POP JUMP JUMPDEST PUSH0 DUP1 PUSH1 0x2 PUSH0 DUP5 DUP2 MSTORE PUSH1 0x20 ADD SWAP1 DUP2 MSTORE PUSH1 0x20 ADD PUSH0 KECCAK256 SWAP1 POP PUSH1 0x2 DUP2 PUSH1 0x4 ADD SLOAD PUSH2 0xC9F SWAP2 SWAP1 PUSH2 0x17A8 JUMP JUMPDEST DUP2 PUSH1 0x3 ADD SLOAD PUSH2 0xCAE SWAP2 SWAP1 PUSH2 0x1351 JUMP JUMPDEST DUP2 PUSH1 0x2 ADD SLOAD GT SWAP2 POP POP SWAP2 SWAP1 POP JUMP JUMPDEST PUSH1 0x40 MLOAD DUP1 PUSH2 0x100 ADD PUSH1 0x40 MSTORE DUP1 PUSH1 0x60 DUP2 MSTORE PUSH1 0x20 ADD PUSH1 0x60 DUP2 MSTORE PUSH1 0x20 ADD PUSH0 DUP2 MSTORE PUSH1 0x20 ADD PUSH0 DUP2 MSTORE PUSH1 0x20 ADD PUSH0 DUP2 MSTORE PUSH1 0x20 ADD PUSH0 DUP2 MSTORE PUSH1 0x20 ADD PUSH0 ISZERO ISZERO DUP2 MSTORE PUSH1 0x20 ADD PUSH0 ISZERO ISZERO DUP2 MSTORE POP SWAP1 JUMP JUMPDEST PUSH0 DUP1 REVERT JUMPDEST PUSH0 DUP1 REVERT JUMPDEST PUSH0 PUSH20 0xFFFFFFFFFFFFFFFFFFFFFFFFFFFFFFFFFFFFFFFF DUP3 AND SWAP1 POP SWAP2 SWAP1 POP JUMP JUMPDEST PUSH0 PUSH2 0xD30 DUP3 PUSH2 0xD07 JUMP JUMPDEST SWAP1 POP SWAP2 SWAP1 POP JUMP JUMPDEST PUSH2 0xD40 DUP2 PUSH2 0xD26 JUMP JUMPDEST DUP2 EQ PUSH2 0xD4A JUMPI PUSH0 DUP1 REVERT JUMPDEST POP JUMP JUMPDEST PUSH0 DUP2 CALLDATALOAD SWAP1 POP PUSH2 0xD5B DUP2 PUSH2 0xD37 JUMP JUMPDEST SWAP3 SWAP2 POP POP JUMP JUMPDEST PUSH0 PUSH1 0x20 DUP3 DUP5 SUB SLT ISZERO PUSH2 0xD76 JUMPI PUSH2 0xD75 PUSH2 0xCFF JUMP JUMPDEST JUMPDEST PUSH0 PUSH2 0xD83 DUP5 DUP3 DUP6 ADD PUSH2 0xD4D JUMP JUMPDEST SWAP2 POP POP SWAP3 SWAP2 POP POP JUMP JUMPDEST PUSH0 DUP2 SWAP1 POP SWAP2 SWAP1 POP JUMP JUMPDEST PUSH2 0xD9E DUP2 PUSH2 0xD8C JUMP JUMPDEST DUP3 MSTORE POP POP JUMP JUMPDEST PUSH0 PUSH1 0x20 DUP3 ADD SWAP1 POP PUSH2 0xDB7 PUSH0 DUP4 ADD DUP5 PUSH2 0xD95 JUMP JUMPDEST SWAP3 SWAP2 POP POP JUMP JUMPDEST PUSH2 0xDC6 DUP2 PUSH2 0xD8C JUMP JUMPDEST DUP2 EQ PUSH2 0xDD0 JUMPI PUSH0 DUP1 REVERT JUMPDEST POP JUMP JUMPDEST PUSH0 DUP2 CALLDATALOAD SWAP1 POP PUSH2 0xDE1 DUP2 PUSH2 0xDBD JUMP JUMPDEST SWAP3 SWAP2 POP POP JUMP JUMPDEST PUSH0 PUSH1 0x20 DUP3 DUP5 SUB SLT ISZERO PUSH2 0xDFC JUMPI PUSH2 0xDFB PUSH2 0xCFF JUMP JUMPDEST JUMPDEST PUSH0 PUSH2 0xE09 DUP5 DUP3 DUP6 ADD PUSH2 0xDD3 JUMP JUMPDEST SWAP2 POP POP SWAP3 SWAP2 POP POP JUMP JUMPDEST PUSH0 DUP2 MLOAD SWAP1 POP SWAP2 SWAP1 POP JUMP JUMPDEST PUSH0 DUP3 DUP3 MSTORE PUSH1 0x20 DUP3 ADD SWAP1 POP SWAP3 SWAP2 POP POP JUMP JUMPDEST PUSH0 JUMPDEST DUP4 DUP2 LT ISZERO PUSH2 0xE49 JUMPI DUP1 DUP3 ADD MLOAD DUP2 DUP5 ADD MSTORE PUSH1 0x20 DUP2 ADD SWAP1 POP PUSH2 0xE2E JUMP JUMPDEST PUSH0 DUP5 DUP5 ADD MSTORE POP POP POP POP JUMP JUMPDEST PUSH0 PUSH1 0x1F NOT PUSH1 0x1F DUP4 ADD AND SWAP1 POP SWAP2 SWAP1 POP JUMP JUMPDEST PUSH0 PUSH2 0xE6E DUP3 PUSH2 0xE12 JUMP JUMPDEST PUSH2 0xE78 DUP2 DUP6 PUSH2 0xE1C JUMP JUMPDEST SWAP4 POP PUSH2 0xE88 DUP2 DUP6 PUSH1 0x20 DUP7 ADD PUSH2 0xE2C JUMP JUMPDEST PUSH2 0xE91 DUP2 PUSH2 0xE54 JUMP JUMPDEST DUP5 ADD SWAP2 POP POP SWAP3 SWAP2 POP POP JUMP JUMPDEST PUSH0 DUP2 ISZERO ISZERO SWAP1 POP SWAP2 SWAP1 POP JUMP JUMPDEST PUSH2 0xEB0 DUP2 PUSH2 0xE9C JUMP JUMPDEST DUP3 MSTORE POP POP JUMP JUMPDEST PUSH0 PUSH2 0x100 DUP3 ADD SWAP1 POP DUP2 DUP2 SUB PUSH0 DUP4 ADD MSTORE PUSH2 0xECF DUP2 DUP12 PUSH2 0xE64 JUMP JUMPDEST SWAP1 POP DUP2 DUP2 SUB PUSH1 0x20 DUP4 ADD MSTORE PUSH2 0xEE3 DUP2 DUP11 PUSH2 0xE64 JUMP JUMPDEST SWAP1 POP PUSH2 0xEF2 PUSH1 0x40 DUP4 ADD DUP10 PUSH2 0xD95 JUMP JUMPDEST PUSH2 0xEFF PUSH1 0x60 DUP4 ADD DUP9 PUSH2 0xD95 JUMP JUMPDEST PUSH2 0xF0C PUSH1 0x80 DUP4 ADD DUP8 PUSH2 0xD95 JUMP JUMPDEST PUSH2 0xF19 PUSH1 0xA0 DUP4 ADD DUP7 PUSH2 0xD95 JUMP JUMPDEST PUSH2 0xF26 PUSH1 0xC0 DUP4 ADD DUP6 PUSH2 0xEA7 JUMP JUMPDEST PUSH2 0xF33 PUSH1 0xE0 DUP4 ADD DUP5 PUSH2 0xEA7 JUMP JUMPDEST SWAP10 SWAP9 POP POP POP POP POP POP POP POP POP JUMP JUMPDEST PUSH0 DUP1 REVERT JUMPDEST PUSH0 DUP1 REVERT JUMPDEST PUSH0 DUP1 REVERT JUMPDEST PUSH0 DUP1 DUP4 PUSH1 0x1F DUP5 ADD SLT PUSH2 0xF61 JUMPI PUSH2 0xF60 PUSH2 0xF40 JUMP JUMPDEST JUMPDEST DUP3 CALLDATALOAD SWAP1 POP PUSH8 0xFFFFFFFFFFFFFFFF DUP2 GT ISZERO PUSH2 0xF7E JUMPI PUSH2 0xF7D PUSH2 0xF44 JUMP JUMPDEST JUMPDEST PUSH1 0x20 DUP4 ADD SWAP2 POP DUP4 PUSH1 0x1 DUP3 MUL DUP4 ADD GT ISZERO PUSH2 0xF9A JUMPI PUSH2 0xF99 PUSH2 0xF48 JUMP JUMPDEST JUMPDEST SWAP3 POP SWAP3 SWAP1 POP JUMP JUMPDEST PUSH0 DUP1 PUSH0 DUP1 PUSH0 PUSH1 0x60 DUP7 DUP9 SUB SLT ISZERO PUSH2 0xFBA JUMPI PUSH2 0xFB9 PUSH2 0xCFF JUMP JUMPDEST JUMPDEST PUSH0 DUP7 ADD CALLDATALOAD PUSH8 0xFFFFFFFFFFFFFFFF DUP2 GT ISZERO PUSH2 0xFD7 JUMPI PUSH2 0xFD6 PUSH2 0xD03 JUMP JUMPDEST JUMPDEST PUSH2 0xFE3 DUP9 DUP3 DUP10 ADD PUSH2 0xF4C JUMP JUMPDEST SWAP6 POP SWAP6 POP POP PUSH1 0x20 DUP7 ADD CALLDATALOAD PUSH8 0xFFFFFFFFFFFFFFFF DUP2 GT ISZERO PUSH2 0x1006 JUMPI PUSH2 0x1005 PUSH2 0xD03 JUMP JUMPDEST JUMPDEST PUSH2 0x1012 DUP9 DUP3 DUP10 ADD PUSH2 0xF4C JUMP JUMPDEST SWAP4 POP SWAP4 POP POP PUSH1 0x40 PUSH2 0x1025 DUP9 DUP3 DUP10 ADD PUSH2 0xDD3 JUMP JUMPDEST SWAP2 POP POP SWAP3 SWAP6 POP SWAP3 SWAP6 SWAP1 SWAP4 POP JUMP JUMPDEST PUSH0 DUP3 DUP3 MSTORE PUSH1 0x20 DUP3 ADD SWAP1 POP SWAP3 SWAP2 POP POP JUMP JUMPDEST PUSH0 PUSH2 0x104C DUP3 PUSH2 0xE12 JUMP JUMPDEST PUSH2 0x1056 DUP2 DUP6 PUSH2 0x1032 JUMP JUMPDEST SWAP4 POP PUSH2 0x1066 DUP2 DUP6 PUSH1 0x20 DUP7 ADD PUSH2 0xE2C JUMP JUMPDEST PUSH2 0x106F DUP2 PUSH2 0xE54 JUMP JUMPDEST DUP5 ADD SWAP2 POP POP SWAP3 SWAP2 POP POP JUMP JUMPDEST PUSH2 0x1083 DUP2 PUSH2 0xD8C JUMP JUMPDEST DUP3 MSTORE POP POP JUMP JUMPDEST PUSH2 0x1092 DUP2 PUSH2 0xE9C JUMP JUMPDEST DUP3 MSTORE POP POP JUMP JUMPDEST PUSH0 PUSH2 0x100 DUP4 ADD PUSH0 DUP4 ADD MLOAD DUP5 DUP3 SUB PUSH0 DUP7 ADD MSTORE PUSH2 0x10B3 DUP3 DUP3 PUSH2 0x1042 JUMP JUMPDEST SWAP2 POP POP PUSH1 0x20 DUP4 ADD MLOAD DUP5 DUP3 SUB PUSH1 0x20 DUP7 ADD MSTORE PUSH2 0x10CD DUP3 DUP3 PUSH2 0x1042 JUMP JUMPDEST SWAP2 POP POP PUSH1 0x40 DUP4 ADD MLOAD PUSH2 0x10E2 PUSH1 0x40 DUP7 ADD DUP3 PUSH2 0x107A JUMP JUMPDEST POP PUSH1 0x60 DUP4 ADD MLOAD PUSH2 0x10F5 PUSH1 0x60 DUP7 ADD DUP3 PUSH2 0x107A JUMP JUMPDEST POP PUSH1 0x80 DUP4 ADD MLOAD PUSH2 0x1108 PUSH1 0x80 DUP7 ADD DUP3 PUSH2 0x107A JUMP JUMPDEST POP PUSH1 0xA0 DUP4 ADD MLOAD PUSH2 0x111B PUSH1 0xA0 DUP7 ADD DUP3 PUSH2 0x107A JUMP JUMPDEST POP PUSH1 0xC0 DUP4 ADD MLOAD PUSH2 0x112E PUSH1 0xC0 DUP7 ADD DUP3 PUSH2 0x1089 JUMP JUMPDEST POP PUSH1 0xE0 DUP4 ADD MLOAD PUSH2 0x1141 PUSH1 0xE0 DUP7 ADD DUP3 PUSH2 0x1089 JUMP JUMPDEST POP DUP1 SWAP2 POP POP SWAP3 SWAP2 POP POP JUMP JUMPDEST PUSH0 PUSH1 0x20 DUP3 ADD SWAP1 POP DUP2 DUP2 SUB PUSH0 DUP4 ADD MSTORE PUSH2 0x1164 DUP2 DUP5 PUSH2 0x1098 JUMP JUMPDEST SWAP1 POP SWAP3 SWAP2 POP POP JUMP JUMPDEST PUSH0 DUP1 PUSH1 0x40 DUP4 DUP6 SUB SLT ISZERO PUSH2 0x1182 JUMPI PUSH2 0x1181 PUSH2 0xCFF JUMP JUMPDEST JUMPDEST PUSH0 PUSH2 0x118F DUP6 DUP3 DUP7 ADD PUSH2 0xDD3 JUMP JUMPDEST SWAP3 POP POP PUSH1 0x20 PUSH2 0x11A0 DUP6 DUP3 DUP7 ADD PUSH2 0xD4D JUMP JUMPDEST SWAP2 POP POP SWAP3 POP SWAP3 SWAP1 POP JUMP JUMPDEST PUSH0 PUSH1 0x20 DUP3 ADD SWAP1 POP PUSH2 0x11BD PUSH0 DUP4 ADD DUP5 PUSH2 0xEA7 JUMP JUMPDEST SWAP3 SWAP2 POP POP JUMP JUMPDEST PUSH2 0x11CC DUP2 PUSH2 0xD26 JUMP JUMPDEST DUP3 MSTORE POP POP JUMP JUMPDEST PUSH0 PUSH1 0x20 DUP3 ADD SWAP1 POP PUSH2 0x11E5 PUSH0 DUP4 ADD DUP5 PUSH2 0x11C3 JUMP JUMPDEST SWAP3 SWAP2 POP POP JUMP JUMPDEST PUSH0 PUSH1 0xFF DUP3 AND SWAP1 POP SWAP2 SWAP1 POP JUMP JUMPDEST PUSH2 0x1200 DUP2 PUSH2 0x11EB JUMP JUMPDEST DUP2 EQ PUSH2 0x120A JUMPI PUSH0 DUP1 REVERT JUMPDEST POP JUMP JUMPDEST PUSH0 DUP2 CALLDATALOAD SWAP1 POP PUSH2 0x121B DUP2 PUSH2 0x11F7 JUMP JUMPDEST SWAP3 SWAP2 POP POP JUMP JUMPDEST PUSH0 DUP1 PUSH1 0x40 DUP4 DUP6 SUB SLT ISZERO PUSH2 0x1237 JUMPI PUSH2 0x1236 PUSH2 0xCFF JUMP JUMPDEST JUMPDEST PUSH0 PUSH2 0x1244 DUP6 DUP3 DUP7 ADD PUSH2 0xDD3 JUMP JUMPDEST SWAP3 POP POP PUSH1 0x20 PUSH2 0x1255 DUP6 DUP3 DUP7 ADD PUSH2 0x120D JUMP JUMPDEST SWAP2 POP POP SWAP3 POP SWAP3 SWAP1 POP JUMP JUMPDEST PUSH32 0x4F6E6C7920746865206F776E65722063616E206578656375746520746869732E PUSH0 DUP3 ADD MSTORE POP JUMP JUMPDEST PUSH0 PUSH2 0x1293 PUSH1 0x20 DUP4 PUSH2 0xE1C JUMP JUMPDEST SWAP2 POP PUSH2 0x129E DUP3 PUSH2 0x125F JUMP JUMPDEST PUSH1 0x20 DUP3 ADD SWAP1 POP SWAP2 SWAP1 POP JUMP JUMPDEST PUSH0 PUSH1 0x20 DUP3 ADD SWAP1 POP DUP2 DUP2 SUB PUSH0 DUP4 ADD MSTORE PUSH2 0x12C0 DUP2 PUSH2 0x1287 JUMP JUMPDEST SWAP1 POP SWAP2 SWAP1 POP JUMP JUMPDEST PUSH32 0x4E487B7100000000000000000000000000000000000000000000000000000000 PUSH0 MSTORE PUSH1 0x22 PUSH1 0x4 MSTORE PUSH1 0x24 PUSH0 REVERT JUMPDEST PUSH0 PUSH1 0x2 DUP3 DIV SWAP1 POP PUSH1 0x1 DUP3 AND DUP1 PUSH2 0x130B JUMPI PUSH1 0x7F DUP3 AND SWAP2 POP JUMPDEST PUSH1 0x20 DUP3 LT DUP2 SUB PUSH2 0x131E JUMPI PUSH2 0x131D PUSH2 0x12C7 JUMP JUMPDEST JUMPDEST POP SWAP2 SWAP1 POP JUMP JUMPDEST PUSH32 0x4E487B7100000000000000000000000000000000000000000000000000000000 PUSH0 MSTORE PUSH1 0x11 PUSH1 0x4 MSTORE PUSH1 0x24 PUSH0 REVERT JUMPDEST PUSH0 PUSH2 0x135B DUP3 PUSH2 0xD8C JUMP JUMPDEST SWAP2 POP PUSH2 0x1366 DUP4 PUSH2 0xD8C JUMP JUMPDEST SWAP3 POP DUP3 DUP3 ADD SWAP1 POP DUP1 DUP3 GT ISZERO PUSH2 0x137E JUMPI PUSH2 0x137D PUSH2 0x1324 JUMP JUMPDEST JUMPDEST SWAP3 SWAP2 POP POP JUMP JUMPDEST PUSH32 0x4E487B7100000000000000000000000000000000000000000000000000000000 PUSH0 MSTORE PUSH1 0x41 PUSH1 0x4 MSTORE PUSH1 0x24 PUSH0 REVERT JUMPDEST PUSH0 DUP2 SWAP1 POP DUP2 PUSH0 MSTORE PUSH1 0x20 PUSH0 KECCAK256 SWAP1 POP SWAP2 SWAP1 POP JUMP JUMPDEST PUSH0 PUSH1 0x20 PUSH1 0x1F DUP4 ADD DIV SWAP1 POP SWAP2 SWAP1 POP JUMP JUMPDEST PUSH0 DUP3 DUP3 SHL SWAP1 POP SWAP3 SWAP2 POP POP JUMP JUMPDEST PUSH0 PUSH1 0x8 DUP4 MUL PUSH2 0x140D PUSH32 0xFFFFFFFFFFFFFFFFFFFFFFFFFFFFFFFFFFFFFFFFFFFFFFFFFFFFFFFFFFFFFFFF DUP3 PUSH2 0x13D2 JUMP JUMPDEST PUSH2 0x1417 DUP7 DUP4 PUSH2 0x13D2 JUMP JUMPDEST SWAP6 POP DUP1 NOT DUP5 AND SWAP4 POP DUP1 DUP7 AND DUP5 OR SWAP3 POP POP POP SWAP4 SWAP3 POP POP POP JUMP JUMPDEST PUSH0 DUP2 SWAP1 POP SWAP2 SWAP1 POP JUMP JUMPDEST PUSH0 PUSH2 0x1452 PUSH2 0x144D PUSH2 0x1448 DUP5 PUSH2 0xD8C JUMP JUMPDEST PUSH2 0x142F JUMP JUMPDEST PUSH2 0xD8C JUMP JUMPDEST SWAP1 POP SWAP2 SWAP1 POP JUMP JUMPDEST PUSH0 DUP2 SWAP1 POP SWAP2 SWAP1 POP JUMP JUMPDEST PUSH2 0x146B DUP4 PUSH2 0x1438 JUMP JUMPDEST PUSH2 0x147F PUSH2 0x1477 DUP3 PUSH2 0x1459 JUMP JUMPDEST DUP5 DUP5 SLOAD PUSH2 0x13DE JUMP JUMPDEST DUP3 SSTORE POP POP POP POP JUMP JUMPDEST PUSH0 SWAP1 JUMP JUMPDEST PUSH2 0x1493 PUSH2 0x1487 JUMP JUMPDEST PUSH2 0x149E DUP2 DUP5 DUP5 PUSH2 0x1462 JUMP JUMPDEST POP POP POP JUMP JUMPDEST JUMPDEST DUP2 DUP2 LT ISZERO PUSH2 0x14C1 JUMPI PUSH2 0x14B6 PUSH0 DUP3 PUSH2 0x148B JUMP JUMPDEST PUSH1 0x1 DUP2 ADD SWAP1 POP PUSH2 0x14A4 JUMP JUMPDEST POP POP JUMP JUMPDEST PUSH1 0x1F DUP3 GT ISZERO PUSH2 0x1506 JUMPI PUSH2 0x14D7 DUP2 PUSH2 0x13B1 JUMP JUMPDEST PUSH2 0x14E0 DUP5 PUSH2 0x13C3 JUMP JUMPDEST DUP2 ADD PUSH1 0x20 DUP6 LT ISZERO PUSH2 0x14EF JUMPI DUP2 SWAP1 POP JUMPDEST PUSH2 0x1503 PUSH2 0x14FB DUP6 PUSH2 0x13C3 JUMP JUMPDEST DUP4 ADD DUP3 PUSH2 0x14A3 JUMP JUMPDEST POP POP JUMPDEST POP POP POP JUMP JUMPDEST PUSH0 DUP3 DUP3 SHR SWAP1 POP SWAP3 SWAP2 POP POP JUMP JUMPDEST PUSH0 PUSH2 0x1526 PUSH0 NOT DUP5 PUSH1 0x8 MUL PUSH2 0x150B JUMP JUMPDEST NOT DUP1 DUP4 AND SWAP2 POP POP SWAP3 SWAP2 POP POP JUMP JUMPDEST PUSH0 PUSH2 0x153E DUP4 DUP4 PUSH2 0x1517 JUMP JUMPDEST SWAP2 POP DUP3 PUSH1 0x2 MUL DUP3 OR SWAP1 POP SWAP3 SWAP2 POP POP JUMP JUMPDEST PUSH2 0x1557 DUP3 PUSH2 0xE12 JUMP JUMPDEST PUSH8 0xFFFFFFFFFFFFFFFF DUP2 GT ISZERO PUSH2 0x1570 JUMPI PUSH2 0x156F PUSH2 0x1384 JUMP JUMPDEST JUMPDEST PUSH2 0x157A DUP3 SLOAD PUSH2 0x12F4 JUMP JUMPDEST PUSH2 0x1585 DUP3 DUP3 DUP6 PUSH2 0x14C5 JUMP JUMPDEST PUSH0 PUSH1 0x20 SWAP1 POP PUSH1 0x1F DUP4 GT PUSH1 0x1 DUP2 EQ PUSH2 0x15B6 JUMPI PUSH0 DUP5 ISZERO PUSH2 0x15A4 JUMPI DUP3 DUP8 ADD MLOAD SWAP1 POP JUMPDEST PUSH2 0x15AE DUP6 DUP3 PUSH2 0x1533 JUMP JUMPDEST DUP7 SSTORE POP PUSH2 0x1615 JUMP JUMPDEST PUSH1 0x1F NOT DUP5 AND PUSH2 0x15C4 DUP7 PUSH2 0x13B1 JUMP JUMPDEST PUSH0 JUMPDEST DUP3 DUP2 LT ISZERO PUSH2 0x15EB JUMPI DUP5 DUP10 ADD MLOAD DUP3 SSTORE PUSH1 0x1 DUP3 ADD SWAP2 POP PUSH1 0x20 DUP6 ADD SWAP5 POP PUSH1 0x20 DUP2 ADD SWAP1 POP PUSH2 0x15C6 JUMP JUMPDEST DUP7 DUP4 LT ISZERO PUSH2 0x1608 JUMPI DUP5 DUP10 ADD MLOAD PUSH2 0x1604 PUSH1 0x1F DUP10 AND DUP3 PUSH2 0x1517 JUMP JUMPDEST DUP4 SSTORE POP JUMPDEST PUSH1 0x1 PUSH1 0x2 DUP9 MUL ADD DUP9 SSTORE POP POP POP JUMPDEST POP POP POP POP POP POP JUMP JUMPDEST PUSH32 0x5468652070726F706F73616C206973206E6F74206163746976652E0000000000 PUSH0 DUP3 ADD MSTORE POP JUMP JUMPDEST PUSH0 PUSH2 0x1651 PUSH1 0x1B DUP4 PUSH2 0xE1C JUMP JUMPDEST SWAP2 POP PUSH2 0x165C DUP3 PUSH2 0x161D JUMP JUMPDEST PUSH1 0x20 DUP3 ADD SWAP1 POP SWAP2 SWAP1 POP JUMP JUMPDEST PUSH0 PUSH1 0x20 DUP3 ADD SWAP1 POP DUP2 DUP2 SUB PUSH0 DUP4 ADD MSTORE PUSH2 0x167E DUP2 PUSH2 0x1645 JUMP JUMPDEST SWAP1 POP SWAP2 SWAP1 POP JUMP JUMPDEST PUSH32 0x416464726573732068617320616C726561647920766F746564206F6E20746869 PUSH0 DUP3 ADD MSTORE PUSH32 0x732070726F706F73616C2E000000000000000000000000000000000000000000 PUSH1 0x20 DUP3 ADD MSTORE POP JUMP JUMPDEST PUSH0 PUSH2 0x16DF PUSH1 0x2B DUP4 PUSH2 0xE1C JUMP JUMPDEST SWAP2 POP PUSH2 0x16EA DUP3 PUSH2 0x1685 JUMP JUMPDEST PUSH1 0x40 DUP3 ADD SWAP1 POP SWAP2 SWAP1 POP JUMP JUMPDEST PUSH0 PUSH1 0x20 DUP3 ADD SWAP1 POP DUP2 DUP2 SUB PUSH0 DUP4 ADD MSTORE PUSH2 0x170C DUP2 PUSH2 0x16D3 JUMP JUMPDEST SWAP1 POP SWAP2 SWAP1 POP JUMP JUMPDEST PUSH32 0x496E76616C69642063686F6963652E0000000000000000000000000000000000 PUSH0 DUP3 ADD MSTORE POP JUMP JUMPDEST PUSH0 PUSH2 0x1747 PUSH1 0xF DUP4 PUSH2 0xE1C JUMP JUMPDEST SWAP2 POP PUSH2 0x1752 DUP3 PUSH2 0x1713 JUMP JUMPDEST PUSH1 0x20 DUP3 ADD SWAP1 POP SWAP2 SWAP1 POP JUMP JUMPDEST PUSH0 PUSH1 0x20 DUP3 ADD SWAP1 POP DUP2 DUP2 SUB PUSH0 DUP4 ADD MSTORE PUSH2 0x1774 DUP2 PUSH2 0x173B JUMP JUMPDEST SWAP1 POP SWAP2 SWAP1 POP JUMP JUMPDEST PUSH32 0x4E487B7100000000000000000000000000000000000000000000000000000000 PUSH0 MSTORE PUSH1 0x12 PUSH1 0x4 MSTORE PUSH1 0x24 PUSH0 REVERT JUMPDEST PUSH0 PUSH2 0x17B2 DUP3 PUSH2 0xD8C JUMP JUMPDEST SWAP2 POP PUSH2 0x17BD DUP4 PUSH2 0xD8C JUMP JUMPDEST SWAP3 POP DUP3 PUSH2 0x17CD JUMPI PUSH2 0x17CC PUSH2 0x177B JUMP JUMPDEST JUMPDEST DUP3 DUP3 DIV SWAP1 POP SWAP3 SWAP2 POP POP JUMP INVALID LOG2 PUSH5 0x6970667358 0x22 SLT KECCAK256 PUSH15 0x46993D10270EBC0777BFD41D40EA51 MULMOD PUSH29 0x9C3D72DD06E2F7A44FCA8EE59C2164736F6C6343000818003300000000 "
				},
				"gasEstimates": {
					"creation": {
						"codeDepositCost": "1231600",
						"executionCost": "25544",
						"totalCost": "1257144"
					},
					"external": {
						"create(string,string,uint256)": "infinite",
						"getCurrentProposal()": "infinite",
						"getProposal(uint256)": "infinite",
						"isVoted(uint256,address)": "3037",
						"lastVotedProposal(address)": "2803",
						"owner()": "2549",
						"proposal_history(uint256)": "infinite",
						"setOwner(address)": "26904",
						"vote(uint256,uint8)": "infinite"
					},
					"internal": {
						"calculateCurrentState(uint256)": "infinite"
					}
				},
				"methodIdentifiers": {
					"create(string,string,uint256)": "3ca6d100",
					"getCurrentProposal()": "41ec6870",
					"getProposal(uint256)": "c7f758a8",
					"isVoted(uint256,address)": "49c1a581",
					"lastVotedProposal(address)": "02802bd1",
					"owner()": "8da5cb5b",
					"proposal_history(uint256)": "350f0d8c",
					"setOwner(address)": "13af4035",
					"vote(uint256,uint8)": "943e8216"
				}
			},
			"storageLayout": {
				"storage": [
					{
						"astId": 3,
						"contract": "contracts/FinalProject.sol:ProposalContract",
						"label": "owner",
						"offset": 0,
						"slot": "0",
						"type": "t_address"
					},
					{
						"astId": 5,
						"contract": "contracts/FinalProject.sol:ProposalContract",
						"label": "counter",
						"offset": 0,
						"slot": "1",
						"type": "t_uint256"
					},
					{
						"astId": 27,
						"contract": "contracts/FinalProject.sol:ProposalContract",
						"label": "proposal_history",
						"offset": 0,
						"slot": "2",
						"type": "t_mapping(t_uint256,t_struct(Proposal)22_storage)"
					},
					{
						"astId": 31,
						"contract": "contracts/FinalProject.sol:ProposalContract",
						"label": "lastVotedProposal",
						"offset": 0,
						"slot": "3",
						"type": "t_mapping(t_address,t_uint256)"
					}
				],
				"types": {
					"t_address": {
						"encoding": "inplace",
						"label": "address",
						"numberOfBytes": "20"
					},
					"t_bool": {
						"encoding": "inplace",
						"label": "bool",
						"numberOfBytes": "1"
					},
					"t_mapping(t_address,t_uint256)": {
						"encoding": "mapping",
						"key": "t_address",
						"label": "mapping(address => uint256)",
						"numberOfBytes": "32",
						"value": "t_uint256"
					},
					"t_mapping(t_uint256,t_struct(Proposal)22_storage)": {
						"encoding": "mapping",
						"key": "t_uint256",
						"label": "mapping(uint256 => struct ProposalContract.Proposal)",
						"numberOfBytes": "32",
						"value": "t_struct(Proposal)22_storage"
					},
					"t_string_storage": {
						"encoding": "bytes",
						"label": "string",
						"numberOfBytes": "32"
					},
					"t_struct(Proposal)22_storage": {
						"encoding": "inplace",
						"label": "struct ProposalContract.Proposal",
						"members": [
							{
								"astId": 7,
								"contract": "contracts/FinalProject.sol:ProposalContract",
								"label": "title",
								"offset": 0,
								"slot": "0",
								"type": "t_string_storage"
							},
							{
								"astId": 9,
								"contract": "contracts/FinalProject.sol:ProposalContract",
								"label": "description",
								"offset": 0,
								"slot": "1",
								"type": "t_string_storage"
							},
							{
								"astId": 11,
								"contract": "contracts/FinalProject.sol:ProposalContract",
								"label": "approve",
								"offset": 0,
								"slot": "2",
								"type": "t_uint256"
							},
							{
								"astId": 13,
								"contract": "contracts/FinalProject.sol:ProposalContract",
								"label": "reject",
								"offset": 0,
								"slot": "3",
								"type": "t_uint256"
							},
							{
								"astId": 15,
								"contract": "contracts/FinalProject.sol:ProposalContract",
								"label": "pass",
								"offset": 0,
								"slot": "4",
								"type": "t_uint256"
							},
							{
								"astId": 17,
								"contract": "contracts/FinalProject.sol:ProposalContract",
								"label": "total_vote_to_end",
								"offset": 0,
								"slot": "5",
								"type": "t_uint256"
							},
							{
								"astId": 19,
								"contract": "contracts/FinalProject.sol:ProposalContract",
								"label": "current_state",
								"offset": 0,
								"slot": "6",
								"type": "t_bool"
							},
							{
								"astId": 21,
								"contract": "contracts/FinalProject.sol:ProposalContract",
								"label": "is_active",
								"offset": 1,
								"slot": "6",
								"type": "t_bool"
							}
						],
						"numberOfBytes": "224"
					},
					"t_uint256": {
						"encoding": "inplace",
						"label": "uint256",
						"numberOfBytes": "32"
					}
				}
			},
			"userdoc": {
				"kind": "user",
				"methods": {},
				"version": 1
			}
		}
	}
}